:100000000C94A0000C94C8000C94C8000C94C80078
:100010000C94C8000C94C8000C94C8000C94C80040
:100020000C94C8000C94C8000C94C8000C94C80030
:100030000C94C8000C94C8000C94C8000C94C80020
:100040000C947D180C94C8000C9499170C94DF172D
:100050000C94C8000C94C8000C94C8000C94C80000
:100060000C94C8000C94C8003C004572726F72205A
:100070006372656174696E67205345514C4F470A3E
:10008000005345514C4F4730302E545854004C4F7C
:1000900047253035642E54585400320031006669CB
:1000A0006C652E6F70656E00726F6F742E696E696D
:1000B0007400766F6C756D652E696E69740063618E
:1000C00072642E696E6974004572726F7220007CD2
:1000D0003C3E5E2B3D3F2F5B5D3B2C2A225C0000AB
:1000E000000000240027002A00000000002500284E
:1000F000002B000000000023002600290004040457
:1001000004040404040202020202020303030303C0
:10011000030102040810204080010204081020019D
:100120000204081020000000070002010000030480
:100130000600000000000000000033045D122C04E3
:1001400011241FBECFEFD8E0DEBFCDBF11E0A0E08D
:10015000B1E0E4E8F5E302C005900D92A032B107EA
:10016000D9F716E0A0E2B1E001C01D92AE3CB107A4
:10017000E1F711E0CEE3D1E004C02297FE010E9436
:100180007A1ACA33D107C9F70E94FB190C94B51A21
:100190000C940000FB01DC0105900D920020E1F7BA
:1001A0000895FB01DC0104C08D910190801921F4B8
:1001B00041505040C8F7881B990B0895FB01DC01A2
:1001C00002C001900D9241505040D8F70895AEE022
:1001D000B0E0EDEEF0E00C948C1A0D891E898EE0F3
:1001E0008C831A8309838FEF9FE79E838D839E0103
:1001F000275E3F4FCE0101966F89788DA9010E943D
:100200000B012F813885020F131FF80110822E96E3
:10021000E4E00C94A81AABE0B0E0E1E1F1E00C946A
:100220007E1A3C012B015A01FC0117821682838140
:1002300081FD03C06FEF7FEFC6C19AE0892E1E01DA
:100240000894211C311CF3012381F20123FD8591C7
:1002500023FF81912F01882309F4B2C1853239F43B
:1002600023FD859123FF81912F01853229F490E0B0
:10027000B3010E94FE02E7CF982FFF24EE249924B9
:10028000FFE1FF15D0F09B3269F09C3228F49032E8
:1002900059F0933291F40EC09D3249F0903369F4D5
:1002A00041E024C052E0F52A84E0F82A28C098E012
:1002B000F92A25C0E0E1FE2A22C0F7FC29C0892FD7
:1002C00080538A3070F4F6FE05C0989C902C11245F
:1002D000980E15C0E89CE02C1124E80EF0E2FF2AED
:1002E0000EC09E3229F4F6FC6BC140E4F42A07C02C
:1002F0009C3619F450E8F52A02C0983649F4F20108
:1003000023FD959123FF91912F01992309F0B8CFF7
:10031000892F8554833018F08052833038F444E0BC
:1003200050E0A40EB51E5FE359830FC0933631F041
:10033000933779F0933509F056C020C0F5018081DC
:10034000898342E050E0A40EB51E610101E010E097
:1003500012C0F501C080D180F6FC03C06FEF7FEFC3
:1003600002C0692D70E042E050E0A40EB51EC60147
:100370000E94F3028C015FE7F52214C0F501C080F2
:10038000D180F6FC03C06FEF7FEF02C0692D70E0F3
:1003900042E050E0A40EB51EC6010E94E8028C01A6
:1003A00050E8F52AF3FE07C01AC080E290E0B301DE
:1003B0000E94FE02EA948E2D90E008171907A8F318
:1003C0000EC0F601F7FC8591F7FE81916F0190E078
:1003D000B3010E94FE02E110EA94015010400115A1
:1003E000110579F7EAC0943611F0993669F5F7FEF0
:1003F00008C0F501208131814281538184E090E081
:100400000AC0F501808191819C01442737FD409508
:10041000542F82E090E0A80EB91E9FE6F92257FF04
:1004200009C050954095309521953F4F4F4F5F4FF4
:10043000E0E8FE2ACA01B901A1012AE030E00E94E9
:100440002A03D82ED21840C0953729F41F2D1F7EBD
:100450002AE030E01DC01F2D197F9F3661F09037D4
:1004600020F4983509F0ACC00FC0903739F09837B8
:1004700009F0A6C004C028E030E00AC0106114FDF5
:10048000146020E130E004C014FD166020E132E089
:1004900017FF08C0F501608171818281938144E07A
:1004A00050E008C0F50180819181BC0180E090E0BE
:1004B00042E050E0A40EB51EA1010E942A03D82EEE
:1004C000D2188FE7F82EF122F6FE0BC05EEFF52270
:1004D000D91438F4F4FE07C0F2FC05C08FEEF82200
:1004E00002C01D2D01C0192DF4FE0DC0FE01ED0D41
:1004F000F11D8081803319F499EEF92208C01F5F45
:10050000F2FE05C003C08F2D867809F01F5F0F2D06
:10051000F3FC14C0F0FE0FC01E1510F09D2C0BC094
:100520009D2C9E0C911A1E2D06C080E290E0B30116
:100530000E94FE021F5F1E15C0F304C01E1510F4BA
:10054000E11A01C0EE2404FF0FC080E390E0B30184
:100550000E94FE0202FF1DC001FD03C088E790E07B
:100560000EC088E590E00BC0802F867891F001FFE7
:1005700002C08BE201C080E2F7FC8DE290E0B301A3
:100580000E94FE0206C080E390E0B3010E94FE02DA
:100590009A94D914C0F3DA94F101ED0DF11D808124
:1005A00090E0B3010E94FE02DD20A9F706C080E2C0
:1005B00090E0B3010E94FE02EA94EE20C1F743CE20
:1005C000F30166817781CB012B96E2E10C949A1AB4
:1005D000FC010590615070400110D8F7809590950E
:1005E0008E0F9F1F0895FC01615070400190011013
:1005F000D8F7809590958E0F9F1F08950F931F93A6
:10060000CF93DF938C01EB018B8181FF1BC082FFB5
:100610000DC02E813F818C819D812817390764F49C
:10062000E881F9810193F983E88306C0E885F985BB
:10063000802F0995892B31F48E819F8101969F83AC
:100640008E8302C00FEF1FEFC801DF91CF911F9182
:100650000F910895FA01AA27283051F1203181F134
:10066000E8946F936E7F6E5F7F4F8F4F9F4FAF4FBA
:10067000B1E03ED0B4E03CD0670F781F891F9A1FCD
:10068000A11D680F791F8A1F911DA11D6A0F711D81
:10069000811D911DA11D20D009F468943F912AE08D
:1006A000269F11243019305D3193DEF6CF01089575
:1006B000462F4770405D4193B3E00FD0C9F7F6CFA6
:1006C000462F4F70405D4A3318F0495D31FD40526E
:1006D000419302D0A9F7EACFB4E0A6959795879504
:1006E00077956795BA95C9F70097610571050895E3
:1006F0009B01AC010A2E069457954795379527958F
:10070000BA95C9F7620F731F841F951FA01D089526
:100710008091C00085FFFCCF6093C60081E090E02F
:100720000895CF92DF92EF92FF920F931F93CF9392
:10073000DF937C016B018A01C0E0D0E00DC0D701DE
:10074000ED91FC91D601AC0FBD1F0190F081E02D21
:10075000C7016C9109952196C017D10780F3C80194
:10076000DF91CF911F910F91FF90EF90DF90CF908D
:100770000895089584EB96E00E9482170895DF9310
:10078000CF930F92CDB7DEB784EB96E0BE016F5FDB
:100790007F4F0E944B17882319F42FEF3FEF03C0C0
:1007A0008981282F30E0C9010F90CF91DF91089502
:1007B00084EB96E00E943917089581309105C1F5C8
:1007C0006F5F7F4F09F047C0109223011092220102
:1007D00088EE93E0A0E0B0E080932401909325019F
:1007E000A0932601B093270184E091E0909321012A
:1007F0008093200184EB96E06CE271E041E253E0EB
:100800000E94761789E180934F041092520410924F
:100810006A04109275041092780410927404109275
:1008200073048CE191E090937204809371040895B5
:10083000892B89F46F5F7F4F71F48CE191E0909385
:1008400072048093710480917804882321F085E7F5
:1008500094E00E943A0B089580E090E06FEF7FEF04
:100860000E94DD03089581E090E06FEF7FEF0E942A
:10087000DD0308950F931F93CF93DF93C0E0D0E083
:10088000082F10E015C085E061E00E94A61968EC11
:1008900070E080E090E00E94D31885E060E00E9464
:1008A000A61968EC70E080E090E00E94D3182196D1
:1008B000C017D10744F360ED77E080E090E00E943C
:1008C000D318C0E0D0E0F4CF1F93182F80E291E05E
:1008D00068EC70E00E94361A173079F0183018F47E
:1008E0001630F1F405C0183069F01930C9F40FC0A2
:1008F00080E291E06EEB70E00EC080E291E062EB8E
:1009000070E009C080E291E068EA70E004C080E233
:1009100091E06EE970E00E94361A83E00E943A048A
:100920001F910895EF92FF920F931F93CF93DF9340
:100930007B018A01060F171FEB01C017D107B0F426
:100940002091B6063091B7068091B8069091B9060D
:100950002817390759F0A8014C1B5D0B84EB96E072
:10096000BE010E941E18C80FD91FE7CF9E012E1985
:100970003F09C901DF91CF911F910F91FF90EF9037
:1009800008957F928F929F92AF92BF92CF92DF9203
:10099000EF92FF920F931F93DF93CF93CDB7DEB704
:1009A000CF59D0400FB6F894DEBF0FBECDBFAC011B
:1009B0001D8218861C821B828CE191E09A838983B8
:1009C000CE01059665E774E026E40E947E11882337
:1009D00019F489E00E9464048E899F89A88DB98DDD
:1009E0000097A105B10569F48E010B5F1F4FC80187
:1009F00040E050E060E070E00E94220AC8010E94DE
:100A0000EC0A80E291E068E670E00E94361A85E028
:100A100061E00E94A6190E94C5187B018C0120E2AA
:100A2000A22EB12CAC0EBD1E4E010894811C911C4F
:100A300090E2792E85E0C82ED12CCC0EDD1E80E20E
:100A400091E0B50140E850E00E949204482F8823CD
:100A5000B9F0C401B50150E00E9481128BB1872525
:100A60008BB90E94C5186E197F09800B910B6958CC
:100A700073418040904018F3C6010E94EC0A2AC0DE
:100A80000E94C5186E197F09800B910B655F71403C
:100A900080409040A0F2C6010E94EC0A5D988091CF
:100AA000640080628093640080916400846080931D
:100AB000640083B7816083BF889583B78E7F83BFCF
:100AC000809164008B7F80936400809164008F7DAF
:100AD000809364000E94C5187B018C01B0CFCF9237
:100AE000DF92EF92FF920F931F93DF93CF93CDB7D7
:100AF000DEB7AB970FB6F894DEBF0FBECDBF198A35
:100B00001C8A188A1F864CE1C42E41E0D42EDE8652
:100B1000CD868E010F5F1F4FC80161E870E00E9413
:100B2000CA0031E1E32EF12CEC0EFD1EC70165E792
:100B300074E0A80122E40E947E11882339F480E247
:100B400091E06AE670E00E94361A06C0C7010E9472
:100B50003A0BC8010E94C1048C89882329F0DE86E3
:100B6000CD86C7010E943A0BAB960FB6F894DEBF54
:100B70000FBECDBFCF91DF911F910F91FF90EF90EE
:100B8000DF90CF900895AF92BF92CF92DF92EF9215
:100B9000FF920F931F93DF93CF93CDB7DEB76F977D
:100BA0000FB6F894DEBF0FBECDBF1D8218861C8223
:100BB0001B828CE191E09A83898384EC96E063E068
:100BC00070E00E946A18182F84EC96E064E070E0F0
:100BD0000E946A18282F982F80E0E12EFF24E82A2F
:100BE000F92A1F3F91F42F3F81F484EC96E063E0F3
:100BF00070E040E00E94711884EC96E064E070E0E0
:100C000040E00E947118EE24FF2465E9C62E64E0DE
:100C1000D62E5EE8A52E50E0B52E8E010B5F1F4F3D
:100C200000D000D000D0EDB7FEB73196ADB7BEB75B
:100C30001296DC92CE921197B382A282F582E48260
:100C40000E94E7008DB79EB706960FB6F8949EBF38
:100C50000FBE8DBFC80165E774E0A60122EC0E94BB
:100C60007E118823E1F4C80165E774E0A60121E064
:100C70000E947E11882379F08E899F89A88DB98D75
:100C80000097A105B10521F4C8010E943A0B23C0C9
:100C9000C8010E943A0B0894E11CF11CC1CFC801A5
:100CA0000E943A0B0894E11CF11C84EC96E063E08E
:100CB00070E04E2D0E94711884EC96E064E070E0C4
:100CC0000E946A188F1539F084EC96E064E070E0B9
:100CD0004F2D0E9471188885882341F08CE191E0A6
:100CE0009A838983CE0105960E943A0B85E994E0A8
:100CF0006F960FB6F894DEBF0FBECDBFCF91DF91D8
:100D00001F910F91FF90EF90DF90CF90BF90AF9029
:100D1000089580919404882321F40E94C3050E94C1
:100D2000C10480919404813011F40E946F05FFCFBB
:100D300085E061E00E94671983B7817F83BF83B735
:100D4000816083BF80917A008F7780937A0080E8FA
:100D500080BF8FE380937E0083E080937F0080914B
:100D60006400806880936400809164008860809350
:100D700064008091640080648093640080916400CA
:100D800081608093640080E092ECA1E0B0E0809309
:100D9000900490939104A0939204B09393041092C2
:100DA00094041092C10086E08093C20082E0809398
:100DB000C0001092C50080E18093C40088E9809350
:100DC000C10080E291E06CE970E00E94361A8EE486
:100DD00094E060E04AE00E940809882319F486E064
:100DE0000E94640483E594E06EE474E041E00E94B4
:100DF000FC12882361F483E594E06EE474E040E043
:100E00000E94FC12882319F487E00E94640485E79D
:100E100094E00E943A0B85E794E063E574E00E9459
:100E2000720D882319F488E00E94640480E291E046
:100E30006AE970E00E94361A0895FF920F931F939B
:100E4000CF93DF938B010E94C518EB01FF24FA9426
:100E500009C00E94C5186C1B7D0B6017710710F04C
:100E600080E008C0FEBC0DB407FEFDCF8EB58F3FFD
:100E700081F781E0DF91CF911F910F91FF9008954D
:100E8000FC014281242F30E0C9019595879580654A
:100E90008CBD40FF02C080E004C080E0463009F015
:100EA00081E08DBD808160E00E94A6190895DF92E7
:100EB000EF92FF920F931F93CF93DF93EC01D62E07
:100EC00079018A010E944007CE016CE271E00E9424
:100ED0001D078D2D80648EBD0DB407FEFDCF28E16A
:100EE00030E0D801C701022E04C0B695A7959795AA
:100EF00087950A94D2F78EBD0DB407FEFDCF28501A
:100F000030408FEF283F380761F7DD2011F485E985
:100F100006C088E0D81611F487E801C08FEF8EBDB7
:100F20000DB407FEFDCF8CE0D81631F48FEF8EBDE7
:100F30000DB407FEFDCF8EB59FEF2FEF2EBD0DB484
:100F400007FEFDCF8EB587FF04C0992311F09150A5
:100F5000F5CF8B83DF91CF911F910F91FF90EF9091
:100F6000DF900895DF92EF92FF920F931F93CF933C
:100F7000DF93EC01D62E79018A0167E320E030E0AF
:100F800040E050E00E945707882331F0CE016D2DDC
:100F9000A80197010E945707DF91CF911F910F91F0
:100FA000FF90EF90DF900895FC01808161E00E9446
:100FB000A6198FEF8EBD0DB407FEFDCF0895DC019D
:100FC0006EBDFA0120E030E00DB407FEFDCF808158
:100FD0008EBD0DB407FEFDCF81818EBD2E5F3F4FCC
:100FE000329682E02030380779F70DB407FEFDCF46
:100FF0008FEF8EBD0DB407FEFDCF8FEF8EBD0DB40C
:1010000007FEFDCF8FEF8EBD0DB407FEFDCF8EB571
:1010100013968C9313978F71853011F481E00895A6
:1010200083E111968C931197CD010E94D40780E043
:101030000895CF92DF92EF92FF920F931F93CF9379
:10104000DF93EC017A018B0169018C81833039F0E7
:1010500059E0EE0CFF1C001F111F5A95D1F7CE016D
:1010600068E1A80197010E945707882311F086E0E4
:1010700023C0CE016EEFA6010E94DF078823E9F0AE
:10108000CE0168E572E00E941D07882311F487E114
:1010900013C0CE016DE020E030E040E050E00E945F
:1010A0005707882341F48FEF8EBD0DB407FEFDCFA7
:1010B0008EB5882379F086E18983CE010E94D4071A
:1010C00080E0DF91CF911F910F91FF90EF90DF9023
:1010D000CF900895CE010E94D40781E0F2CFBF9255
:1010E000CF92DF92EF92FF920F931F93CF93DF93F4
:1010F000EC016B017A010E94C5188B01BB24BA94E4
:1011000009C00E94C518601B710B6D52714010F030
:1011100081E10BC0BEBC0DB407FEFDCF8EB58B8345
:101120008F3F79F38E3F39F08FE08983CE010E94A3
:10113000D40780E02FC0D7011197EF28D9F08FEFA7
:101140008EBD20E030E09FEF0BC00DB407FEFDCF59
:101150008EB5F601E20FF31F80839EBD2F5F3F4FD8
:101160002A173B0790F30DB407FEFDCF8EB5AC0DEB
:10117000BD1D8C938FEF8EBD0DB407FEFDCF8EB5D8
:101180008FEF8EBD0DB407FEFDCF8EB5CE010E9450
:10119000D40781E0DF91CF911F910F91FF90EF90E5
:1011A000DF90CF90BF900895CF92DF92EF92FF92A1
:1011B0000F931F93CF93DF93EC017A018B016901A9
:1011C0008C81833039F0A9E0EE0CFF1C001F111F49
:1011D000AA95D1F7CE0161E1A80197010E945707B6
:1011E000882339F084E08983CE010E94D40780E00F
:1011F00006C0CE01B60140E052E00E946F08DF91C8
:10120000CF911F910F91FF90EF90DF90CF900895B5
:10121000BF92CF92DF92EF92FF920F931F93CF93E3
:10122000DF93EC01B62E1C82198248830E94C518F8
:101230006B01888161E00E946719888161E00E94EA
:10124000A6198CE060E00E9467198BE061E00E94C3
:1012500067198DE061E00E9467198AE061E00E94F1
:1012600067198AE061E00E94A61985E08A8382E519
:101270008CBD1DBC80E09FEF9EBD0DB407FEFDCF71
:101280008F5F8A30C9F709C00E94C5186C197D09A3
:10129000615D774010F081E056C0CE0160E020E053
:1012A00030E040E050E00E945707182F8B838130D8
:1012B00059F7CE0168E02AEA31E040E050E00E94B0
:1012C000570782FF02C01C8311C080E02FEF2EBDA4
:1012D0000DB407FEFDCF9EB58F5F8430C1F79B83B1
:1012E0009A3A11F082E02FC082E08C838C818230A8
:1012F00021F0EE24FF2487010FC0E12CF12C012DF9
:1013000000E4102F09C00E94C5186C197D09615DA9
:10131000774010F08AE017C0CE0169E2A80197017A
:101320000E94B2078B83882371F78C81823029F564
:10133000CE016AE320E030E040E050E00E94570731
:10134000882331F088E08983CE010E94D40721C030
:101350008FEF8EBD0DB407FEFDCF8EB5807C803C37
:1013600011F483E08C8380E09FEF9EBD0DB407FEF7
:10137000FDCF2EB58F5F8330C1F7CE010E94D40719
:1013800086E08B1518F488E1898303C0BA8281E076
:1013900001C080E0DF91CF911F910F91FF90EF90FE
:1013A000DF90CF90BF9008950F931F93CF93DF935B
:1013B000DC01EB018A0180E090E020E2FE01E80F11
:1013C000F91F208301968B309105C1F757E040E06B
:1013D00024C0622F2E3219F08FEC90E007C05A30F3
:1013E00051F15AE048E018C0321729F1FC0101968A
:1013F00034913323C9F75417F0F02132E0F02F373E
:10140000D0F4822F81568A3110F4622F6052FE018F
:10141000E40FF11D60834F5F11962C91222311F090
:101420002F32B9F6F801B183A08390E08881803231
:1014300019F091E001C090E0892FDF91CF911F91C9
:101440000F9108956F927F928F929F92AF92BF9269
:10145000CF92DF92EF92FF920F931F93CF93DF9380
:10146000EC017A018B012B81222309F480C0898948
:101470009A89AB89BC8984179507A607B70708F432
:1014800076C085C0E114F1040105110551F41C82F8
:101490001D821E821F82188619861A861B8681E08D
:1014A00067C0288539854A855B85E98DFA8D8585F4
:1014B00090E00996215030404040504039014A01A7
:1014C000082E04C096948794779467940A94D2F770
:1014D0002F5F3F4F4F4F5F4F0894E108F10801091C
:1014E00011095701680104C0D694C794B794A79412
:1014F0008A95D2F70894E11CF11C011D111DA61458
:10150000B704C804D90428F0211531054105510557
:1015100049F48D899E89AF89B88D8C839D83AE8374
:10152000BF8316C0A618B708C808D90811C04C81D7
:101530005D816E817F81898D9A8D94010E94EA146C
:101540000894A108B108C108D108882331F40FC05C
:1015500084E0882E912C8C0E9D1EA114B104C10430
:10156000D10429F7E886F9860A871B8798CF80E09F
:10157000DF91CF911F910F91FF90EF90DF90CF906F
:10158000BF90AF909F908F907F906F900895223082
:1015900009F078CFE7CFCF93DF93EC018C859D8561
:1015A000AE85BF8540E0611141E0BC01CD010E94E4
:1015B000C012882319F420E030E00AC08889282F5F
:1015C00030E095E0220F331F9A95E1F724553B4F09
:1015D000C901DF91CF9108950F931F93CF93DF93AC
:1015E0008C01FC0183818823E1F1818187FF36C072
:1015F000C80161E00E94CB0AEC01009791F188815B
:10160000853E79F1F8018381823040F481899289A5
:10161000A389B4898C8F9D8FAE8FBF8FF801858988
:101620009689A789B08D9B8F8A8FCD01AA27BB276A
:101630009D8B8C8BE091A204F091A304309751F024
:10164000BE016A5E7F4FCE0148960995888D998DBF
:101650009B8B8A8BF80181818F7781830E94851211
:1016600004C081E0F801808380E0DF91CF911F9179
:101670000F9108950F931F938C010E94EC0AF801BB
:1016800013821F910F910895FC018381882319F023
:10169000CF010E943A0B08956F927F928F929F9292
:1016A000AF92BF92CF92DF92EF92FF920F931F9370
:1016B000DF93CF9300D000D0CDB7DEB77C015A01C5
:1016C0006B01DC0113968C911397813009F091C066
:1016D00011968C9181FF8DC0A0C00097A105B10526
:1016E00011F481E087C0F70160847184828493845F
:1016F000C701B601A5010E94220A882309F479C016
:10170000D70159968D919C915A97A114B104C104A7
:10171000D10489F455964D915D916D917C915897C6
:101720000E946015882309F464C0F701158A168A9F
:10173000178A108E44C0D70114964D915D916D911A
:101740007C9117979E012F5F3F4F0E94EA148823D8
:1017500009F44FC0D7015996ED91FC915A974981F0
:101760005A816B817C818789803149F4483FBFEF82
:101770005B07B0E06B07B0E07B0748F020C0483F54
:101780008FEF58078FEF68078FE07807C0F4CF011D
:101790000E946015882369F1D70114964D915D91DF
:1017A0006D917C91179759968D919C915A970FEF57
:1017B0001FEF2FEF3FE00E9463148823D1F0F70161
:1017C000A18AB28AC38AD48A818180688183C70151
:1017D0000E94EC0A882369F0B601A5016A147B0413
:1017E0008C049D0410F4B401A301C7010E94220AD5
:1017F00001C080E00F900F900F900F90CF91DF917C
:101800001F910F91FF90EF90DF90CF90BF90AF901E
:101810009F908F907F906F900895F70181899289B2
:10182000A389B48984179507A607B70708F055CF91
:10183000E0CF2F923F924F925F926F927F928F9262
:101840009F92AF92BF92CF92DF92EF92FF920F934F
:101850001F93CF93DF93EC012A018B81882309F436
:10186000B6C0898180FFB3C0C8C025014E185F088B
:101870003B0174E0272E312C2C0E3D1E4201A1C0ED
:10188000288539854A855B856FEFA62E61E0B62EE7
:10189000A222B3228B8179018A0199E016950795DE
:1018A000F794E7949A95D1F7E98DFA8D823049F44F
:1018B000428D538D648D758D4E0D5F1D601F711FA0
:1018C0003FC0D480DA94DE20A114B104D9F4DD2025
:1018D000C9F4211531054105510549F48D899E89C9
:1018E000AF89B88D8C839D83AE83BF830BC04C8141
:1018F0005D816E817F81CF0191010E94EA1488236E
:1019000009F465C0E98DFA8D4C815D816E817F811E
:101910004250504060407040058404C0440F551F41
:10192000661F771F0A94D2F786859785A089B189AB
:10193000480F591F6A1F7B1F4D0D511D611D711DE1
:1019400080E092E08A199B0984018815990508F4C2
:101950008C0182E00030180709F067C08091A8046C
:101960009091A904A091AA04B091AB04481759071B
:101970006A077B0709F459C08091AC069091AD06C7
:1019800093010E94D408882349F421C0950124556D
:101990003B4FC301B901A8010E94DE00600E711E19
:1019A000980140E050E088859985AA85BB85820F23
:1019B000931FA41FB51F88879987AA87BB87801AA2
:1019C000910A8114910409F05BCFA20102C04FEF8C
:1019D0005FEFCA01DF91CF911F910F91FF90EF90C0
:1019E000DF90CF90BF90AF909F908F907F906F903F
:1019F0005F904F903F902F900895A988BA88CB8828
:101A0000DC88E884F9840A851B859A0140E050E06F
:101A1000D601C5018E199F09A00BB10B28173907F4
:101A20004A075B0708F021CF23CFCB01BA0140E082
:101A30000E94C012882309F0A9CFC9CFDF93CF93AA
:101A40000F92CDB7DEB7BE016F5F7F4F41E050E030
:101A50000E94190C019719F02FEF3FEF03C0898105
:101A6000282F30E0C9010F90CF91DF910895EF92B8
:101A7000FF920F931F93CF93DF93EC018B81823002
:101A800038F1E884F9840A851B85CE010E941E0D79
:101A900097FD1EC088859985AA85BB854F96A11D97
:101AA000B11D88879987AA87BB87F5E016950795AA
:101AB000F794E794FA95D1F72E2D30E02F7030701F
:101AC000E5E0220F331FEA95E1F724553B4F02C0B2
:101AD00020E030E0C901DF91CF911F910F91FF907D
:101AE000EF9008950F931F93CF93DF93EC018B0139
:101AF0008B81882309F040C0FB018789803109F080
:101B000041C082E08B831D8A1E8A1F8A188E808DB9
:101B1000918DA0E0B0E025E0880F991FAA1FBB1FA0
:101B20002A95D1F7898B9A8BAB8BBC8B13C083E042
:101B30008B83F801428D538D648D758D4D8B5E8B3B
:101B40006F8B788F9E012F5E3F4FC8010E94BE159C
:101B5000882391F01A8F098F81E089831C821D826E
:101B60001E821F82188619861A861B861C861D8671
:101B70001E861F86188A01C080E0DF91CF911F91D9
:101B80000F9108958032C1F7D2CF1F93CF93DF9387
:101B9000EC01142F262F30E0F90155E0EE0FFF1F66
:101BA0005A95E1F7E455FB4F8385817121F0842F2D
:101BB000827109F069C08091A8049091A904A09154
:101BC000AA04B091AB048C879D87AE87BF87688BD2
:101BD000F90145E0EE0FFF1F4A95E1F7E455FB4F91
:101BE00084899589A0E0B0E0DC01992788278D8B56
:101BF0009E8BAF8BB88F228D338DA90160E070E092
:101C0000482B592B6A2B7B2B4D8B5E8B6F8B788FE0
:101C1000838590E088719070009751F4848D958D44
:101C2000A68DB78D898B9A8BAB8BBC8B81E00CC05A
:101C3000409751F59E012F5E3F4F898D9A8D0E94EE
:101C4000BE15882309F184E08B83812F8F708983EF
:101C50001C821D821E821F82188619861A861B8688
:101C600014FF18C0CE0140E050E060E070E00E9438
:101C70004C0B882379F40AC049895A896B897C897D
:101C8000CE010E94220A02C01B8280E0DF91CF9128
:101C90001F91089515FDF0CF81E0F8CFCF93DF932A
:101CA000EC019C012C5F3F4F898D9A8D41E050E003
:101CB00060E070E00E942A168823A1F08D899E8939
:101CC000AF89B88D0097A105B10559F48C819D812C
:101CD000AE81BF818D8B9E8BAF8BB88F89818068E1
:101CE000898381E0DF91CF9108952F923F924F92A7
:101CF0005F927F928F929F92AF92BF92CF92DF922C
:101D0000EF92FF920F931F93DF93CF9300D000D0F9
:101D100000D0CDB7DEB76C01162F072F5E834D8341
:101D2000DC0113968C911397813009F06EC11196E6
:101D30008C9181FF6AC187C1F6014189528963890B
:101D4000748980859185A285B38584179507A60738
:101D5000B70731F0C6010E94220A882309F455C151
:101D6000812F902F9C0119014D805E8012C1D601F8
:101D70005996ED91FC915A97DA01C90149E0B6955F
:101D8000A795979587954A95D1F774807A9478228C
:101D90008FEF882E81E0982E82229322772009F0FF
:101DA00052C08114910409F04EC0D60114964D9191
:101DB0005D916D917C9117974115510561057105F4
:101DC00071F1CF019E012F5F3F4F0E94EA148823DB
:101DD00009F41BC129813A814B815C81D601599656
:101DE000ED91FC915A978789803149F4283FBFEFE4
:101DF0003B07B0E04B07B0E05B0748F019C0283F55
:101E0000EFEF3E07EFEF4E07EFE05E0788F4D601F5
:101E100014962D933D934D935C93179714C0F60140
:101E200085899689A789B08D0097A105B10531F400
:101E3000C6010E944E0E882331F4E7C0F601848368
:101E40009583A683B78380E092E0881999095201AF
:101E50008415950508F45C01D6015996ED91FC9125
:101E60005A971496ED90FD900D911C9117978EEF57
:101E70009FEFAFEFBFEFE80EF91E0A1F1B1F05848F
:101E800004C0EE0CFF1C001F111F0A94D2F78685B8
:101E90009785A089B189E80EF91E0A1F1B1FE70C60
:101EA000F11C011D111D90E0A91692E0B90639F54B
:101EB0008091A8049091A904A091AA04B091AB04C8
:101EC0008E159F05A007B10771F41092AE068FEF33
:101ED0009FEFAFEFBFEF8093A8049093A904A09366
:101EE000AA04B093AB048091AC069091AD06B80102
:101EF000A70191010E9419088823B9F586C08114B1
:101F0000910419F5D60118962D913D914D915C9152
:101F10001B9751968D919D910D90BC91A02D2817E6
:101F200039074A075B0788F00E948512882309F465
:101F30006CC081E08093AE06E092A804F092A90400
:101F40000093AA041093AB0408C0C801B70141E094
:101F50000E94C012882309F458C0940124553B4FB5
:101F6000C901B101A5010E94DE00950140E050E0E9
:101F7000F60180859185A285B385820F931FA41FEA
:101F8000B51F80879187A287B3872A0C3B1C4A180C
:101F90005B08D60118962D913D914D915C911B9750
:101FA0004114510409F0E3CE51968D919D910D900D
:101FB000BC91A02D82179307A407B50748F4F6013A
:101FC000218B328B438B548B81818068818311C03C
:101FD0008091A2049091A304892B59F08D819E8158
:101FE000892B39F0D60111968C9111978068119642
:101FF0008C93F601818183FF05C0C6010E94EC0A23
:10200000882319F04D815E8105C081E0D6018C9353
:102010004FEF5FEFCA0126960FB6F894DEBF0FBEF2
:10202000CDBFCF91DF911F910F91FF90EF90DF9087
:10203000CF90BF90AF909F908F907F905F904F9088
:102040003F902F90089582FD77CE8ACEDF92EF9257
:10205000FF920F931F93CF93DF93EC0189899A89A5
:10206000AB89BC89805E9F4FAF41B04008F071C022
:10207000CE010E944E0E882309F46BC00E94851287
:10208000882309F466C0E98DFA8DEC80FD800E810D
:102090001F818EEF9FEFAFEFBFEFE80EF91E0A1F13
:1020A0001B1F058404C0EE0CFF1C001F111F0A94A7
:1020B000D2F786859785A089B189E80EF91E0A1F97
:1020C0001B1F81E08093AE06E092A804F092A90461
:1020D0000093AA041093AB0480E092E0ECEAF4E0F1
:1020E000DF019C011D9221503040E1F7DD24D394A3
:1020F00011C0B801A7014D0D511D611D711D8091C9
:10210000AC069091AD062CEA34E00E9419088823B1
:1021100001F1D394E98DFA8D8481D81650F320E033
:1021200032E040E050E0058404C0220F331F441F1A
:10213000551F0A94D2F789899A89AB89BC89820F85
:10214000931FA41FB51F898B9A8BAB8BBC8B81E02F
:1021500001C080E0DF91CF911F910F91FF90EF9030
:10216000DF9008958F929F92AF92BF92CF92DF92AD
:10217000EF92FF920F931F93CF93DF936C01EB01CC
:10218000942E852EA22E898D9A8DD6015A969C93D7
:102190008E935997CB0140E050E060E070E00E94E0
:1021A000220ABB2438C0CE010E94370DFC010097E3
:1021B00009F493C055E016950795F794E7945A955E
:1021C000D1F71E2D1F708081882311F0853EC9F440
:1021D000BB2099F42091A8043091A9044091AA044D
:1021E0005091AB04D6011C962D933D934D935C9377
:1021F0001F9750961C93BB24B3948081882359F475
:1022000018C0892D982DBF014BE050E00E94D100ED
:10221000009709F470C0E884F9840A851B858989D0
:102220009A89AB89BC89E816F9060A071B0708F4E6
:10223000BACFA6FE52C0A1FE50C0BB2051F0F6019D
:102240001089C60161E00E94CB0AEC01009769F495
:1022500044C08B81823009F440C0CE010E94261018
:102260008823D9F110E0CCEAD4E080E2DE011D92AF
:102270008A95E9F7DE01292D382DC901FC018BE093
:1022800001900D928150E1F7E091A204F091A30436
:10229000309739F0BE01625F7F4FCE0140960995BD
:1022A00008C081E298E2998B888B80E098E09F8754
:1022B0008E87888999899B8B8A8B998F888F8E8549
:1022C0009F859F8B8E8B0E948512882331F0C601DB
:1022D000612F4A2D0E94C50D01C080E0DF91CF9192
:1022E0001F910F91FF90EF90DF90CF90BF90AF9034
:1022F0009F908F900895A7FEEACFEFCF2F923F9245
:102300004F925F926F927F928F929F92AF92BF9205
:10231000CF92DF92EF92FF920F931F93DF93CF93B1
:10232000CDB7DEB7C654D0400FB6F894DEBF0FBEAF
:10233000CDBF3C016B01DE01AE5BBF4F11965C93DC
:102340004E9325962FAF25971C861F861FA21AA68F
:102350006115710509F480C0FC018381882309F0AF
:102360007BC0FA0180818F32F1F08601ECE0EE2E25
:10237000F12CEC0EFD1E72E4A72EB12CAC0EBD1E8E
:102380004E010894811C911C2796FFAEEEAE279754
:1023900067E2262E312C2C0E3D1E270124C01196FB
:1023A000B183A08301C0FD01A081B1818C918F32E6
:1023B000B1F3D60113968C91139782508230A8F214
:1023C0008E01095D1F4F59966D917C915A97C801F6
:1023D0000E94720D882351F63FC0342D252D8701B0
:1023E000832F922F7C01F50180819181B401A50199
:1023F0000E94D409882329F42FC03196D501ED938A
:10240000FC93D501ED91FC9180818F32B1F388234B
:10241000C9F0C701B801A40121E00E94B2108823CD
:10242000D9F00C151D0519F0C8010E943A0B27962A
:10243000EEADFFAD2797EE16FF0679F6C101322DFE
:10244000292FCDCFC301B801A40125962FAD259723
:102450000E94B210182F01C010E0CE0187960E9492
:10246000440BCE010C960E94440B812FCA5BDF4FB8
:102470000FB6F894DEBF0FBECDBFCF91DF911F9195
:102480000F91FF90EF90DF90CF90BF90AF909F9013
:102490008F907F906F905F904F903F902F90089516
:1024A0008091C10085FDFCCF8091C00085FFF8CFF1
:1024B0006093C60081E090E008951092A704109206
:1024C000A60484E191E09093A5048093A404089568
:1024D000DF93CF930F92CDB7DEB769830496BE0129
:1024E0006F5F7F4F41E050E00E94750E20E030E0CA
:1024F000019711F421E030E0C9010F90CF91DF91F5
:10250000089504960E94750E08958091AE06882362
:1025100099F14091A8045091A9046091AA04709186
:10252000AB048091AC069091AD062CEA34E00E9499
:102530001908882319F14091AF065091B0066091B7
:10254000B1067091B206411551056105710591F012
:102550008091AC069091AD062CEA34E00E941908F7
:10256000882361F01092AF061092B0061092B10667
:102570001092B2061092AE0681E0089580E00895B0
:10258000DF92EF92FF920F931F937B018C01D42E69
:102590008091A8049091A904A091AA04B091AB04E1
:1025A0008E159F05A007B107C1F00E9485128823F0
:1025B000E1F08091AC069091AD06B801A7012CEA3C
:1025C00034E00E94D408882381F0E092A804F092BD
:1025D000A9040093AA041093AB04DD2011F481E058
:1025E00005C081E08093AE0601C080E01F910F918D
:1025F000FF90EF90DF9008958F929F92AF92BF92DD
:10260000CF92DF92EF92FF920F931F93CF93DF93BE
:102610006C01142F7093AD066093AC06FC01178A11
:1026200082E090E0A0E0B0E080839183A283B38356
:102630001092AE061092AF061092B0061092B1063C
:102640001092B2068FEF9FEFAFEFBFEF8093A80419
:102650009093A904A093AA04B093AB04442321F45B
:1026600088249924540140C0453008F01EC160E020
:1026700070E080E090E040E00E94C012882309F4FE
:1026800014C1C12FD0E02197FE0174E0EE0FFF1FAF
:102690007A95E1F7E455FB4FE254FE4F8081EE5B03
:1026A000F14090E08F779070892B09F0FEC0E653DF
:1026B000FE4F80819181A281B38184369105A1056D
:1026C000B10508F4F2C064E0CC0FDD1F6A95E1F7B4
:1026D000CE58D94F88809980AA80BB8081149104FC
:1026E000A104B10409F4E1C0C501B40140E00E94B5
:1026F000C012882309F4D9C08091B7049091B8041E
:102700008050924009F0D1C02091BC04222309F4EA
:10271000CCC08091BA049091BB04892B09F4C5C048
:102720008091B904882309F4C0C0F601228B8091FE
:10273000B9048483158661E070E007C04F5FF6013D
:1027400045874150483008F0B0C0F6014585848186
:1027500090E09B01042E02C0220F331F0A94E2F77F
:102760008217930759F72091C2043091C3042115B1
:10277000310519F040E050E008C02091D0043091BC
:10278000D1044091D2045091D304F60125833683BD
:1027900047835087E090BA04F090BB0400E010E05B
:1027A000E80CF91C0A1D1B1DE38AF48A058B168BA5
:1027B0008091BD049091BE04918F808F6091BC0484
:1027C00070E080E090E00E94591A6E0D7F1D801F1E
:1027D000911FF601628F738F848F958F2091BD04B6
:1027E0003091BE0455E0220F331F5A95E1F7215076
:1027F0003E4F232F3327269540E050E0260F371F0A
:10280000481F591F26873787408B518B8091BF0403
:102810009091C004009719F0A0E0B0E008C080914A
:10282000CC049091CD04A091CE04B091CF04850149
:102830007401E21AF30A040B150BA8019701280F83
:10284000391F4A1F5B1FF601058404C05695479542
:10285000379527950A94D2F7218732874387548783
:10286000253FFFE03F07F0E04F07F0E05F0720F46F
:102870008CE0F601878B19C0255F3F4F40405040E8
:1028800018F480E1F6010EC08091D8049091D9042B
:10289000A091DA04B091DB04F601828F938FA48FAC
:1028A000B58F80E2878B81E001C080E0DF91CF911E
:1028B0001F910F91FF90EF90DF90CF90BF90AF905E
:1028C0009F908F9008956F927F928F929F92AF9278
:1028D000BF92CF92DF92EF92FF920F931F93CF930D
:1028E000DF93EC015A016B01380149014230510577
:1028F0006105710508F45EC089859A85AB85BC8544
:102900000196A11DB11D84179507A607B70708F406
:1029100051C08F89803129F4E52EF62E072F11271B
:102920000CC0803209F046C07A018B0187E0169511
:102930000795F794E7948A95D1F78B899C89AD899F
:10294000BE89E80EF91E0A1F1B1FC801B70141E02E
:102950000E94C012882371F18F89803149F4F501FA
:10296000F070EE0FFF1FE455FB4F718260820DC0C7
:10297000F501EF77F070EE0FFF1FEE0FFF1FE4552C
:10298000FB4F60827182828293828A89823080F0DA
:102990008D819E81AF81B885E80EF91E0A1F1B1F2D
:1029A000E092AF06F092B0060093B1061093B20623
:1029B00081E001C080E0DF91CF911F910F91FF90E6
:1029C000EF90DF90CF90BF90AF909F908F907F90CF
:1029D0006F900895CF92DF92EF92FF920F931F9323
:1029E000CF93DF93EC017A018B01690189859A8588
:1029F000AB85BC850196A11DB11D84179507A6075F
:102A0000B70708F453C08F89803129F45527412F27
:102A1000302F2F2D0CC0803209F048C09A01AB0135
:102A200067E056954795379527956A95D1F78B8935
:102A30009C89AD89BE89280F391F4A1F5B1F809171
:102A4000A8049091A904A091AA04B091AB042817FE
:102A500039074A075B0739F0CA01B90140E00E9413
:102A6000C012882319F18F89803159F4F701F07071
:102A7000EE0FFF1FE455FB4F80819181A0E0B0E095
:102A80000EC0F701EF77F070EE0FFF1FEE0FFF1F84
:102A9000E455FB4F80819181A281B381BF70F60123
:102AA00080839183A283B38381E001C080E0DF91C2
:102AB000CF911F910F91FF90EF90DF90CF900895ED
:102AC000AF92BF92CF92DF92EF92FF920F931F933C
:102AD000DF93CF9300D000D0CDB7DEB76C017A0181
:102AE0008B0182E090E0A0E0B0E0F601808391836A
:102AF000A283B3835E010894A11CB11CC601B80176
:102B0000A70195010E94EA14882341F1C601B8018A
:102B1000A70100E010E020E030E00E946314882369
:102B2000E9F0E980FA800B811C81F6018789803108
:102B300051F4F8EFEF16FFEFFF06F0E00F07F0E0BB
:102B40001F07E0F209C088EFE8168FEFF8068FEF55
:102B500008078FE0180790F281E001C080E00F9035
:102B60000F900F900F90CF91DF911F910F91FF90D9
:102B7000EF90DF90CF90BF90AF9008954F925F920B
:102B80006F927F928F929F92AF92BF92CF92DF927D
:102B9000EF92FF920F931F93DF93CF9300D000D05B
:102BA000CDB7DEB76C0149835A836B837C833901CF
:102BB000EE24FF2487012E010894411C511C812C16
:102BC000E2E09E2EA12CB12C49815A816B817C813F
:102BD000C60192010E94EA14882339F1D501C4018B
:102BE000F601058404C0880F991FAA1FBB1F0A9411
:102BF000D2F7E80EF91E0A1F1B1F29813A814B816B
:102C00005C818789803131F4285F3F4F40405040DC
:102C1000D8F205C0285F3F4F4F4F5F40A8F2F30145
:102C2000E082F1820283138381E00F900F900F9076
:102C30000F90CF91DF911F910F91FF90EF90DF9058
:102C4000CF90BF90AF909F908F907F906F905F904C
:102C50004F9008952F923F924F925F926F927F9282
:102C60008F929F92AF92BF92CF92DF92EF92FF929C
:102C70000F931F93DF93CF93CDB7DEB72F970FB688
:102C8000F894DEBF0FBECDBF1C014A875B876C87FF
:102C90007D873F872E87DC0119968D919D910D9040
:102CA000BC91A02D0196A11DB11D8E839F83A88785
:102CB000B987F90100811181228133810115110544
:102CC0002105310549F0480159010894811C911CE6
:102CD000A11CB11C1D8210C0D1018D909D90AD90A2
:102CE000BC901D828A859B85AC85BD850197A10519
:102CF000B10511F491E09D837501640144245524CC
:102D000032018E010F5F1F4FF10181859285A385EE
:102D1000B485481659066A067B0608F090C08E8175
:102D20009F81A885B9858C159D05AE05BF0550F41A
:102D3000A2E08A2E912CA12CB12CF2E0CF2ED12C26
:102D4000E12CF12CC101B701A60198010E94EA14FF
:102D5000882309F474C089819A81AB81BC81A70161
:102D600096012F5F3F4F4F4F5F4F0097A105B10571
:102D700019F049015A010DC0281939094A095B099E
:102D80008A859B85AC85BD85281739074A075B076F
:102D900059F00894411C511C611C711C0894C11C01
:102DA000D11CE11CF11CB0CFC101A601B7010FEF8E
:102DB0001FEF2FEF3FE00E946314882399F43FC078
:102DC0002601370108944108510861087108C101C2
:102DD000B301A201970186010E946314882379F14F
:102DE000730162018C149D04AE04BF0448F3AE85E8
:102DF000BF854D915D916D917C91411551056105A6
:102E0000710539F0C101950184010E946314882382
:102E1000B1F0EE85FF8580829182A282B382FD812E
:102E2000FF2359F00894811C911CA11CB11CD101F5
:102E30008D929D92AD92BC92139781E001C080E08B
:102E40002F960FB6F894DEBF0FBECDBFCF91DF91A6
:102E50001F910F91FF90EF90DF90CF90BF90AF90B8
:102E60009F908F907F906F905F904F903F902F90AA
:102E70000895FC012FB7F894428153818481958194
:102E8000481B590B2FBF57FF04C086819781480FFD
:102E9000591FCA010895CF93DF93DC01EB0114960B
:102EA0002D913C91159712968D919C9113978217B5
:102EB000930711F480E017C0ED91FC911197E20F98
:102EC000F31F808188832F5F3F4F16968D919C91D1
:102ED00017972817390710F020E030E015963C933B
:102EE0002E93149781E0DF91CF910895FC017183B7
:102EF00060835783468315821482848195819383EE
:102F000082830895FC012281338184819581281771
:102F1000390719F4EFEFFFEF0AC084819581019022
:102F2000F081E02DE80FF91F8081E82FF0E0CF015C
:102F300008951F920F920FB60F9211242F933F9373
:102F40004F938F939F93EF93FF934091C0004C71E9
:102F50002091C6008091B6069091B706E091B40624
:102F6000F091B506E80FF91F20839C012F5F3F4FBA
:102F70008091BA069091BB062817390710F020E01F
:102F800030E08091B8069091B9062817390729F0EA
:102F90003093B7062093B60601C041608091B30616
:102FA000842B8093B306FF91EF919F918F914F9166
:102FB0003F912F910F900FBE0F901F9018951F9269
:102FC0000F920FB60F9211242F933F938F939F93DD
:102FD000EF93FF932091C0063091C1068091BE0609
:102FE0009091BF0682179307C9F0E091BC06F0915B
:102FF000BD06E20FF31FE0812F5F3F4F8091C206B5
:103000009091C3062817390710F020E030E0309384
:10301000C1062093C006E093C60005C08091C100A0
:103020008F7D8093C100FF91EF919F918F913F9190
:103030002F910F900FBE0F901F901895EF92FF9257
:103040000F931F93CF93DF937C01FA01F894DC0177
:1030500012962D913C9113977894DC0114960D9162
:103060001C9115972017310728F416964D915C9105
:10307000179707C00217130718F0C0E0D0E022C06E
:10308000A901401B510BEA01E417F50708F4EF0111
:10309000F70120813181200F311FCB01B901AE0131
:1030A0000E94DE00CE01800F911FD70116962D9150
:1030B0003C9117978217930710F0821B930BF7012F
:1030C00095838483CE01DF91CF911F910F91FF9063
:1030D000EF900895F999FECF72BD61BDF89A80B561
:1030E0000895F999FECF1FBA72BD61BD40BD0FB6FC
:1030F000F894FA9AF99A0FBE08951F920F920FB69C
:103100000F9211242F933F938F939F93AF93BF936D
:103110008091C9069091CA06A091CB06B091CC06C9
:103120003091CD060196A11DB11D232F2D5F2D37A6
:1031300020F02D570196A11DB11D2093CD0680933F
:10314000C9069093CA06A093CB06B093CC06809193
:10315000C5069091C606A091C706B091C806019613
:10316000A11DB11D8093C5069093C606A093C70606
:10317000B093C806BF91AF919F918F913F912F91CE
:103180000F900FBE0F901F9018958FB7F894209155
:10319000C9063091CA064091CB065091CC068FBF2C
:1031A000B901CA0108959B01AC017FB7F8948091E1
:1031B000C5069091C606A091C706B091C80666B52F
:1031C000A89B05C06F3F19F00196A11DB11D7FBFDF
:1031D000BA2FA92F982F8827860F911DA11DB11DE9
:1031E00062E0880F991FAA1FBB1F6A95D1F7BC0127
:1031F0002DC0FFB7F8948091C5069091C606A091A6
:10320000C706B091C806E6B5A89B05C0EF3F19F008
:103210000196A11DB11DFFBFBA2FA92F982F882796
:103220008E0F911DA11DB11DE2E0880F991FAA1FED
:10323000BB1FEA95D1F7861B970B885E9340C8F2B7
:10324000215030404040504068517C4F211531059D
:103250004105510571F60895789484B5826084BD66
:1032600084B5816084BD85B5826085BD85B581608A
:1032700085BDEEE6F0E0808181608083E1E8F0E0EA
:103280001082808182608083808181608083E0E819
:10329000F0E0808181608083E1EBF0E080818460F8
:1032A0008083E0EBF0E0808181608083EAE7F0E0FA
:1032B000808184608083808182608083808181605E
:1032C00080838081806880831092C1000895CF93AD
:1032D000DF93482F50E0CA018F5E9E4FFC0134916E
:1032E00043505F4FFA018491882369F190E0880F81
:1032F000991FFC01E152FF4FA591B491FC01E751E8
:10330000FF4FC591D491662351F42FB7F8948C9157
:10331000932F909589238C93888189230BC06230E9
:1033200061F42FB7F8948C91932F909589238C9307
:103330008881832B88832FBF06C09FB7F8948C9118
:10334000832B8C939FBFDF91CF910895482F50E03E
:10335000CA018B5D9E4FFC012491CA018F5E9E4F76
:10336000FC01949143505F4FFA013491332309F4E7
:1033700040C0222351F1233071F0243028F4213051
:10338000A1F0223011F514C02630B1F02730C1F081
:103390002430D9F404C0809180008F7703C08091DD
:1033A00080008F7D8093800010C084B58F7702C02D
:1033B00084B58F7D84BD09C08091B0008F7703C034
:1033C0008091B0008F7D8093B000E32FF0E0EE0F8E
:1033D000FF1FE751FF4FA591B4912FB7F8946623D3
:1033E00021F48C919095892302C08C91892B8C9328
:1033F0002FBF08950895CF93DF930E942C190E9448
:10340000FA190E949806C0E0D0E00E948906209731
:10341000E1F30E940000F9CFCF92DF92EF92FF928A
:103420000F931F93CF93DF937C016B018A01C0E060
:10343000D0E00FC0D6016D916D01D701ED91FC91E7
:103440000190F081E02DC7010995C80FD91F0150E7
:1034500010400115110571F7CE01DF91CF911F9139
:103460000F91FF90EF90DF90CF900895EF92FF9231
:103470000F931F93CF93DF937C018B01C0E0D0E0CB
:10348000F8010F5F1F4F6491662359F0D701ED914A
:10349000FC910190F081E02DC7010995C80FD91F5B
:1034A000EFCFCE01DF91CF911F910F91FF90EF9061
:1034B0000895629FD001739FF001829FE00DF11D7E
:1034C000649FE00DF11D929FF00D839FF00D749F9E
:1034D000F00D659FF00D9927729FB00DE11DF91F4A
:1034E000639FB00DE11DF91FBD01CF0111240895A7
:1034F000EE0FFF1F0590F491E02D09942F923F925B
:103500004F925F926F927F928F929F92AF92BF92F3
:10351000CF92DF92EF92FF920F931F93CF93DF939F
:10352000CDB7DEB7CA1BDB0B0FB6F894DEBF0FBEFC
:10353000CDBF09942A88398848885F846E847D8449
:103540008C849B84AA84B984C884DF80EE80FD804B
:103550000C811B81AA81B981CE0FD11D0FB6F894C1
:10356000DEBF0FBECDBFED01089511E0CEE3D1E087
:1035700004C0FE010E947A1A2296C034D107C9F70E
:04358000F894FFCFED
:103584000000000088039103D803BF03BA03B90302
:103594000000000050120C1A0000000068120C1AFF
:00000001FF
