:100000000C94FD000C9425010C9425010C94250101
:100010000C9425010C9425010C9425010C942501C8
:100020000C9425010C9425010C9425010C942501B8
:100030000C9425010C9425010C9425010C942501A8
:100040000C94831E0C9425010C949F1D0C94E51DAB
:100050000C9425010C9425010C9425010C94250188
:100060000C9425010C942501626175642C65736301
:100070006170652C657363232C6D6F64652C7665E8
:1000800072622C6563686F2C69676E6F7265525877
:1000900000006572726F722077726974696E6720F2
:1000A000746F2066696C6500256C642C25642C25B2
:1000B000642C25642C25642C25642C2564000043C5
:1000C000726561746520636F6E6669672066616939
:1000D0006C65640052656D6F766520636F6E66694E
:1000E00067206661696C656400636F6E6669672E80
:1000F00074787400636F6E6669672E747874003C60
:10010000004572726F72206372656174696E672058
:100110005345514C4F470A005345514C4F473030DF
:100120002E5458540021546F6F206D616E79206CED
:100130006F67733A3221004C4F47253035642E5497
:1001400058540021546F6F206D616E79206C6F6779
:10015000733A3121003200310066696C652E6F7090
:10016000656E00726F6F742E696E697400766F6CC5
:10017000756D652E696E697400636172642E696EB7
:100180006974004572726F7220007C3C3E5E2B3DAC
:100190003F2F5B5D3B2C2A225C0000000000240006
:1001A00027002A0000000000250028002B00000086
:1001B00000002300260029000404040404040404AD
:1001C0000202020202020303030303030102040802
:1001D00010204080010204081020010204081020B1
:1001E00000000007000201000003040600000000F8
:1001F00000000000EF045718E80411241FBECFEFE1
:10020000D8E0DEBFCDBF11E0A0E0B1E0E2EEF2E465
:1002100002C005900D92A032B107D9F716E0A0E216
:10022000B1E001C01D92A63CB107E1F711E0C8EFB3
:10023000D1E004C02297FE010E942921C43FD107CA
:10024000C9F70E9454200C9464210C940000FC0116
:1002500088279927E89421912032E9F3293010F07A
:100260002E30C8F32B3241F02D3239F4689404C09B
:100270000E946201820F911D219120532A30C0F308
:100280001EF4909581959F4F0895FB01DC01059028
:100290000D920020E1F70895FB01DC0104C08D916F
:1002A0000190801921F441505040C8F7881B990BE8
:1002B0000895FB01DC0102C001900D9241505040B5
:1002C000D8F708957AE0979F902D879F802D910D04
:1002D00011240895AEE0B0E0E0E7F1E00C943B219A
:1002E0000D891E898EE08C831A8309838FEF9FE727
:1002F0009E838D839E01275E3F4FCE0101966F89BD
:10030000788DA9010E948E012F813885020F131F5D
:10031000F80110822E96E4E00C945721ABE0B0E097
:10032000E4E9F1E00C942D213C012B015A01FC0180
:1003300017821682838181FD03C06FEF7FEFC6C1F4
:100340009AE0892E1E010894211C311CF30123819F
:10035000F20123FD859123FF81912F01882309F468
:10036000B2C1853239F423FD859123FF81912F019C
:10037000853229F490E0B3010E948103E7CF982FE2
:10038000FF24EE249924FFE1FF15D0F09B3269F0A1
:100390009C3228F4903259F0933291F40EC09D3281
:1003A00049F0903369F441E024C052E0F52A84E03A
:1003B000F82A28C098E0F92A25C0E0E1FE2A22C0E8
:1003C000F7FC29C0892F80538A3070F4F6FE05C0EF
:1003D000989C902C1124980E15C0E89CE02C1124B8
:1003E000E80EF0E2FF2A0EC09E3229F4F6FC6BC143
:1003F00040E4F42A07C09C3619F450E8F52A02C0FC
:10040000983649F4F20123FD959123FF91912F0134
:10041000992309F0B8CF892F8554833018F0805282
:10042000833038F444E050E0A40EB51E5FE35983F6
:100430000FC0933631F0933779F0933509F056C0F9
:1004400020C0F5018081898342E050E0A40EB51EF2
:10045000610101E010E012C0F501C080D180F6FC1E
:1004600003C06FEF7FEF02C0692D70E042E050E003
:10047000A40EB51EC6010E9476038C015FE7F5222B
:1004800014C0F501C080D180F6FC03C06FEF7FEF90
:1004900002C0692D70E042E050E0A40EB51EC60116
:1004A0000E946B038C0150E8F52AF3FE07C01AC0C6
:1004B00080E290E0B3010E948103EA948E2D90E0E7
:1004C00008171907A8F30EC0F601F7FC8591F7FE8F
:1004D00081916F0190E0B3010E948103E110EA94E1
:1004E000015010400115110579F7EAC0943611F05A
:1004F000993669F5F7FE08C0F50120813181428106
:10050000538184E090E00AC0F501808191819C01D3
:10051000442737FD4095542F82E090E0A80EB91E85
:100520009FE6F92257FF09C05095409530952195D7
:100530003F4F4F4F5F4FE0E8FE2ACA01B901A101CA
:100540002AE030E00E94AD03D82ED21840C0953783
:1005500029F41F2D1F7E2AE030E01DC01F2D197FBA
:100560009F3661F0903720F4983509F0ACC00FC089
:10057000903739F0983709F0A6C004C028E030E081
:100580000AC0106114FD146020E130E004C014FDC5
:10059000166020E132E017FF08C0F501608171812B
:1005A0008281938144E050E008C0F501808191810F
:1005B000BC0180E090E042E050E0A40EB51EA10135
:1005C0000E94AD03D82ED2188FE7F82EF122F6FE46
:1005D0000BC05EEFF522D91438F4F4FE07C0F2FC2C
:1005E00005C08FEEF82202C01D2D01C0192DF4FEAA
:1005F0000DC0FE01ED0DF11D8081803319F499EEDF
:10060000F92208C01F5FF2FE05C003C08F2D867857
:1006100009F01F5F0F2DF3FC14C0F0FE0FC01E1574
:1006200010F09D2C0BC09D2C9E0C911A1E2D06C007
:1006300080E290E0B3010E9481031F5F1E15C0F3AA
:1006400004C01E1510F4E11A01C0EE2404FF0FC00F
:1006500080E390E0B3010E94810302FF1DC001FD11
:1006600003C088E790E00EC088E590E00BC0802FC3
:10067000867891F001FF02C08BE201C080E2F7FCB6
:100680008DE290E0B3010E94810306C080E390E018
:10069000B3010E9481039A94D914C0F3DA94F10152
:1006A000ED0DF11D808190E0B3010E948103DD20FA
:1006B000A9F706C080E290E0B3010E948103EA94AA
:1006C000EE20C1F743CEF30166817781CB012B96F3
:1006D000E2E10C944921FC01059061507040011049
:1006E000D8F7809590958E0F9F1F0895FC0161505B
:1006F000704001900110D8F7809590958E0F9F1F44
:1007000008950F931F93CF93DF938C01EB018B819F
:1007100081FF1BC082FF0DC02E813F818C819D8196
:100720002817390764F4E881F9810193F983E88394
:1007300006C0E885F985802F0995892B31F48E81D3
:100740009F8101969F838E8302C00FEF1FEFC80128
:10075000DF91CF911F910F910895FA01AA272830B8
:1007600051F1203181F1E8946F936E7F6E5F7F4F7E
:100770008F4F9F4FAF4FB1E03ED0B4E03CD0670FFA
:10078000781F891F9A1FA11D680F791F8A1F911D4D
:10079000A11D6A0F711D811D911DA11D20D009F49D
:1007A00068943F912AE0269F11243019305D3193DF
:1007B000DEF6CF010895462F4770405D4193B3E0C8
:1007C0000FD0C9F7F6CF462F4F70405D4A3318F06F
:1007D000495D31FD4052419302D0A9F7EACFB4E020
:1007E000A6959795879577956795BA95C9F70097D8
:1007F0006105710508959B01AC010A2E0694579579
:10080000479537952795BA95C9F7620F731F841FCF
:10081000951FA01D0895EF92FF920F931F937A01E9
:100820008B011092C1002E732093C200403081EEE4
:10083000580780E0680780E0780729F41092C0002C
:1008400020E130E013C082E08093C00060E079E0F6
:100850008DE390E0A80197010E94052121503040CE
:100860004040504056954795379527953093C500A1
:100870002093C40088E98093C1001F910F91FF90DD
:10088000EF9008958091C00085FFFCCF6093C60073
:1008900081E090E00895CF92DF92EF92FF920F9364
:1008A0001F93CF93DF937C016B018A01C0E0D0E0FE
:1008B0000DC0D701ED91FC91D601AC0FBD1F019089
:1008C000F081E02DC7016C9109952196C017D107E1
:1008D00080F3C801DF91CF911F910F91FF90EF90AE
:1008E000DF90CF90089508958CEA96E00E94881DCD
:1008F0000895DF93CF930F92CDB7DEB78CEA96E0E1
:10090000BE016F5F7F4F0E94511D882319F42FEFA6
:100910003FEF03C08981282F30E0C9010F90CF91AC
:10092000DF9108958CEA96E00E943F1D0895FC0136
:100930008CE191E0918380838781882321F0CF012E
:1009400004960E941811089581309105B9F56F5FE2
:100950007F4FE9F5109223011092220188EE93E077
:10096000A0E0B0E08093240190932501A09326019C
:10097000B093270184E091E09093210180932001BE
:100980008CEA96E06CE271E041E253E00E947C1D4B
:1009900089E180934F041092520410926A041092DD
:1009A00075041092780410927404109273048CE110
:1009B00091E090937204809371040895892B39F427
:1009C0006F5F7F4F21F481E794E00E9497040895C0
:1009D00080E090E06FEF7FEF0E94A404089581E033
:1009E00090E06FEF7FEF0E94A40408958F929F9292
:1009F000AF92BF92CF92DF92EF92FF920F931F932D
:100A00003CEB832E36E0932EC40169E070E00E9437
:100A1000701EA82EC4016AE070E00E94701EE82ECD
:100A2000C4016BE070E00E94701EFF2400E010E043
:100A3000102F0F2DFE2CEE2490E0A0E0B0E0E82A6D
:100A4000F92A0A2B1B2BBB24CC24DD246501BB24F3
:100A5000AA24EA28FB280C291D29B701C8011F91E7
:100A60000F91FF90EF90DF90CF90BF90AF909F904D
:100A70008F900895CF92DF92EF92FF920F931F9382
:100A80007B018C015CEBC52E56E0D52EC60169E0DA
:100A900070E0402F0E94771E552717FD5A95412F71
:100AA000302F2F2DC6016AE070E0422F0E94771E82
:100AB000C6016BE070E04E2D0E94771E1F910F91D2
:100AC000FF90EF90DF90CF9008951F930E94F6045F
:100AD0006093900470939104809392049093930494
:100AE0006C52714080409040655171448F409040FD
:100AF00090F080E895E2A0E0B0E0809390049093BD
:100B00009104A0939204B093930460E875E280E0AE
:100B100090E00E943A058CEB96E062E070E00E9463
:100B2000701E80939404863048F0109294048CEBED
:100B300096E062E070E040E00E94771E8CEB96E069
:100B400065E070E00E94701E8093950481508E3F96
:100B500050F08AE1809395048CEB96E065E070E0BC
:100B60004AE10E94771E8CEB96E066E070E00E94FE
:100B7000701E809396048F3F51F483E08093960417
:100B80008CEB96E066E070E043E00E94771E8CEB11
:100B900096E067E070E00E94701E11E010939704E9
:100BA0008CEB96E067E070E041E00E94771E8CEBF2
:100BB00096E068E070E00E94701E109398048CEB41
:100BC00096E068E070E041E00E94771E8CEB96E0D2
:100BD0006CE070E00E94701E80939904823048F0AF
:100BE000109299048CEB96E06CE070E040E00E947B
:100BF000771E1F9108950F931F9360E875E280E0C0
:100C000090E00E943A050CEB16E0C80162E070E04B
:100C100040E00E94771EC80165E070E04AE10E9452
:100C2000771EC80166E070E043E00E94771EC801AD
:100C300067E070E041E00E94771EC80168E070E064
:100C400041E00E94771EC8016CE070E040E00E9425
:100C5000771E1F910F9108950F931F93CF93DF93EA
:100C6000C0E0D0E0082F10E015C085E061E00E94F0
:100C7000AC1F68EC70E080E090E00E94D91E85E037
:100C800060E00E94AC1F68EC70E080E090E00E94A1
:100C9000D91E2196C017D10744F360ED77E080E0BC
:100CA00090E00E94D91EC0E0D0E0F4CF0F931F93D4
:100CB000CF93DF93EC018B0141E00E94021988235E
:100CC00011F081E005C0CE01B80140E00E94021998
:100CD000DF91CF911F910F910895AF92BF92CF9264
:100CE000DF92EF92FF920F931F93DF93CF93CDB7D5
:100CF000DEB7AC970FB6F894DEBF0FBECDBF1A8A31
:100D00001D8A198A188A8CE191E09F878E878CEB67
:100D100096E063E070E00E94701E182F8CEB96E066
:100D200064E070E00E94701E282F1F3F99F48F3FEF
:100D300089F48CEB96E063E070E040E00E94771E5F
:100D40008CEB96E064E070E040E00E94771E00E0EB
:100D500010E00FC0922F80E0012F10E0082B192B1C
:100D60008FEF0E3F180729F480E291E063E471E011
:100D700053C06E010894C11CD11C77E3A72E71E00B
:100D8000B72E62E1E62EF12CEC0EFD1E00D000D055
:100D900000D0EDB7FEB73196ADB7BEB71296DC9274
:100DA000CE921197B382A282158304830E946A01B6
:100DB0008DB79EB706960FB6F8949EBF0FBE8DBF37
:100DC000C70165E774E0A60122EC0E94781788232A
:100DD00041F5C70165E774E0A60121E00E9478179C
:100DE000882379F08BA19CA1ADA1BEA10097A1059C
:100DF000B10521F4C7010E94181134C0C7010E9437
:100E000018110F5F1F4F9FEF0E3F190708F4BECF59
:100E100080E291E065E271E00E948F2000E010E046
:100E200022C0C7010E94181178010894E11CF11C2E
:100E30008CEB96E063E070E04E2D0E94771E8CEB09
:100E400096E064E070E00E94701E6E010894C11C80
:100E5000D11C8F1539F08CEB96E064E070E04F2DDB
:100E60000E94771E8601CE010E960E949704C8014B
:100E7000AC960FB6F894DEBF0FBECDBFCF91DF9119
:100E80001F910F91FF90EF90DF90CF90BF90AF90A8
:100E900008951F93182F80E291E063E871E00E94AB
:100EA0008F20173079F0183018F41630F1F405C09F
:100EB000183069F01930C9F40FC080E291E069E799
:100EC00071E00EC080E291E06DE671E009C080E261
:100ED00091E063E671E004C080E291E069E571E0D1
:100EE0000E948F2083E00E942C061F9108954F924C
:100EF0005F927F928F929F92AF92BF92CF92DF923A
:100F0000EF92FF920F931F93DF93CF93CDB7DEB78E
:100F1000C858D0400FB6F894DEBF0FBECDBF1EA29A
:100F200019A61DA21CA28CE191E09BA38AA3FE013D
:100F3000EB5BFF4F1082FE01E85BFF4F1082FE016A
:100F4000ED5BFF4F11821082FE01EF5BFF4F91833B
:100F50008083CE01869663E574E00E946C1388233B
:100F600019F488E00E9449078E010F5F1F4FC801E6
:100F700069EE70E00E94450185E4A82EB12CAC0E0C
:100F8000BD1EB6E28B2E912C8C0E9D1EC501B401A8
:100F9000A80122E00E947817882381F0C5010E94F1
:100FA000F711882359F480E291E064ED70E00E942B
:100FB000D220C5010E941811C40121C0A1E44A2E0B
:100FC000512C4C0E5D1E82010C5F1F4FF6E2AF2EBE
:100FD000B12CAC0EBD1EC801B501AE014F5F5F4F15
:100FE00026E40E947817882381F480E291E06FEB79
:100FF00070E00E94D220C8010E941811C5010E9411
:101000001811CE018F5B9F4F9FC00E94F6046B01A9
:101010007C018CEB96E065E070E00E94701E782EFB
:101020008CEB96E066E070E00E94701E882E8CEBE0
:1010300096E062E070E00E94701E982E8CEB96E0C5
:1010400067E070E00E94701EA82E8CEB96E068E0CE
:1010500070E00E94701EB82E8CEB96E06CE070E0A1
:101060000E94701E2DB73EB7245130400FB6F89441
:101070003EBF0FBE2DBFEDB7FEB731968E01055FA7
:101080001F4FADB7BEB712961C930E93119728EA67
:1010900030E033832283C482D582E682F782708671
:1010A00011868286138694861586A6861786B08A50
:1010B000118A828B138A0E946A01F8010190002034
:1010C000E9F73197E01BF10B2DB73EB72C5E3F4F90
:1010D0000FB6F8943EBF0FBE2DBFC201B801AF01DD
:1010E0000E948718F80101900020E9F73197E01B72
:1010F000F10B8E179F0731F080E291E062E970E01A
:101100000E94D220E1E4EE2EF12CEC0EFD1EC70170
:101110000E94B2208E01005A1F4FC80168E670E09D
:101120000E944501C701B8010E94621887010C5F47
:101130001F4FC8010E94CA10C8010E941811CE0199
:1011400086960E941811C7010E949704CE018296CC
:101150000E949704C857DF4F0FB6F894DEBF0FBE4A
:10116000CDBFCF91DF911F910F91FF90EF90DF9056
:10117000CF90BF90AF909F908F907F905F904F9057
:1011800008952F923F924F925F926F927F928F922B
:101190009F92AF92BF92CF92DF92EF92FF920F9306
:1011A0001F93DF93CF93CDB7DEB7C956D0400FB6AC
:1011B000F894DEBF0FBECDBF1EA619AA1DA61CA6A1
:1011C0008CE191E09BA78AA7FE01E75BFF4F1482A9
:1011D00017821382128291838083CE018E9663E5FB
:1011E00074E00E946C13882319F488E00E94490778
:1011F0008E01075F1F4FC80164EF70E00E94450138
:10120000F9E4AF2EB12CAC0EBD1EE4E0EE2EF12CB5
:10121000EA0CFB1C7EE2C72ED12CCC0EDD1EC701D2
:10122000B601A80121E00E947817882351F4C70174
:101230000E941811C6010E9418110E947707C5016B
:101240005BC1AA24BB248E010D5E1F4FC7010E9403
:10125000181318165CF4F801EA0DFB1D808308943E
:10126000A11CB11C27E1A216B10481F7CE01835B5A
:101270009F4F0E941811CE018E960E94181160E8AF
:10128000E62E65E2F62E012D112D77245AE1652E0A
:1012900043E0542E44244394332433942224CC2416
:1012A000DD244E010894811C911CCE010796AA965C
:1012B0009FAF8EAFAA979BC0ED93C3942A2F281996
:1012C0008C2D90E0E3E1F0E0EC0FFD1FE80FF91F3B
:1012D000E081EC3251F08A159B053CF4AA968EAD64
:1012E0009FADAA97A817B90739F7F401E20FF11DCE
:1012F0001082C4010E942701982FDD20D9F540E01B
:1013000050E060E070E074011AC0CB01BA012AE03D
:1013100030E040E050E00E94E620AB01BC01812FAC
:10132000992787FD9095C097AA2797FDA095BA2F7A
:10133000480F591F6A1F7B1F0894E11CF11CF7011D
:101340001081812F80538A3000F3DB01CA018C5257
:101350009140A040B04085519144AF40B04038F03A
:1013600030E8E32E35E2F32E012D112D3EC07A0137
:101370008B013BC021E0D21639F418161CF02AE18B
:10138000622E33C0682E31C082E0D81639F49F3FF8
:1013900019F493E0592E29C0592E27C0E3E0DE1638
:1013A00041F4892F8150823010F077241EC0792EAD
:1013B0001CC0F4E0DF1639F4923018F04424439452
:1013C00014C0492E12C025E0D21639F4923018F01C
:1013D000332433940AC0392E08C086E0D81671F43D
:1013E000923010F0222401C0292ED394C3948C2D66
:1013F00090E08A159B0514F4D40160CF809190048D
:1014000090919104A0919204B0919304E816F9068A
:101410000A071B0711F490E014C0C801B7010E942D
:101420003A05E0929004F092910400939204109394
:10143000930480E291E0B801A70126E00E940B042A
:1014400091E080919404781651F0709294048CEBA2
:1014500096E062E070E0472D0E94771E91E0809157
:101460009504681651F0609295048CEB96E065E067
:1014700070E0462D0E94771E91E0809196045816E8
:1014800051F0509296048CEB96E066E070E0452DAA
:101490000E94771E91E080919704481651F0409287
:1014A00097048CEB96E067E070E0442D0E94771E75
:1014B00091E080919804381651F0309298048CEBAA
:1014C00096E068E070E0432D0E94771E91E08091E5
:1014D0009904281651F0209299048CEB96E06CE068
:1014E00070E0422D0E94771E02C0913011F40E94DC
:1014F0007707CE01875B9F4F0E949704CE018A96A3
:101500000E949704C759DF4F0FB6F894DEBF0FBE95
:10151000CDBFCF91DF911F910F91FF90EF90DF90A2
:10152000CF90BF90AF909F908F907F906F905F9083
:101530004F903F902F9008950F931F9380E060E0AD
:101540000E946D1F80E061E00E94AC1F80E00E945D
:101550000020019709F472C08DE061E00E946D1FC8
:101560008DE061E00E94AC1F10E000E269E170E0F4
:1015700080E090E00E94D91E8BB180278BB980E07B
:101580000E940020019709F459C069E170E080E0F1
:1015900090E00E94D91E85B1802785B980E00E9425
:1015A0000020019709F44AC01F5F1832F9F60E9423
:1015B000FB058EE494E060E04AE00E94E60E88239A
:1015C00019F486E00E94490783E594E06EE474E034
:1015D0000E945606882319F487E00E94490785E790
:1015E00094E00E94181185E794E063E574E00E949E
:1015F0006C13882319F488E00E9449070E9477073A
:1016000085E061E00E946D1F8DE061E00E946D1F2A
:1016100085E061E00E94AC1F8DE061E00E94AC1F9C
:1016200010E264EF71E080E090E00E94D91E8BB17F
:1016300081278BB985B1812785B9F3CF1F910F9190
:10164000089585E061E00E946D1F83B7817F83BFAD
:1016500083B7816083BF80917A008F7780937A000F
:1016600080E880BF8FE380937E0083E080937F00DB
:101670008091640080688093640080916400886039
:101680008093640080916400806480936400809102
:1016900064008160809364000E946505409190041D
:1016A00050919104609192047091930480E291E0D2
:1016B00026E00E940B042091900430919104409107
:1016C000920450919304243F81E0380780E048075A
:1016D00080E05807C4F4A4E0220F331F441F551FB5
:1016E000AA95D1F760E074E284EF90E00E940521B2
:1016F000215030403093C5002093C4008091C00039
:101700008D7F8093C00080E291E067E571E00E94E8
:101710008F208EE494E060E04AE00E94E60E882389
:1017200019F486E00E94490783E594E06EE474E0D2
:101730000E945606882319F487E00E94490785E72E
:1017400094E00E94181185E794E063E574E00E943C
:101750006C13882319F488E00E94490780E291E025
:1017600065E571E00E948F200E94C1088091990474
:10177000882311F40E949C0A0895EF92FF920F9320
:101780001F93CF93DF937B018A01060F171FEB0195
:10179000C017D107B0F42091AE063091AF0680910A
:1017A000B0069091B1062817390759F0A8014C1BD3
:1017B0005D0B8CEA96E0BE010E94241EC80FD91F63
:1017C000E7CF9E012E193F09C901DF91CF911F91EB
:1017D0000F91FF90EF9008957F928F929F92AF921A
:1017E000BF92CF92DF92EF92FF920F931F93DF93FE
:1017F000CF93CDB7DEB7CF59D0400FB6F894DEBF48
:101800000FBECDBFAC011D8218861C821B828CE1ED
:1018100091E09A838983CE01059665E774E026E41A
:101820000E947817882319F489E00E9449078E895D
:101830009F89A88DB98D0097A105B10569F48E0126
:101840000B5F1F4FC80140E050E060E070E00E9475
:101850000010C8010E94CA1080E291E06FEF70E0B2
:101860000E948F2085E061E00E94AC1F0E94CB1E89
:101870007B018C0190E2A92EB12CAC0EBD1E4E0155
:101880000894811C911C80E2782EB5E0CB2ED12CDF
:10189000CC0EDD1E80E291E0B50140E850E00E94F0
:1018A000BD0B482F8823B9F0C401B50150E00E9458
:1018B00087188BB187258BB90E94CB1E6E197F09C3
:1018C000800B910B695873418040904018F3C6011A
:1018D0000E94CA102AC00E94CB1E6E197F09800B7D
:1018E000910B655F714080409040A0F2C6010E945C
:1018F000CA105D988091640080628093640080913A
:10190000640084608093640083B7816083BF88959E
:1019100083B78E7F83BF809164008B7F8093640048
:10192000809164008F7D809364000E94CB1E7B01B8
:101930008C01B0CFCF92DF92EF92FF920F931F9363
:10194000DF93CF93CDB7DEB7AB970FB6F894DEBF7A
:101950000FBECDBF198A1C8A188A1F868CE191E0C0
:101960009E878D878E010F5F1F4FC80168E171E070
:101970000E9445013DE0C32ED12CCC0EDD1E21E19D
:10198000E22EF12CEC0EFD1EC70165E774E0A80104
:1019900022E40E947817882339F480E291E061E024
:1019A00071E00E948F2006C0C7010E941811C80173
:1019B0000E94EC0BC6010E949704AB960FB6F894F8
:1019C000DEBF0FBECDBFCF91DF911F910F91FF9072
:1019D000EF90DF90CF90089580919404882321F4B4
:1019E0000E946D060E94EC0B80919404813011F4EA
:1019F0000E949A0CFFCFFF920F931F93CF93DF9318
:101A00008B010E94CB1EEB01FF24FA9409C00E94B7
:101A1000CB1E6C1B7D0B6017710710F080E008C0B7
:101A2000FEBC0DB407FEFDCF8EB58F3F81F781E080
:101A3000DF91CF911F910F91FF900895FC0142819A
:101A4000242F30E0C9019595879580658CBD40FFB6
:101A500002C080E004C080E0463009F081E08DBD26
:101A6000808160E00E94AC1F0895DF92EF92FF92A8
:101A70000F931F93CF93DF93EC01D62E79018A0148
:101A80000E941E0DCE016CE271E00E94FB0C8D2DB8
:101A900080648EBD0DB407FEFDCF28E130E0D80193
:101AA000C701022E04C0B695A795979587950A940D
:101AB000D2F78EBD0DB407FEFDCF285030408FEF1A
:101AC000283F380761F7DD2011F485E906C088E07A
:101AD000D81611F487E801C08FEF8EBD0DB407FE54
:101AE000FDCF8CE0D81631F48FEF8EBD0DB407FE1C
:101AF000FDCF8EB59FEF2FEF2EBD0DB407FEFDCFAE
:101B00008EB587FF04C0992311F09150F5CF8B83D8
:101B1000DF91CF911F910F91FF90EF90DF9008958B
:101B2000DF92EF92FF920F931F93CF93DF93EC011D
:101B3000D62E79018A0167E320E030E040E050E0F2
:101B40000E94350D882331F0CE016D2DA80197013B
:101B50000E94350DDF91CF911F910F91FF90EF9073
:101B6000DF900895FC01808161E00E94AC1F8FEF3F
:101B70008EBD0DB407FEFDCF0895DC016EBDFA01E8
:101B800020E030E00DB407FEFDCF80818EBD0DB4A6
:101B900007FEFDCF81818EBD2E5F3F4F329682E0E2
:101BA0002030380779F70DB407FEFDCF8FEF8EBDDB
:101BB0000DB407FEFDCF8FEF8EBD0DB407FEFDCF38
:101BC0008FEF8EBD0DB407FEFDCF8EB513968C93AF
:101BD00013978F71853011F481E0089583E1119698
:101BE0008C931197CD010E94B20D80E00895CF92A1
:101BF000DF92EF92FF920F931F93CF93DF93EC014D
:101C00007A018B0169018C81833039F059E0EE0C47
:101C1000FF1C001F111F5A95D1F7CE0168E1A801E2
:101C200097010E94350D882311F086E023C0CE0174
:101C30006EEFA6010E94BD0D8823E9F0CE0168E594
:101C400072E00E94FB0C882311F487E113C0CE01DF
:101C50006DE020E030E040E050E00E94350D882348
:101C600041F48FEF8EBD0DB407FEFDCF8EB58823F6
:101C700079F086E18983CE010E94B20D80E0DF9188
:101C8000CF911F910F91FF90EF90DF90CF9008952B
:101C9000CE010E94B20D81E0F2CFBF92CF92DF92CF
:101CA000EF92FF920F931F93CF93DF93EC016B01A1
:101CB0007A010E94CB1E8B01BB24BA9409C00E94FA
:101CC000CB1E601B710B6D52714010F081E10BC097
:101CD000BEBC0DB407FEFDCF8EB58B838F3F79F36D
:101CE0008E3F39F08FE08983CE010E94B20D80E0F3
:101CF0002FC0D7011197EF28D9F08FEF8EBD20E0CC
:101D000030E09FEF0BC00DB407FEFDCF8EB5F6019E
:101D1000E20FF31F80839EBD2F5F3F4F2A173B07C3
:101D200090F30DB407FEFDCF8EB5AC0DBD1D8C93A9
:101D30008FEF8EBD0DB407FEFDCF8EB58FEF8EBD3C
:101D40000DB407FEFDCF8EB5CE010E94B20D81E02D
:101D5000DF91CF911F910F91FF90EF90DF90CF9087
:101D6000BF900895CF92DF92EF92FF920F931F934F
:101D7000CF93DF93EC017A018B0169018C81833071
:101D800039F0A9E0EE0CFF1C001F111FAA95D1F736
:101D9000CE0161E1A80197010E94350D882339F039
:101DA00084E08983CE010E94B20D80E006C0CE019E
:101DB000B60140E052E00E944D0EDF91CF911F919D
:101DC0000F91FF90EF90DF90CF900895BF92CF9248
:101DD000DF92EF92FF920F931F93CF93DF93EC016B
:101DE000B62E1C82198248830E94CB1E6B0188810B
:101DF00061E00E946D1F888161E00E94AC1F8CE051
:101E000060E00E946D1F8BE061E00E946D1F8DE01D
:101E100061E00E946D1F8AE061E00E946D1F8AE010
:101E200061E00E94AC1F85E08A8382E58CBD1DBC09
:101E300080E09FEF9EBD0DB407FEFDCF8F5F8A301F
:101E4000C9F709C00E94CB1E6C197D09615D7740FE
:101E500010F081E056C0CE0160E020E030E040E0CC
:101E600050E00E94350D182F8B83813059F7CE0139
:101E700068E02AEA31E040E050E00E94350D82FF40
:101E800002C01C8311C080E02FEF2EBD0DB407FEF1
:101E9000FDCF9EB58F5F8430C1F79B839A3A11F0D6
:101EA00082E02FC082E08C838C81823021F0EE248E
:101EB000FF2487010FC0E12CF12C012D00E4102F2D
:101EC00009C00E94CB1E6C197D09615D774010F03E
:101ED0008AE017C0CE0169E2A80197010E94900D27
:101EE0008B83882371F78C81823029F5CE016AE3D8
:101EF00020E030E040E050E00E94350D882331F0D2
:101F000088E08983CE010E94B20D21C08FEF8EBD83
:101F10000DB407FEFDCF8EB5807C803C11F483E0CC
:101F20008C8380E09FEF9EBD0DB407FEFDCF2EB5E4
:101F30008F5F8330C1F7CE010E94B20D86E08B1512
:101F400018F488E1898303C0BA8281E001C080E08F
:101F5000DF91CF911F910F91FF90EF90DF90CF9085
:101F6000BF9008950F931F93CF93DF93DC01EB0194
:101F70008A0180E090E020E2FE01E80FF91F208353
:101F800001968B309105C1F757E040E024C0622FE5
:101F90002E3219F08AE891E007C05A3051F15AE028
:101FA00048E018C0321729F1FC010196349133231F
:101FB000C9F75417F0F02132E0F02F37D0F4822F18
:101FC00081568A3110F4622F6052FE01E40FF11D38
:101FD00060834F5F11962C91222311F02F32B9F6B6
:101FE000F801B183A08390E08881803219F091E0FC
:101FF00001C090E0892FDF91CF911F910F9108953B
:102000006F927F928F929F92AF92BF92CF92DF9208
:10201000EF92FF920F931F93CF93DF93EC017A011E
:102020008B012B81222309F480C089899A89AB898D
:10203000BC8984179507A607B70708F476C085C042
:10204000E114F1040105110551F41C821D821E8268
:102050001F82188619861A861B8681E067C028852C
:1020600039854A855B85E98DFA8D858590E00996ED
:10207000215030404040504039014A01082E04C0F0
:1020800096948794779467940A94D2F72F5F3F4F82
:102090004F4F5F4F0894E108F108010911095701FA
:1020A000680104C0D694C794B794A7948A95D2F7D0
:1020B0000894E11CF11C011D111DA614B704C804ED
:1020C000D90428F0211531054105510549F48D89C0
:1020D0009E89AF89B88D8C839D83AE83BF8316C0E4
:1020E000A618B708C808D90811C04C815D816E8157
:1020F0007F81898D9A8D94010E94F01A0894A1081D
:10210000B108C108D108882331F40FC084E0882EBB
:10211000912C8C0E9D1EA114B104C104D10429F789
:10212000E886F9860A871B8798CF80E0DF91CF91F8
:102130001F910F91FF90EF90DF90CF90BF90AF90E5
:102140009F908F907F906F900895223009F078CF04
:10215000E7CFCF93DF93EC018C859D85AE85BF855E
:1021600040E0611141E0BC01CD010E94C618882306
:1021700019F420E030E00AC08889282F30E095E08B
:10218000220F331F9A95E1F72C553B4FC901DF9180
:10219000CF9108950F931F93CF93DF938C01FC0190
:1021A00083818823E1F1818187FF36C0C80161E026
:1021B0000E94A910EC01009791F18881853E79F188
:1021C000F8018381823040F481899289A389B4899E
:1021D0008C8F9D8FAE8FBF8FF80185899689A789D7
:1021E000B08D9B8F8A8FCD01AA27BB279D8B8C8BAF
:1021F000E0919A04F0919B04309751F0BE016A5E21
:102200007F4FCE0148960995888D998D9B8B8A8B3F
:10221000F80181818F7781830E948B1804C081E04F
:10222000F801808380E0DF91CF911F910F91089595
:102230000F931F938C010E94CA10F80113821F9103
:102240000F910895FC018381882319F0CF010E942A
:10225000181108956F927F928F929F92AF92BF92C2
:10226000CF92DF92EF92FF920F931F93DF93CF9362
:1022700000D000D0CDB7DEB77C015A016B01DC0184
:1022800013968C911397813009F091C011968C911F
:1022900081FF8DC0A0C00097A105B10511F481E0B8
:1022A00087C0F7016084718482849384C701B6017A
:1022B000A5010E940010882309F479C0D70159961E
:1022C0008D919C915A97A114B104C104D10489F451
:1022D00055964D915D916D917C9158970E94661B2A
:1022E000882309F464C0F701158A168A178A108EAC
:1022F00044C0D70114964D915D916D917C911797D3
:102300009E012F5F3F4F0E94F01A882309F44FC0AF
:10231000D7015996ED91FC915A9749815A816B8169
:102320007C818789803149F4483FBFEF5B07B0E08B
:102330006B07B0E07B0748F020C0483F8FEF58079D
:102340008FEF68078FE07807C0F4CF010E94661B0B
:10235000882369F1D70114964D915D916D917C911F
:10236000179759968D919C915A970FEF1FEF2FEF6A
:102370003FE00E94691A8823D1F0F701A18AB28A4E
:10238000C38AD48A818180688183C7010E94CA1070
:10239000882369F0B601A5016A147B048C049D04AE
:1023A00010F4B401A301C7010E94001001C080E035
:1023B0000F900F900F900F90CF91DF911F910F9181
:1023C000FF90EF90DF90CF90BF90AF909F908F9055
:1023D0007F906F900895F70181899289A389B489CC
:1023E00084179507A607B70708F055CFE0CFCF931E
:1023F000DF93EC0140E050E060E070E00E942A11C1
:10240000882369F0CE0161E00E94A910FC010097C9
:1024100031F085EE80831B820E948B1801C080E022
:10242000DF91CF9108952F923F924F925F926F92DA
:102430007F928F929F92AF92BF92CF92DF92EF9254
:10244000FF920F931F93CF93DF93EC012A018B81AF
:10245000882309F4B6C0898180FFB3C0C8C02501B4
:102460004E185F083B0174E0272E312C2C0E3D1EC8
:102470004201A1C0288539854A855B856FEFA62E6C
:1024800061E0B62EA222B3228B8179018A0199E004
:1024900016950795F794E7949A95D1F7E98DFA8DFB
:1024A000823049F4428D538D648D758D4E0D5F1DC4
:1024B000601F711F3FC0D480DA94DE20A114B104E4
:1024C000D9F4DD20C9F4211531054105510549F440
:1024D0008D899E89AF89B88D8C839D83AE83BF83A0
:1024E0000BC04C815D816E817F81CF0191010E9483
:1024F000F01A882309F465C0E98DFA8D4C815D815D
:102500006E817F814250504060407040058404C01D
:10251000440F551F661F771F0A94D2F7868597854B
:10252000A089B189480F591F6A1F7B1F4D0D511D8E
:10253000611D711D80E092E08A199B098401881554
:10254000990508F48C0182E00030180709F067C093
:102550008091A0049091A104A091A204B091A30441
:10256000481759076A077B0709F459C08091A406E8
:102570009091A50693010E94B20E882349F421C0D0
:1025800095012C553B4FC301B901A8010E94590187
:10259000600E711E980140E050E088859985AA85FB
:1025A000BB85820F931FA41FB51F88879987AA87B1
:1025B000BB87801A910A8114910409F05BCFA201B4
:1025C00002C04FEF5FEFCA01DF91CF911F910F91D2
:1025D000FF90EF90DF90CF90BF90AF909F908F9043
:1025E0007F906F905F904F903F902F900895A988B3
:1025F000BA88CB88DC88E884F9840A851B859A012F
:1026000040E050E0D601C5018E199F09A00BB10B27
:10261000281739074A075B0708F021CF23CFCB01E2
:10262000BA0140E00E94C618882309F0A9CFC9CF9B
:10263000DF93CF930F92CDB7DEB7BE016F5F7F4FB1
:1026400041E050E00E941312019719F02FEF3FEF85
:1026500003C08981282F30E0C9010F90CF91DF910D
:102660000895EF92FF920F931F93CF93DF93EC01A6
:102670008B81823038F1E884F9840A851B85CE018C
:102680000E94181397FD1EC088859985AA85BB8571
:102690004F96A11DB11D88879987AA87BB87F5E052
:1026A00016950795F794E794FA95D1F72E2D30E01B
:1026B0002F703070E5E0220F331FEA95E1F72C55BB
:1026C0003B4F02C020E030E0C901DF91CF911F9164
:1026D0000F91FF90EF9008950F931F93CF93DF9387
:1026E000EC018B018B81882309F040C0FB018789B5
:1026F000803109F041C082E08B831D8A1E8A1F8AC7
:10270000188E808D918DA0E0B0E025E0880F991F94
:10271000AA1FBB1F2A95D1F7898B9A8BAB8BBC8BD9
:1027200013C083E08B83F801428D538D648D758DCA
:102730004D8B5E8B6F8B788F9E012F5E3F4FC80154
:102740000E94C41B882391F01A8F098F81E089832E
:102750001C821D821E821F82188619861A861B867D
:102760001C861D861E861F86188A01C080E0DF91A8
:10277000CF911F910F9108958032C1F7D2CF1F934F
:10278000CF93DF93EC01142F262F30E0F90155E0B1
:10279000EE0FFF1F5A95E1F7EC55FB4F83858171D2
:1027A00021F0842F827109F069C08091A00490917A
:1027B000A104A091A204B091A3048C879D87AE8749
:1027C000BF87688BF90145E0EE0FFF1F4A95E1F7DF
:1027D000EC55FB4F84899589A0E0B0E0DC01992796
:1027E00088278D8B9E8BAF8BB88F228D338DA9015F
:1027F00060E070E0482B592B6A2B7B2B4D8B5E8B56
:102800006F8B788F838590E088719070009751F47A
:10281000848D958DA68DB78D898B9A8BAB8BBC8B58
:1028200081E00CC0409751F59E012F5E3F4F898D8E
:102830009A8D0E94C41B882309F184E08B83812F29
:102840008F7089831C821D821E821F8218861986C2
:102850001A861B8614FF18C0CE0140E050E060E0ED
:1028600070E00E942A11882379F40AC049895A89A4
:102870006B897C89CE010E94001002C01B8280E01F
:10288000DF91CF911F91089515FDF0CF81E0F8CF32
:10289000CF93DF93EC019C012C5F3F4F898D9A8D84
:1028A00041E050E060E070E00E94301C8823A1F01D
:1028B0008D899E89AF89B88D0097A105B10559F41E
:1028C0008C819D81AE81BF818D8B9E8BAF8BB88FAC
:1028D00089818068898381E0DF91CF9108952F926B
:1028E0003F924F925F927F928F929F92AF92BF9250
:1028F000CF92DF92EF92FF920F931F93DF93CF93CC
:1029000000D000D000D0CDB7DEB76C01162F072F56
:102910005E834D83DC0113968C911397813009F00F
:102920006EC111968C9181FF6AC187C1F601418900
:1029300052896389748980859185A285B3858417BE
:102940009507A607B70731F0C6010E94001088233B
:1029500009F455C1812F902F9C0119014D805E8093
:1029600012C1D6015996ED91FC915A97DA01C9012D
:1029700049E0B695A795979587954A95D1F77480C4
:102980007A9478228FEF882E81E0982E82229322EB
:10299000772009F052C08114910409F04EC0D6018D
:1029A00014964D915D916D917C911797411551054C
:1029B0006105710571F1CF019E012F5F3F4F0E94AC
:1029C000F01A882309F41BC129813A814B815C816B
:1029D000D6015996ED91FC915A978789803149F437
:1029E000283FBFEF3B07B0E04B07B0E05B0748F084
:1029F00019C0283FEFEF3E07EFEF4E07EFE05E070D
:102A000088F4D60114962D933D934D935C931797BC
:102A100014C0F60185899689A789B08D0097A10514
:102A2000B10531F4C6010E944814882331F4E7C08F
:102A3000F60184839583A683B78380E092E08819AA
:102A4000990952018415950508F45C01D60159963F
:102A5000ED91FC915A971496ED90FD900D911C917B
:102A600017978EEF9FEFAFEFBFEFE80EF91E0A1F2B
:102A70001B1F058404C0EE0CFF1C001F111F0A94CD
:102A8000D2F786859785A089B189E80EF91E0A1FBD
:102A90001B1FE70CF11C011D111D90E0A91692E00F
:102AA000B90639F58091A0049091A104A091A204E7
:102AB000B091A3048E159F05A007B10771F4109281
:102AC000A6068FEF9FEFAFEFBFEF8093A004909328
:102AD000A104A093A204B093A3048091A4069091B2
:102AE000A506B801A70191010E94F70D8823B9F549
:102AF00086C08114910419F5D60118962D913D9147
:102B00004D915C911B9751968D919D910D90BC912B
:102B1000A02D281739074A075B0788F00E948B18F9
:102B2000882309F46CC081E08093A606E092A0049B
:102B3000F092A1040093A2041093A30408C0C8015A
:102B4000B70141E00E94C618882309F458C09401D7
:102B50002C553B4FC901B101A5010E9459019501B6
:102B600040E050E0F60180859185A285B385820F13
:102B7000931FA41FB51F80879187A287B3872A0C54
:102B80003B1C4A185B08D60118962D913D914D913A
:102B90005C911B974114510409F0E3CE51968D913D
:102BA0009D910D90BC91A02D82179307A407B507A6
:102BB00048F4F601218B328B438B548B81818068E2
:102BC000818311C080919A0490919B04892B59F0C4
:102BD0008D819E81892B39F0D60111968C911197A8
:102BE000806811968C93F601818183FF05C0C60130
:102BF0000E94CA10882319F04D815E8105C081E0D2
:102C0000D6018C934FEF5FEFCA0126960FB6F8946A
:102C1000DEBF0FBECDBFCF91DF911F910F91FF900F
:102C2000EF90DF90CF90BF90AF909F908F907F906C
:102C30005F904F903F902F90089582FD77CE8ACE7F
:102C4000DF92EF92FF920F931F93CF93DF93EC01EC
:102C500089899A89AB89BC89805E9F4FAF41B0401A
:102C600008F071C0CE010E944814882309F46BC09B
:102C70000E948B18882309F466C0E98DFA8DEC80D8
:102C8000FD800E811F818EEF9FEFAFEFBFEFE80E4B
:102C9000F91E0A1F1B1F058404C0EE0CFF1C001F39
:102CA000111F0A94D2F786859785A089B189E80E0D
:102CB000F91E0A1F1B1F81E08093A606E092A00464
:102CC000F092A1040093A2041093A30480E092E088
:102CD000E4EAF4E0DF019C011D9221503040E1F76D
:102CE000DD24D39411C0B801A7014D0D511D611D04
:102CF000711D8091A4069091A50624EA34E00E94FB
:102D0000F70D882301F1D394E98DFA8D8481D816CB
:102D100050F320E032E040E050E0058404C0220F90
:102D2000331F441F551F0A94D2F789899A89AB89AA
:102D3000BC89820F931FA41FB51F898B9A8BAB8B05
:102D4000BC8B81E001C080E0DF91CF911F910F919A
:102D5000FF90EF90DF9008958F929F92AF92BF9275
:102D6000CF92DF92EF92FF920F931F93CF93DF9357
:102D70006C01EB01942E852EA22E898D9A8DD601A1
:102D80005A969C938E935997CB0140E050E060E0B7
:102D900070E00E940010BB2438C0CE010E943113A5
:102DA000FC01009709F493C055E016950795F79438
:102DB000E7945A95D1F71E2D1F708081882311F05A
:102DC000853EC9F4BB2099F42091A0043091A10460
:102DD0004091A2045091A304D6011C962D933D93DB
:102DE0004D935C931F9750961C93BB24B3948081A2
:102DF000882359F418C0892D982DBF014BE050E06D
:102E00000E944C01009709F470C0E884F9840A8597
:102E10001B8589899A89AB89BC89E816F9060A0756
:102E20001B0708F4BACFA6FE52C0A1FE50C0BB20BB
:102E300051F0F6011089C60161E00E94A910EC0171
:102E4000009769F444C08B81823009F440C0CE0100
:102E50000E9420168823D9F110E0C4EAD4E080E271
:102E6000DE011D928A95E9F7DE01292D382DC90171
:102E7000FC018BE001900D928150E1F7E0919A0402
:102E8000F0919B04309739F0BE01625F7F4FCE0115
:102E90004096099508C081E298E2998B888B80E082
:102EA00098E09F878E87888999899B8B8A8B998FD9
:102EB000888F8E859F859F8B8E8B0E948B18882391
:102EC00031F0C601612F4A2D0E94BF1301C080E07E
:102ED000DF91CF911F910F91FF90EF90DF90CF90F6
:102EE000BF90AF909F908F900895A7FEEACFEFCF4D
:102EF0002F923F924F925F926F927F928F929F920A
:102F0000AF92BF92CF92DF92EF92FF920F931F93F7
:102F1000DF93CF93CDB7DEB7C654D0400FB6F89449
:102F2000DEBF0FBECDBF3C016B01DE01AE5BBF4F0C
:102F300011965C934E9325962FAF25971C861F867E
:102F40001FA21AA66115710509F480C0FC018381D6
:102F5000882309F07BC0FA0180818F32F1F086016D
:102F6000ECE0EE2EF12CEC0EFD1E72E4A72EB12C3F
:102F7000AC0EBD1E4E010894811C911C2796FFAE1D
:102F8000EEAE279767E2262E312C2C0E3D1E270130
:102F900024C01196B183A08301C0FD01A081B1813D
:102FA0008C918F32B1F3D60113968C911397825086
:102FB0008230A8F28E01095D1F4F59966D917C9168
:102FC0005A97C8010E946C13882351F63FC0342DD4
:102FD000252D8701832F922F7C01F501808191811E
:102FE000B401A5010E94B20F882329F42FC03196A5
:102FF000D501ED93FC93D501ED91FC9180818F3249
:10300000B1F38823C9F0C701B801A40121E00E94EF
:10301000AC168823D9F00C151D0519F0C8010E94C3
:1030200018112796EEADFFAD2797EE16FF0679F63D
:10303000C101322D292FCDCFC301B801A40125969E
:103040002FAD25970E94AC16182F01C010E0CE01BD
:1030500087960E942211CE010C960E942211812F88
:10306000CA5BDF4F0FB6F894DEBF0FBECDBFCF9166
:10307000DF911F910F91FF90EF90DF90CF90BF9065
:10308000AF909F908F907F906F905F904F903F9008
:103090002F9008958091C10085FDFCCF8091C000E4
:1030A00085FFF8CF6093C60081E090E0089510920C
:1030B0009F0410929E0484E191E090939D0480937C
:1030C0009C040895DB010D900020E9F71197A61BE1
:1030D000B70B0496AD010E946F140895DF93CF9350
:1030E0000F92CDB7DEB769830496BE016F5F7F4F45
:1030F00041E050E00E946F1420E030E0019711F4AD
:1031000021E030E0C9010F90CF91DF91089504963E
:103110000E946F1408958091A606882399F140912A
:10312000A0045091A1046091A2047091A304809125
:10313000A4069091A50624EA34E00E94F70D8823A6
:1031400019F14091A7065091A8066091A9067091C7
:10315000AA06411551056105710591F08091A406FB
:103160009091A50624EA34E00E94F70D882361F0CF
:103170001092A7061092A8061092A9061092AA060D
:103180001092A60681E0089580E00895DF92EF9204
:10319000FF920F931F937B018C01D42E8091A0048A
:1031A0009091A104A091A204B091A3048E159F0553
:1031B000A007B107C1F00E948B188823E1F080912D
:1031C000A4069091A506B801A70124EA34E00E9464
:1031D000B20E882381F0E092A004F092A104009343
:1031E000A2041093A304DD2011F481E005C081E066
:1031F0008093A60601C080E01F910F91FF90EF9091
:10320000DF9008958F929F92AF92BF92CF92DF92FC
:10321000EF92FF920F931F93CF93DF936C01142FC4
:103220007093A5066093A406FC01178A82E090E0E3
:10323000A0E0B0E080839183A283B3831092A606BE
:103240001092A7061092A8061092A9061092AA063C
:103250008FEF9FEFAFEFBFEF8093A0049093A10497
:10326000A093A204B093A304442321F488249924B6
:10327000540140C0453008F01EC160E070E080E0BD
:1032800090E040E00E94C618882309F414C1C12FC1
:10329000D0E02197FE0174E0EE0FFF1F7A95E1F771
:1032A000EC55FB4FE254FE4F8081EE5BF14090E025
:1032B0008F779070892B09F0FEC0E653FE4F808116
:1032C0009181A281B38184369105A105B10508F4ED
:1032D000F2C064E0CC0FDD1F6A95E1F7C659D94F03
:1032E00088809980AA80BB8081149104A104B104D4
:1032F00009F4E1C0C501B40140E00E94C61888236A
:1033000009F4D9C08091AF049091B00480509240EC
:1033100009F0D1C02091B404222309F4CCC08091DB
:10332000B2049091B304892B09F4C5C08091B10413
:10333000882309F4C0C0F601228B8091B1048483F4
:10334000158661E070E007C04F5FF6014587415088
:10335000483008F0B0C0F6014585848190E09B01BB
:10336000042E02C0220F331F0A94E2F7821793073C
:1033700059F72091BA043091BB042115310519F099
:1033800040E050E008C02091C8043091C904409149
:10339000CA045091CB04F6012583368347835087B6
:1033A000E090B204F090B30400E010E0E80CF91CE7
:1033B0000A1D1B1DE38AF48A058B168B8091B504C8
:1033C0009091B604918F808F6091B40470E080E09A
:1033D00090E00E94E6206E0D7F1D801F911FF60178
:1033E000628F738F848F958F2091B5043091B604CE
:1033F00055E0220F331F5A95E1F721503E4F232FFE
:103400003327269540E050E0260F371F481F591FED
:1034100026873787408B518B8091B7049091B804F1
:10342000009719F0A0E0B0E008C08091C40490912A
:10343000C504A091C604B091C70485017401E21AC5
:10344000F30A040B150BA8019701280F391F4A1F17
:103450005B1FF601058404C056954795379527955F
:103460000A94D2F72187328743875487253FFFE0AC
:103470003F07F0E04F07F0E05F0720F48CE0F60133
:10348000878B19C0255F3F4F4040504018F480E1C2
:10349000F6010EC08091D0049091D104A091D20485
:1034A000B091D304F601828F938FA48FB58F80E201
:1034B000878B81E001C080E0DF91CF911F910F9158
:1034C000FF90EF90DF90CF90BF90AF909F908F9044
:1034D00008956F927F928F929F92AF92BF92CF92F8
:1034E000DF92EF92FF920F931F93CF93DF93EC0144
:1034F0005A016B01380149014230510561057105DE
:1035000008F45EC089859A85AB85BC850196A11DAE
:10351000B11D84179507A607B70708F451C08F8916
:10352000803129F4E52EF62E072F11270CC08032AA
:1035300009F046C07A018B0187E016950795F7944C
:10354000E7948A95D1F78B899C89AD89BE89E80E6D
:10355000F91E0A1F1B1FC801B70141E00E94C618CF
:10356000882371F18F89803149F4F501F070EE0FF5
:10357000FF1FEC55FB4F718260820DC0F501EF77A4
:10358000F070EE0FFF1FEE0FFF1FEC55FB4F608238
:103590007182828293828A89823080F08D819E81BD
:1035A000AF81B885E80EF91E0A1F1B1FE092A7061F
:1035B000F092A8060093A9061093AA0681E001C024
:1035C00080E0DF91CF911F910F91FF90EF90DF90FE
:1035D000CF90BF90AF909F908F907F906F90089505
:1035E000CF92DF92EF92FF920F931F93CF93DF93CF
:1035F000EC017A018B01690189859A85AB85BC85CF
:103600000196A11DB11D84179507A607B70708F4F9
:1036100053C08F89803129F45527412F302F2F2D0A
:103620000CC0803209F048C09A01AB0167E05695A2
:103630004795379527956A95D1F78B899C89AD89F0
:10364000BE89280F391F4A1F5B1F8091A0049091EB
:10365000A104A091A204B091A304281739074A0736
:103660005B0739F0CA01B90140E00E94C6188823FF
:1036700019F18F89803159F4F701F070EE0FFF1FB7
:10368000EC55FB4F80819181A0E0B0E00EC0F701C6
:10369000EF77F070EE0FFF1FEE0FFF1FEC55FB4FA3
:1036A00080819181A281B381BF70F6018083918373
:1036B000A283B38381E001C080E0DF91CF911F91AD
:1036C0000F91FF90EF90DF90CF900895AF92BF924F
:1036D000CF92DF92EF92FF920F931F93DF93CF93DE
:1036E00000D000D0CDB7DEB76C017A018B0182E04B
:1036F00090E0A0E0B0E0F60180839183A283B383E1
:103700005E010894A11CB11CC601B801A701950176
:103710000E94F01A882341F1C601B801A70100E018
:1037200010E020E030E00E94691A8823E9F0E98087
:10373000FA800B811C81F6018789803151F4F8EF02
:10374000EF16FFEFFF06F0E00F07F0E01F07E0F2D3
:1037500009C088EFE8168FEFF8068FEF08078FE0B3
:10376000180790F281E001C080E00F900F900F9059
:103770000F90CF91DF911F910F91FF90EF90DF900D
:10378000CF90BF90AF9008954F925F926F927F92CB
:103790008F929F92AF92BF92CF92DF92EF92FF9261
:1037A0000F931F93DF93CF9300D000D0CDB7DEB738
:1037B0006C0149835A836B837C833901EE24FF2497
:1037C00087012E010894411C511C812CE2E09E2EA1
:1037D000A12CB12C49815A816B817C81C601920157
:1037E0000E94F01A882339F1D501C401F60105843D
:1037F00004C0880F991FAA1FBB1F0A94D2F7E80EB6
:10380000F91E0A1F1B1F29813A814B815C81878920
:10381000803131F4285F3F4F40405040D8F205C01E
:10382000285F3F4F4F4F5F40A8F2F301E082F182E3
:103830000283138381E00F900F900F900F90CF9130
:10384000DF911F910F91FF90EF90DF90CF90BF908D
:10385000AF909F908F907F906F905F904F90089562
:103860002F923F924F925F926F927F928F929F9290
:10387000AF92BF92CF92DF92EF92FF920F931F937E
:10388000DF93CF93CDB7DEB72F970FB6F894DEBF97
:103890000FBECDBF1C014A875B876C877D873F8742
:1038A0002E87DC0119968D919D910D90BC91A02DD4
:1038B0000196A11DB11D8E839F83A887B987F90149
:1038C0000081118122813381011511052105310506
:1038D00049F0480159010894811C911CA11CB11C9C
:1038E0001D8210C0D1018D909D90AD90BC901D8225
:1038F0008A859B85AC85BD850197A105B10511F42D
:1039000091E09D83750164014424552432018E01A8
:103910000F5F1F4FF10181859285A385B4854816FD
:1039200059066A067B0608F090C08E819F81A885A3
:10393000B9858C159D05AE05BF0550F4A2E08A2E11
:10394000912CA12CB12CF2E0CF2ED12CE12CF12C1A
:10395000C101B701A60198010E94F01A882309F459
:1039600074C089819A81AB81BC81A70196012F5FC8
:103970003F4F4F4F5F4F0097A105B10519F0490127
:103980005A010DC0281939094A095B098A859B85A6
:10399000AC85BD85281739074A075B0759F008949D
:1039A000411C511C611C711C0894C11CD11CE11CE0
:1039B000F11CB0CFC101A601B7010FEF1FEF2FEF30
:1039C0003FE00E94691A882399F43FC0260137011D
:1039D00008944108510861087108C101B301A201AE
:1039E000970186010E94691A882379F173016201A7
:1039F0008C149D04AE04BF0448F3AE85BF854D9181
:103A00005D916D917C91411551056105710539F00C
:103A1000C101950184010E94691A8823B1F0EE85E5
:103A2000FF8580829182A282B382FD81FF2359F0BB
:103A30000894811C911CA11CB11CD1018D929D92F6
:103A4000AD92BC92139781E001C080E02F960FB633
:103A5000F894DEBF0FBECDBFCF91DF911F910F91C4
:103A6000FF90EF90DF90CF90BF90AF909F908F909E
:103A70007F906F905F904F903F902F900895FC0142
:103A80002FB7F8944281538184819581481B590B4B
:103A90002FBF57FF04C086819781480F591FCA0165
:103AA0000895CF93DF93DC01EB0114962D913C91A7
:103AB000159712968D919C9113978217930711F485
:103AC00080E017C0ED91FC911197E20FF31F808108
:103AD00088832F5F3F4F16968D919C9117972817DB
:103AE000390710F020E030E015963C932E931497A0
:103AF00081E0DF91CF910895FC017183608357834A
:103B000046831582148284819581938382830895EC
:103B1000FC0122813381848195812817390719F4AA
:103B2000EFEFFFEF0AC0848195810190F081E02DD5
:103B3000E80FF91F8081E82FF0E0CF0108951F9270
:103B40000F920FB60F9211242F933F934F938F93A1
:103B50009F93EF93FF934091C0004C712091C6005A
:103B60008091AE069091AF06E091AC06F091AD0663
:103B7000E80FF91F20839C012F5F3F4F8091B20611
:103B80009091B3062817390710F020E030E08091BB
:103B9000B0069091B1062817390729F03093AF0687
:103BA0002093AE0601C041608091AB06842B8093C8
:103BB000AB06FF91EF919F918F914F913F912F9184
:103BC0000F900FBE0F901F9018951F920F920FB677
:103BD0000F9211242F933F938F939F93EF93FF9313
:103BE0002091B8063091B9068091B6069091B7063B
:103BF00082179307C9F0E091B406F091B506E20F81
:103C0000F31FE0812F5F3F4F8091BA069091BB0672
:103C10002817390710F020E030E03093B9062093E0
:103C2000B806E093C60005C08091C1008F7D8093E7
:103C3000C100FF91EF919F918F913F912F910F9034
:103C40000FBE0F901F901895EF92FF920F931F9346
:103C5000CF93DF937C01FA01F894DC0112962D9149
:103C60003C9113977894DC0114960D911C91159753
:103C70002017310728F416964D915C91179707C0CD
:103C80000217130718F0C0E0D0E022C0A901401BC2
:103C9000510BEA01E417F50708F4EF01F701208161
:103CA0003181200F311FCB01B901AE010E945901B2
:103CB000CE01800F911FD70116962D913C91179739
:103CC0008217930710F0821B930BF701958384836F
:103CD000CE01DF91CF911F910F91FF90EF9008954A
:103CE000F999FECF72BD61BDF89A80B50895F99932
:103CF000FECF1FBA72BD61BD40BD0FB6F894FA9AEF
:103D0000F99A0FBE08951F920F920FB60F921124C9
:103D10002F933F938F939F93AF93BF938091C1064F
:103D20009091C206A091C306B091C4063091C50619
:103D30000196A11DB11D232F2D5F2D3720F02D578A
:103D40000196A11DB11D2093C5068093C1069093D5
:103D5000C206A093C306B093C4068091BD0690919D
:103D6000BE06A091BF06B091C0060196A11DB11D6F
:103D70008093BD069093BE06A093BF06B093C00685
:103D8000BF91AF919F918F913F912F910F900FBE57
:103D90000F901F9018958FB7F8942091C10630911D
:103DA000C2064091C3065091C4068FBFB901CA0133
:103DB00008959B01AC017FB7F8948091BD06909166
:103DC000BE06A091BF06B091C00666B5A89B05C00F
:103DD0006F3F19F00196A11DB11D7FBFBA2FA92F0A
:103DE000982F8827860F911DA11DB11D62E0880FB5
:103DF000991FAA1FBB1F6A95D1F7BC012DC0FFB741
:103E0000F8948091BD069091BE06A091BF06B09136
:103E1000C006E6B5A89B05C0EF3F19F00196A11DAD
:103E2000B11DFFBFBA2FA92F982F88278E0F911D84
:103E3000A11DB11DE2E0880F991FAA1FBB1FEA95C3
:103E4000D1F7861B970B885E9340C8F22150304013
:103E50004040504068517C4F2115310541055105C6
:103E600071F60895789484B5826084BD84B58160CC
:103E700084BD85B5826085BD85B5816085BDEEE672
:103E8000F0E0808181608083E1E8F0E01082808151
:103E900082608083808181608083E0E8F0E08081BF
:103EA00081608083E1EBF0E0808184608083E0EBDF
:103EB000F0E0808181608083EAE7F0E080818460C7
:103EC0008083808182608083808181608083808123
:103ED000806880831092C1000895CF93DF93482FAC
:103EE00050E0CA0184539E4FFC01349148545E4F08
:103EF000FA018491882369F190E0880F991FFC01F1
:103F0000E656FE4FA591B491FC01EC55FE4FC591CC
:103F1000D491662351F42FB7F8948C91932F9095F8
:103F200089238C93888189230BC0623061F42FB779
:103F3000F8948C91932F909589238C938881832B6F
:103F400088832FBF06C09FB7F8948C91832B8C93E6
:103F50009FBFDF91CF910895482F50E0CA01805252
:103F60009E4FFC012491CA0184539E4FFC01949101
:103F700048545E4FFA013491332309F440C02223A0
:103F800051F1233071F0243028F42130A1F0223097
:103F900011F514C02630B1F02730C1F02430D9F427
:103FA00004C0809180008F7703C0809180008F7D56
:103FB0008093800010C084B58F7702C084B58F7D58
:103FC00084BD09C08091B0008F7703C08091B0009C
:103FD0008F7D8093B000E32FF0E0EE0FFF1FEC55D4
:103FE000FE4FA591B4912FB7F894662321F48C91DC
:103FF0009095892302C08C91892B8C932FBF0895B3
:10400000682F70E0CB0180529E4FFC012491CB01C0
:1040100084539E4FFC01449168547E4FFB01949160
:10402000992319F420E030E03CC0222351F12330E1
:1040300071F0243028F42130A1F0223011F514C0A1
:104040002630B1F02730C1F02430D9F404C080917B
:1040500080008F7703C0809180008F7D80938000E7
:1040600010C084B58F7702C084B58F7D84BD09C030
:104070008091B0008F7703C08091B0008F7D8093D6
:10408000B000892F90E0880F991F82559E4FFC0148
:10409000A591B4918C9120E030E0842311F021E0CF
:1040A00030E0C90108950895CF93DF930E94321F35
:1040B0000E9453200E94210BC0E0D0E00E94EC0C33
:1040C0002097E1F30E940000F9CFCF92DF92EF92A8
:1040D000FF920F931F93CF93DF937C016B018A01B3
:1040E000C0E0D0E00FC0D6016D916D01D701ED9118
:1040F000FC910190F081E02DC7010995C80FD91FEF
:10410000015010400115110571F7CE01DF91CF91DB
:104110001F910F91FF90EF90DF90CF900895EF9255
:10412000FF920F931F93CF93DF937C018B01C0E02D
:10413000D0E0F8010F5F1F4F6491662359F0D7015B
:10414000ED91FC910190F081E02DC7010995C80F18
:10415000D91FEFCFCE01DF91CF911F910F91FF902B
:10416000EF900895EF92FF920F931F938C01DC0163
:10417000ED91FC910190F081E02D6DE009957C01BD
:10418000D801ED91FC910190F081E02DC8016AE029
:1041900009959C012E0D3F1DC9011F910F91FF90A4
:1041A000EF900895EF92FF920F931F937C010E946E
:1041B0008F208C01C7010E94B2209C01200F311F6B
:1041C000C9011F910F91FF90EF900895629FD00158
:1041D000739FF001829FE00DF11D649FE00DF11DC2
:1041E000929FF00D839FF00D749FF00D659FF00D71
:1041F0009927729FB00DE11DF91F639FB00DE11D5E
:10420000F91FBD01CF0111240895A1E21A2EAA1BA6
:10421000BB1BFD010DC0AA1FBB1FEE1FFF1FA21776
:10422000B307E407F50720F0A21BB30BE40BF50B73
:10423000661F771F881F991F1A9469F760957095FC
:10424000809590959B01AC01BD01CF010895EE0FC3
:10425000FF1F0590F491E02D09942F923F924F9209
:104260005F926F927F928F929F92AF92BF92CF9206
:10427000DF92EF92FF920F931F93CF93DF93CDB70F
:10428000DEB7CA1BDB0B0FB6F894DEBF0FBECDBF87
:1042900009942A88398848885F846E847D848C8458
:1042A0009B84AA84B984C884DF80EE80FD800C8161
:1042B0001B81AA81B981CE0FD11D0FB6F894DEBF44
:1042C0000FBECDBFED01089511E0C8EFD1E004C0ED
:1042D000FE010E9429212296CA3FD107C9F7F8940E
:0242E000FFCF0E
:1042E2000000000042044B04920479047404730435
:1042F200000000004A186520000000006E186520CA
:00000001FF
