:020000040800F2
:100000000050002045DC0008F1DC000815AC0008B9
:10001000F1DC0008F1DC0008F1DC00080000000061
:10002000000000000000000000000000F1DC0008FB
:10003000F1DC000800000000F1DC0008F1AB000872
:10004000F1DC0008F1DC0008F1DC0008F1DC00085C
:10005000F1DC0008F1DC0008F1DC000875AD0008F7
:10006000F1DC0008F1DC0008F1DC0008F1DC00083C
:1000700085AB0008F1DC0008B5AB0008F1DC000836
:10008000F1DC0008F1DC0008F1DC0008F1DC00081C
:10009000F1DC0008F1DC0008F1DC000871AD0008BB
:1000A000F1DC0008F1DC0008F1DC000863AD0008B9
:1000B00059AD00084DAD000841AD000811AC000875
:1000C00009AC00080DAC000805AC0008F1DC000824
:1000D000F1DC000841AB0008CDAA000895AA000891
:1000E00079AD0008F1DC0008F1DC00080000000038
:1000F0000000000000000000000000000000000000
:0C01000000000000000000005FF808F1A3
:100110002DE9F04F854D95B0AB68854C13F0080183
:1001200000F0868095F81721042A00F28380DFE82A
:1001300002F003030550750023787CE060787C4A68
:10014000002877D000209E05507002D5137E180736
:1001500070D4E0780023A27800F00706A383754BE3
:1001600042EA06221A60227902F03F06760146EA48
:10017000D00058606079800040EA9210A27902F0C5
:10018000010640EA86209860E07900F00F06F6014B
:1001900046EA5202DA60227A02F07F06360146EA27
:1001A00010101861607A400040EAD212A07A00F084
:1001B000030642EA46225A61E27A02F01F06B601BD
:1001C00046EA90009861207BC00040EA5212DA6152
:1001D0002CE0A27F564B6AB393F82000002201283E
:1001E0009A7727D19A8393F83420082A84BF08226B
:1001F00083F8342094F834004F4A0023DEB286425C
:1002000002F1020212D212F8016C12F8027C46EAE4
:1002100007274A4E46F823700133EFE794F8583029
:10022000434A00203BB1908382F85800012302E04A
:100230000B4600E00023E26D206E101A002802DA5F
:10024000002B00F09B8302F59C4220322266DFF8EF
:1002500004A13B4E00293CD13A4F89468846DAF842
:1002600000305FFA88F09847A0F2EE2292B240F296
:10027000DC539A42D4F8A420334B88BFB5F81C0154
:100280001340002B03DA013B63F0030301332849D9
:1002900003EB880301EB4303A3F8640039887B88F0
:1002A00008F101080B44B988B8F1080F0B44F9882C
:1002B00007F108070B441BB24FF0040193FBF1F365
:1002C00026F8093009F10209C9D10132C4F8A42085
:1002D00009E00027F8B2DAF80030984726F817004E
:1002E0000137082FF6D1AB68590404D594F8A8302B
:1002F0000BB90AF007FD95F826210C4B62B30332C7
:1003000036F91200A0F57A70B0F57A7FA8BF4FF4E5
:100310007A7020EAE0700BF015FA0C490BF01AFB2A
:100320000B490BF063FA0BF04DFC2AE09419002006
:100330001001002058070020320100204801002051
:100340002C070020740100200300008000007A4484
:1003500000C07F445007002093F8270190B1A84ABD
:10036000D179A84A32F81100B3F82A2180B2801A54
:10037000B3F82831C0EB802090FBF3F000B280F39B
:100380000A0080B2AB68A4F8BE009A053FD59E4B28
:100390009E4AB3F81C9092F8B8300FFA89F703EB35
:1003A00083018F4290461EDDDFF868A29AF8012093
:1003B000CAB1974AB2F81C2132807280B280B8F874
:1003C000BA20F28098F8B920134403EB83039F42CC
:1003D00004DD0AF097FC00238AF80030B4F8C0303E
:1003E0000133A4F8C03098F8B83003EB83039F4280
:1003F00009DD884F97F80180B8F1000F03D10AF0AA
:1004000081FC87F8008009F10109A4F81C90002202
:10041000B5F81E11B5F820711346B05E9B088842EE
:10042000C4BF63F07F03DBB20232B842B8BF43F00F
:100430004003082AF1D194F8C200734A984205D1CA
:1004400092F8C300F92804D8013000E0002082F8B7
:10045000C30084F8C230AB686D4A13F480436B4F1D
:100460000CD0B2F81C11B2F8DC20B6F90630881AAC
:10047000834208DD0A44934207DB04E0B6F9062014
:100480008A4202DB16E0002314E00023C4F8D433D0
:10049000C4F8D833C4F8DC33C4F8D030C4F8D4304E
:1004A000B7F846302BB1584B93F8A830002B42F0E8
:1004B000C7800123B7F846206AB194F8A82052B942
:1004C000544A52783AB195F8232112B10AF01AFC35
:1004D00001E0002BFAD194F8C3204B4B142A40F0D2
:1004E000B1804C4A50789046D0B1B7F846202AB92E
:1004F00093F8C2305F2B01D10AF004FC95F8223149
:10050000002B00F09F80B7F84630002B40F09A8017
:1005100094F8C2307D2B40F095800AF0F3FB91E017
:1005200093F8C220572A15D13B4B4FF47A721A80A8
:10053000AB68DB0501D508F001F9384B1B6858079B
:1005400002D5374A0A21118013F0080326D1A4F8F6
:10055000C43023E0A968490717D55A2A15D193F862
:10056000C6202AB1012283F8C60083F8C72015E00F
:1005700093F8C82082F0010283F8C820294B0AB101
:10058000022200E003221A7008E05D2A02F0618076
:100590005B2A02F060805E2A02F05F80B7F8463086
:1005A00033B994F8C2206F2A02D10AF04BFB15E050
:1005B00095F8222122B11BB994F8C2307E2BF4D0D9
:1005C00094F8C230972B04D1174B4FF4C8721A809D
:1005D00004E0A72B04BF012388F80E3094F8C23042
:1005E000BB2B02D1BB8D023303E0B72B03D1BB8DF4
:1005F000023BBB851FE0BE2B18D17B8D023319E077
:10060000080500201005002010010020641D0020B6
:1006100094190020BC060020380D00204005002061
:100620003A0D0020621E00206C1E0020BD2B09D157
:100630007B8D023B7B850120014605F027FD0023D1
:1006400084F8C330D5F808E01EF0040F31D094F8D8
:10065000C820A14B8AB1A14A527872B1A04AB6F91A
:100660000610B2F81E21914207DD93F8A82022B9A6
:100670003221A3F8CA1083F8C82094F8B920964B09
:1006800062B193F8CC202AB993F8C62012B932226D
:10069000A3F8CA20012384F8CC300AE093F8C620DE
:1006A0003AB18E4A527822B983F8C620012283F8E3
:1006B000C7208C480123002130F8022F03F1FF3CB2
:1006C000A2F21556B6F5C77F8CBF002601269E40C4
:1006D00012B2314340F21356B242CCBF002601267B
:1006E00006FA0CF6314340F2A466B242D4BF0022AF
:1006F00001225E1CB240033311430D2B89B2DBD1C2
:10070000002307EB4306B6F84660734A31420CBF3C
:100710000026012602F1A8001E540133152BF0D14A
:1007200092F8A9306D4E704943B9704BB2F91C2054
:1007300093F8B83003EB83039A420CDD0B689A07F9
:1007400009D5F3784BB9C4F8D030C4F8D430634B32
:100750000122DA7001E00023F37094F8AA305E4AB7
:100760005BB10023F370337943B9C2F8D030C2F8DB
:10077000D4305A4B01221A7100E0337194F8A8303A
:100780000BB901233370F278594B12B9534A1279DD
:1007900012B110225A6101E010221A610A6853074F
:1007A00025D594F8AB104C4B99B1B17991B94B4820
:1007B0004FF0010C80F806C0D3F8DC00C3F8EC1051
:1007C000C3F8D800B3F8E800C3F8F010A3F8E000CD
:1007D00000E0B1711EF4005F09D094F8AC302BB189
:1007E000F37B23B93D4B0121D97300E0F37312F081
:1007F0000A0F20D094F8AD3037494BB1737943B923
:10080000364B01205871B1F8C430A1F8F43000E043
:10081000737194F8AE302BB1737A23B92F4B012149
:10082000597200E0737294F8AF102B4B19B1B3F802
:10083000C410A3F8F610900640F19180F27A274B8D
:10084000002A00F0878094F8F820DFF88C80042AD2
:1008500040F2808098F8B2208AB1DA79002A7ED1FD
:100860000121D9711A72234B08F1FC0008F580713F
:100870001A7003F011FF022388F804316FE0DA7177
:1008800098F8B320002A37D0B8F9E210B7F8CC2096
:100890000029B8BF494291422EDAB8F9E410002984
:1008A000B8BF4942914227DA1A7A002A57D1012764
:1008B0001F72104B08F584701A70D8F8103108F5C3
:1008C0008671C8F80831D8F81431C8F80C3103F033
:1008D000E3FE88F8047142E010010020BC0600200D
:1008E000941900203207002040050020641D0020DC
:1008F000000C014000000020934A0023337213785B
:100900006BBB012111701A46904F0020391D5052C7
:1009100007F1080107F10C0E5052002143F80E10A8
:100920009E44D053CEF80400CEF80810023207F1EE
:10093000340E5C3743F80E10D9519E441F44042AEC
:10094000CEF80400CEF808107860B96003F1140303
:10095000DAD104E00023F371337284F8043194F89F
:10096000B43003B10123B3726B79082B02D00E2B84
:1009700040F066840023737200F062BC744BD3F8BD
:100980009C31042B00F25C84DFE813F005008B003F
:10099000F8004C033E040123C4F89C316D4B6C4EAF
:1009A0001B6819077DD5D6F8A031D31A002B78DB48
:1009B000694B02F5C332A0325B6806F5D270C6F807
:1009C000A0219847654B06F5D2779A7B184692B1DD
:1009D000D6F8A0210023C6F8AC21E9180022A1F81E
:1009E000002116465E49FA5A5A5206315A520233CB
:1009F000062BF2D186735B4B1B78A3B1B4F8A4210C
:100A0000B5F80031D31AA4F8A431B4F8A621B5F88A
:100A10000231D31AA4F8A631B4F8A821B5F80431EC
:100A2000D31AA4F8A831D4F8AC31494A002B00F00D
:100A30000784D2F8A0114C48CB1A834202F5DB712F
:100A400002F5D87019D8494BDA6882F00802DA60EA
:100A50000023FA5A30F903E016B2B645C4BFDFF8F6
:100A600000E123F80E2031F903E0B645BCBF404E4B
:100A70009A530233062BECD1E2E30023C2F8AC31E7
:100A8000C75ECE5EEA183E4402273B4496FBF7F66B
:100A9000062BA2F80061F3D10120014605F0F6FA19
:100AA000CEE3D4F89C312A4E0133C4F89C31294B53
:100AB0001B685B0762D5D6F8BC31D31A002B5DDB0F
:100AC000D6F8C031C6F8BC212A4F9BB13B69984784
:100AD0007B689847D6F8BC313A8806F5E270134433
:100AE000C6F8BC3106F5E4717B6998470023C6F867
:100AF000C031A5E3BB689847FB6898471E4AD6F803
:100B0000CC1192F831204B1C934208BF0023D4F83B
:100B1000C42104EB8101C1F8D021D4F89012C4F8AB
:100B2000CC310A4404EB8301D1F8D0010123121A1D
:100B3000C4F89022C4F8C0317A88D4F8BC31134488
:100B4000C4F8BC317CE300BF000000202802002074
:100B50001001002040050020B8050020BC06002040
:100B6000C0020020E00500207FC3C901000C014045
:100B7000C602002090050020641D0020D4F89C319E
:100B8000B14E0133C4F89C31B04B1B685F0740F194
:100B9000498207F071FAD6F8987246F2A713C71B7C
:100BA0009F42B6F896A2B6F894B240F23B82DFF8C4
:100BB000C892C6F89802B9F80030DFF8B8827BB363
:100BC00098F83100D6F89032D6F89C220138B3FB61
:100BD000F0F0082392FBF3F1521A1044C6F89C027D
:100BE00090FBF3F00AF0AEFD99490AF0B3FE994983
:100BF0000DF01EFB01464FF07E500AF0EDFC9649C9
:100C00000AF0F4FD0AF0B8FF0023C6F8A432C6F8D3
:100C1000A832B9F80030C6F8A002013BA9F80030AC
:100C200098F831000FFA8BFB0FFA8AFAD4F8903259
:100C3000BBF1000FB8BFCBF1000BBAF1000FB8BF8A
:100C4000CAF1000AD345A8BFDA460138B3FBF0F079
:100C50001FFA8AFACDF818A00AF070FD7C490AF054
:100C600079FE7C490DF0E4FA01464FF07E500AF01F
:100C7000B3FC79490AF0BAFD0DF00CFAD8F83460EB
:100C80008146D4F8AC020AF05DFD31460AF0AEFDB3
:100C90008046D4F8A002C0EB09000AF053FD3146AB
:100CA00081464FF07E500AF097FC014648460AF014
:100CB0009DFD014640460AF091FC0DF0EBF9DDF890
:100CC00018A083460FFA8AF8B8F1FA0F634E03DDD5
:100CD0004FF0FF33336014E030680AF033FD814693
:100CE00040460AF02FFD01465D480AF075FC0146BA
:100CF00048460AF07BFD5A490AF02CFE0AF03CFFF8
:100D00003060366806F1FF39B9F1C60F06D8C6EB78
:100D10000B03C4F8B032C4F8AC622FE0D4F8B032A0
:100D2000002EC3EB0B0BDFF820A1C4F8ACB225DD1D
:100D3000C6F596700AF006FD4A490AF00BFE804699
:100D4000CAF8B40230460AF0FDFC41460AF04EFDF6
:100D5000064658460AF0F6FC414683464FF07E5060
:100D60000AF03AFC014658460AF040FD014630467A
:100D70000AF034FC0AF000FFCAF8AC023A4B1868DB
:100D800002930AF0DBFC394906460AF02FFD834640
:100D9000D4F8C0020AF0D6FC8046D4F8C4020AF0A7
:100DA000D1FC014640460AF0D5FD314A0590116854
:100DB0000AF01CFD31460AF019FD2E4A4FF07C5115
:100DC000D2F83CA0D4F8A482D4F8AC620790039285
:100DD0000AF00CFD59460AF009FD59468446404682
:100DE000CDF810C00AF002FDDDF810C001466046E3
:100DF0000AF0F4FBD4F8A8120AF0F0FB51460AF00E
:100E0000F5FC834630460AF09DFC514684464FF07F
:100E10007E50CDF810C00AF0DFFBDDF810C00146AF
:100E200060460AF0E3FC014658460AF0D7FB039AF5
:100E3000029BB9F1C60FC4F8A80291469A461DD884
:100E4000014AC2F8DC601EE01001002040050020CD
:100E500080E6C547B1DC423ED048874A50000020BA
:100E6000000061440000C842641E0020BD37863582
:100E7000D4050020641D00203A0D00200AF07CFEFD
:100E8000B04BC3F8DC00079940460AF0A7FB0346C5
:100E9000D4F8C8024FF00008CAF80080C4F8B8823D
:100EA000C4F8BC82C4F8C082C4F8C482301A029369
:100EB0000AF048FCA4490AF099FC824638460AF038
:100EC0003DFC014650460AF045FD0AF055FE40F251
:100ED000DC529E499042A8BF10468842B8BF0846DF
:100EE0000A21C4F8C86207F0AFFA029BD9F838604B
:100EF0008246314618460AF079FC074650460AF009
:100F000021FC314682464FF07E500AF065FB0146D7
:100F100050460AF06BFC014638460AF05FFBC4F805
:100F2000A4020DF0B7F80521064607F08DFA069FDA
:100F3000DFF810B23BB2B3F5487FC4F8CC026BDAED
:100F40009BF8D0320BBBDBF8D820DBF8DC308048D4
:100F5000D31AB3F5FA7FA8BF4FF4FA738342A8BF40
:100F600018460A2107F070FA7A4B80221B79584301
:100F700090FBF2F3B3F5967FA8BF4FF49673A2F5FA
:100F8000D6729342B8BF134601E0DBF8D43299F829
:100F90000A209B1B5A43202192FBF1F299F814007E
:100FA000D4F8EC1042F2040603FB00106A4BB2F5D1
:100FB000967FA8BF4FF496729842A8BF1846674B19
:100FC0009842B8BF1846C4F8EC0090FBF6F0644EA7
:100FD000B242ACBF8618861999F81E000AF0B2FB1F
:100FE000D4F8D812074605980AF0F8FA01463846B0
:100FF0000AF0FCFB4FF06C510AF0F8FB0AF0BCFD64
:101000006FF095039628A8BF96209842B8BF18465F
:10101000301AC4F8F00001E0CBF8F080059AC4F86B
:10102000D8220DE1D4F89C310133C4F89C31AB686F
:10103000DE0540F1E9804B4EB36863B94A4F3B7817
:10104000013B042B00F2FC80DFE813F011001100DB
:101050001100CD00B600B06806F0A5FC0028EDD068
:10106000404B986806F09AFC03F032FDF3E795F8E0
:101070002C91B9F1000F03D0B9F1010F09D098E01C
:101080007A783A4BB06803EB0213596806F081FC9A
:101090008CE0B068DFF8CC8003681B6998470028B3
:1010A00000F087803B78304E022B2CD0032B35D0BC
:1010B000012B7ED12E4BD3F80090736AC3EB09034A
:1010C000632B76D9F369042B1BDCDFF8A0A0D8F8DA
:1010D00008000AEB0313596806F05BFC7378D8F834
:1010E00008800AEB03139E6816F8011B19B14046ED
:1010F00006F05EFCF8E7FB69C7F824900133FB615A
:1011000057E0022053E07278184BD8F8080003EB40
:101110000213596806F03DFC032048E03369012BB7
:101120002AD0022B42D0002B43D1326A114BC6F891
:10113000109053F8321003EBC2035B687161B36126
:1011400037E000BF100100200024744924FAFFFF9B
:101150000CFEFFFF641D002020031900E0FCE6FFE9
:10116000D4FEFFFFE40500207807002020030108DB
:10117000901900200C040108F369B269934209DA5E
:101180007269D8F80800D15C06F012FCF3690133EB
:10119000F3610EE0326A7B490132326251F832204B
:1011A0000023F36102B90223336102E0042008F056
:1011B00077F800237B6043E07B68052201337B6086
:1011C0007B7801200133DBB2B3FBF2F202EB820247
:1011D0009B1A7B706C4B6D4A1B68BB60002384F8C4
:1011E000F830D3720DE0684B1A68BB68D21A40F62B
:1011F000C4139A4224D9664B05201A6822F02002B3
:101200001A6008F04DF81BE00023C4F89C31604BD5
:101210001B68D80614D55C4B1A685E4B19683C31C4
:101220008A420DD31A605C4F5C4A5D4B5D4EC3F839
:10123000DC223B880B20336106F038FF3B8873616A
:1012400006F01AFFAB89E06533B1554AD2F8E022C7
:10125000821A002AC1F21382534E1844C4F8E002E5
:10126000736852489847524B1A889946002A00F0F2
:10127000C0804E494FF0000801F108064746B9F812
:1012800000B04C4BBBF57A7F08D1A3F13C010A209A
:1012900000FB0711002243F808200A61434AD05F8F
:1012A00053F80820024443F808200AF04BFA336947
:1012B0000133012B336104D1002370603060B360CF
:1012C0002AE0D6F800C002936146CDF810C0039022
:1012D0000AF082F9029B824618460AF033FA014668
:1012E00050460AF037FBDDF810C0014660460AF0B0
:1012F00075F9039A034619467060104602930AF086
:101300006BF9014650460AF071FAB1680AF066F9C5
:10131000029BF0603360B0602448002300F1500A63
:10132000BBF1010FC35327F80A3055D130690128AA
:1013300007DD01380AF006FA0146F0680AF00AFBF8
:1013400000E000200DF0FCF8834695F8F60098B315
:101350000AF0F8F9014658460AF004FC60B34FF46D
:101360007A73A9F800300023C4F8FC32C4F81033B3
:10137000C4F82433C4F83033C4F82C33C4F8283309
:101380002AE000BF0C04010890190020BC060020D0
:1013900040050020AC070020A007002050000020DE
:1013A00010010020000C014044050020F40300203F
:1013B000380D002038040020B54B4FF47A7258F8ED
:1013C00003300A2003F5FA7393FBF2F32AF807308F
:1013D0000F21012206F05AFC0237062F08F10408FB
:1013E00006F114067FF44BAFB9F80030013BA9F8C1
:1013F00000300023A74E06F5397706F54D72F95AED
:101400009A5A8A1AFA520233062BF3D1A24B1B685E
:1014100013F0020300F09883A04BA14F06F23A307C
:101420005B689847388806F23A36002844D0002393
:101430001A46DFF888C2B0F5C87F04BF00214CF817
:10144000021036F903805CF80210DFF848E24144EC
:101450004CF80210002105EB0308F1520233062B71
:10146000DFF848C2A8F8FA1002F10402E1D101281D
:101470001FD1DEF840334FF4C872C83393FBF2F348
:10148000ACF8FA30DEF84433C83393FBF2F3ACF82F
:10149000FC30DEF84833C83393FBF2F2814B1B88F3
:1014A000D21A814BACF8FE2059859985014604F08B
:1014B000EDFD3B88013B3B80AB687C4A59077CD5FE
:1014C000B4F8CA10734B322913D1B2F8FA00A3F85A
:1014D0004C03B2F8FC00B2F8FE20A3F84E03A3F8C8
:1014E0005023714A508D928DA3F85203A3F85423D0
:1014F00001E000293DD000221746DFF8C4E132297F
:1015000004BF00234EF807305EF8070036F902C02A
:1015100005EB020860444EF807004FF0000E26F875
:1015200002E00232062A5B4B6048A8F8FAE007F1B5
:101530000407E2D1012919D15D4A02261670B3F8D9
:101540004C2383F8CCE0A0F8FA20B3F84E2383F8BC
:10155000C610A0F8FC20B3F85023A0F8FE20524A91
:10156000B3F85203B3F85433508593850139A4F886
:10157000CA1094F8C720474BFAB1D3F85803322168
:10158000002290FBF1F083F8C720A5F8FA00D3F809
:101590005C03D3F8603390FBF1F093FBF1F1414B26
:1015A000A5F8FC001B880120C91A3F4BA5F8FE10C6
:1015B00001465A859A8504F069FDB4F83A23B5F8D6
:1015C000FA30D31AA4F83A33B4F83C23B5F8FC3017
:1015D000D31AA4F83C33B4F83E23B5F8FE30D31A3E
:1015E000A4F83E3306F048FDD4F864330646C31A27
:1015F000184606930AF0A2F82E4A0790D1680AF01E
:10160000F5F8294BC4F8646393F82E700890059799
:1016100000273E46BB46984627490DF12C0A885FB5
:101620000AF090F808990AF0E1F8059A4AF80700DC
:10163000002A49D010460AF085F801464FF07E5046
:101640000AF088F9DFF87C90034619464FF07E5087
:10165000029309F0C1FF57F809100AF0C7F8A9F181
:101660002E010246885F03920AF06CF8029B19462D
:101670000AF0BCF8039A0146104609F0AFFF49F89A
:1016800007000AF079FA09F10C0929F8060020E0B0
:1016900038040020100100204005002058050020DB
:1016A0006C1E00203C000020641D002094190020C6
:1016B000621E002044050020F40300205004002096
:1016C0006804002078040020BF4BA3F13A02B25A0C
:1016D000F252BD4B0437F25E0236062E02FB02BB0D
:1016E000994699D1642303FB0BFBB84B09F1080021
:1016F0001B880BA95B439BFBF3FBABF1490B1FFA68
:101700008BFB06F06FFDBBF13B0F6BD9B04BD4F8F0
:101710008463B3F900000AF015F8014630464FF033
:1017200001070AF01FFA00B90746AA4B3146D4F860
:1017300080035F730CF07AFD0746C4F88803D4F881
:101740007C03D4F884B300F10046D4F8800301464A
:101750000AF04CF85946814658460AF047F80146C7
:10176000484609F03BFF0CF0EBFE014630460CF01A
:101770005DFD0646C4F88C03384609F073FC8EA361
:10178000D3E9002309F0C2FC09F0D2FE0CF082FC80
:10179000A4F89402304609F065FC87A3D3E900233E
:1017A00009F0B4FC09F0C4FE0CF074FC8A4BA4F8F8
:1017B00096021B681A076ED50BA9884806F012FD21
:1017C000B5F8F40009F0BAFF4FF07E51834609F0F6
:1017D00005FF01464FF07E500AF0BCF84FF0000ABA
:1017E00005902EE0B5F8F20009F0A8FF4FF07E5109
:1017F000074609F0F3FE01464FF07E500AF0AAF8C2
:101800004FF0000B0646764B384653F81B100293F8
:1018100009F0ECFF024639F90B00039209F092FF40
:10182000039A0146104609F0D9FE314609F0DEFF61
:10183000029B43F81B000BF1020BBBF1060FE2D138
:1018400064E7DFF8AC91584609F5647252F81A1053
:10185000039209F0CBFF09F5D271844631F90A00F1
:10186000CDF810C009F06EFFDDF810C001466046EB
:1018700009F0B4FE059909F0B9FF039A42F81A007D
:101880000AF1020ABAF1060FDBD1104606F062FD3A
:10189000A9F8C40044E0DFF85CB151460BF1040044
:1018A00006F0A0FCDBF80400DBF808300146DBF8AA
:1018B0000CA0029309F09AFF029B81461946184634
:1018C00009F094FF0146484609F088FE51468146DA
:1018D000504609F08BFF0146484609F07FFE0CF0A8
:1018E0002FFE002181460AF015F9A0B9DBF80400AB
:1018F00049460AF02FF84946CBF80400DBF8080007
:101900000AF028F84946CBF80800DBF80C000AF08A
:1019100021F8CBF80C00334806F01CFDA4F8C400F5
:101920003149079809F062FF06F10046814607F148
:101930000047B4F9C4000F960E9709F003FF00F1B9
:10194000004009F08FFB1EA3D3E9002309F0DEFB62
:1019500009F0EEFD1090B4F9740309F0F3FE119054
:10196000B4F9760309F0EEFE1290B4F9780309F0A9
:10197000E9FE0EA9139011A806F034FC1B4B1C4E77
:1019800093F84430012B37D1124B5B7873B9D6F8FA
:101990009C33402093FBF0F0181A09F0D3FE139902
:1019A00009F01CFE0AF0E8F8C6F89C03D4F89C3352
:1019B000402093FBF0F021E03B597E90A9E7814065
:1019C000399D52A246DF913F840400203C00002054
:1019D000D0050020BC06002040050020A004002007
:1019E0008C04002004000020BD378635641D0020D3
:1019F0001001002000000020B94B188809F0A2FE59
:101A00000146139809F0E8FDB64B13901968484653
:101A100009F0E4FD0146484609F09CFFD4F8A073A4
:101A200081463946139809F0D7FD0146484609F02A
:101A3000DDFE0146384609F0D1FD0746C4F8A00393
:101A40001198D4F8B8920CF025FB98F8301006F0F5
:101A5000FBFC4844C4F8B8021298D4F8BC920CF0CD
:101A600019FB98F8301006F0EFFC4844C4F8BC02AB
:101A70003846D4F8C0920CF00DFB98F82F1006F001
:101A8000E3FC994B069F1A6848443A441A60D4F81C
:101A9000C432964E0133C4F8C43298F87630C4F894
:101AA000C002002B56D0D6F87C03D6F880930146AE
:101AB00009F09CFE49468046484609F097FE0146DB
:101AC000404609F08BFDD6F8847380463946384687
:101AD00009F08CFE0146404609F080FD0CF030FD17
:101AE0000146384609F036FF814907460AF026F8D4
:101AF00018B10023A6F8A4332CE038460CF046FBBE
:101B00007C4B196809F072FE0CF0C4FAB0F5617FE5
:101B1000A8BF4FF4617009F093FA6FA3D3E90023D3
:101B200009F01EFC09F004FD0CF0F2FA724B0746B6
:101B300093F8760009F006FE394609F057FE0CF0DE
:101B4000A9FAA6F8A40305E0A6F83A33A6F83C33B0
:101B5000A6F83E336B79012B0ED1B4F9A623B4F964
:101B6000E83203EB4203032293FBF2F39BB2A4F8A7
:101B7000AC33A4F8A63303E0B4F8E832A4F8AC33ED
:101B8000B4F8E432594FA4F8A833B4F8E6325A4E08
:101B9000A4F8AA3306F070FA584BE0651A6818608A
:101BA000821AA4F8AE2300F077FD554B196811F0A6
:101BB000080F34D0B7F8E62002F145039BB28A2B18
:101BC00029D8504B58799E4628B3B7F8F430B7F867
:101BD000C400C01A80B283B21FB2B337BCBF00F5D5
:101BE000B4739BB218B2B3289EF80D70C4BFA3F5AE
:101BF000B4739BB295F8EC008FB140B240424343BE
:101C0000707A1BB243436FF01D0093FBF0F31A444C
:101C1000A4F8E62003E0B4F8C430A4F8F4304B078D
:101C200040F19780374B9A79002A00F092801F7C10
:101C3000002F40F0848096F8730096F872202B4BAA
:101C400080B3B4F8E8C0B4F9E0000FFA8CFEC0EB42
:101C50000E08B8F1000FB8BFC8F1000890450FDDBD
:101C60008645C8BF52421FFA8CFCC8BF92B2C3F867
:101C7000EC706244012783F8B073A4F8E82068E0B0
:101C800093F8B0232AB1D3F8DC2083F8B073C3F8FB
:101C9000D820D4F8F030B5F8D2201844B5F8D030B8
:101CA000984244E0B4F9E070B4F9E8E0C7EB0E0EF6
:101CB0008EEAEE7CACEBEE7C944525DD02229EFBA9
:101CC000F2F2C3F8D422012283F8D02283F8B023A1
:101CD00025E000BFAFF30080A2EB0FE5DD169640D4
:101CE0003C000020DC050020641E002010010020C4
:101CF0008FC2753CD8050020641D0020340D0020E3
:101D000040050020BC06002093F8B0233AB1D3F878
:101D1000DC2083F8D002C3F8D82083F8B003D4F8CD
:101D2000F020B5F8D0303A44B5F8D2009A4203DB3F
:101D30008242B4BF13460346A4F8E83009E0B4F881
:101D4000E42095F92501D4F8F03000FB0323A4F832
:101D5000E43096F876305BB1A94BDA780AB91B7992
:101D600033B1B4F8E830B4F8A4231344A4F8E8304D
:101D70008F0640F1B180A24BDA791AB91A7A002A9B
:101D800000F0AA801B7B002B00F0A680B4F9C400F1
:101D900009F0D8FC9B4909F029FD80460CF0B8F900
:101DA000814640460CF040F996F8C5A08046964F13
:101DB000B4F92201BAF1000F5CD0B7F81E31CAF1B4
:101DC00000071FFA83FB1BB2C01A06F0DBFCB84207
:101DD00003DB5045A8BF504600E03846B4F81C313C
:101DE0008344B4F920019AB21BB21FFA8BFBC01ACC
:101DF000A4F81EB1039206F0C5FCB842039A03DBB7
:101E00005045B4BF074657461744BFB2A4F81C71EB
:101E10000FFA8BF009F096FC824638B209F092FC7A
:101E200041460746504609F0E1FC4946834638469C
:101E300009F0DCFC0146584609F0CEFB734909F075
:101E400089FD09F099FE4946A4F81801504609F0A9
:101E5000CDFC41468146384609F0C8FC014648465B
:101E600009F0BCFB694909F075FD09F085FEA4F88D
:101E70001A0131E009F066FC8346B7F9200109F048
:101E800061FC41468246584609F0B0FC494603468B
:101E90005046029309F0AAFC029B0146184609F03D
:101EA0009BFB5A4909F056FD09F066FE4946A7F822
:101EB0001801584609F09AFC41468146504609F0FF
:101EC00095FC0146484609F089FB504909F042FD5E
:101ED00009F052FEA7F81A014D4B1B6998474D4B6C
:101EE0001A78032A13D9B4F9E600B4F9B613002816
:101EF000B8BF40426FF063031B1A994204DB00F144
:101F000064038B42A8BF0B46A4F8B6331DE0012A38
:101F10001BD86B79013B142B00F23C82DFE813F0F5
:101F2000C2003A023A028000D5003A023A026B013E
:101F30003A023A023A023A023A02F1003A023A020C
:101F40003A023A023A02CF01080296F9BEB0B4F959
:101F5000B613CBF1000B01FB0BFBB4F8E830B4F87F
:101F6000B493B4F8B2A32C4F4FF00008904507F19A
:101F70001007CED218B20392029309F0E3FB57F890
:101F8000101C09F033FC84460FFA89F0CDF810C01C
:101F900009F0D8FB57F8081C09F028FCDDF810C040
:101FA0000146604609F01AFB84460FFA8AF0CDF824
:101FB00010C009F0C7FB57F80C1C09F017FCDDF83E
:101FC00010C00146604609F009FB84465846CDF82A
:101FD00010C009F0B7FB57F8041C09F007FCDDF846
:101FE00010C00146604609F0F9FA09F0C5FD0B4939
:101FF000029B21F81800039A08F10108B6E700BF18
:10200000BC06002035FA8E3C100100200000204163
:1020100000000020741E0020FC0500204C1D002044
:1020200096F89E30042013F0020F0CBF4FF0010B06
:102030004FF0FF3B13F0010F0CBF4FF0010A4FF0C0
:10204000FF3A06F0BBF8B4F8B693B4F8B4830BFBD0
:1020500009FB0AFB08FA96F8A6301FFA8BFB13F06F
:10206000020F0CBF01224FF0FF32AC4F584413F067
:10207000010F1FFA8AFA82440CBF01234FF0FF338D
:10208000052002FB09F903FB08F8A7F81CA006F0DD
:1020900095F81FFA89F91FFA88F848448044A7F890
:1020A0001E8077E196F8A630052013F0010FB4F8F2
:1020B000B6330CBF01274FF0FF375F4306F07EF8C1
:1020C000BFB2964B3844D88364E1002006F076F81E
:1020D000B4F9962296F97E304FF0320853438F4F71
:1020E00093FBF8F31844B882012006F067F896F9DC
:1020F0008630B4F99422534393FBF8F84044F882B5
:1021000048E1874B854F5A78994612B9B5F8D430D3
:102110000BE0B4F9E820B5F8D030B5F8D2109A4207
:1021200003DB9142B4BF0B4613467B847A8C7D4B14
:1021300095F824811A80B8F1000F28D0022006F00B
:102140003DF8B6F98830B6F88A20984203DB13B21E
:102150009842B8BF0346B5F81C217349D01AB4F8A9
:10216000B83300B20FFA83FE864501DA984402E0E4
:1021700003DDC8EB0308A1F8B883B4F9B81396F9E6
:102180008E304B43642193FBF1F31A443A8399F860
:102190000A306BB1B4F8E2307B83BB83B4F8E6302D
:1021A000FB83B4F8E4303B84DFF88081032709E047
:1021B000B4F8B2337B83BB83B4F8B633FB83B4F893
:1021C000B433F0E706EBC703B8F9069093F97E3015
:1021D000384609FB03F9642399FBF3F9A8F8069044
:1021E00005F0ECFF01374844072FA8F8060008F176
:1021F0000208E7D1CEE04A4B484F5A78194612B947
:10220000B5F8D4300BE0B4F9E820B5F8D030B5F823
:10221000D2009A4203DB9042B4BF034613467B844C
:102220007A8C404B1A808B7AA3B196F89630B4F82A
:10223000E41013F0010F0CBF01224FF0FF3213F036
:10224000020F02FB01F20CBF01204FF0FF30B4F887
:10225000E23012E096F89630B4F8B41313F0010FA0
:102260000CBF01224FF0FF324A4313F0020FB4F8C3
:10227000B2330CBF01204FF0FF3000FB03227A8302
:1022800096F89E2012F0010F0CBF01204FF0FF3096
:10229000414312F0020F0CBF01224FF0FF3202FB4C
:1022A00003130320BB8305F089FF7B8B18447883DD
:1022B000042005F083FFBB8B1844B8836AE096F8CE
:1022C0009E20B4F8B43312F0010F0CBF4FF0010898
:1022D0004FF0FF3808FB03F8104F1FFA88F804206E
:1022E000A7F81C8005F06AFF96F8A620B4F8B23370
:1022F00012F0010F40440CBF4FF001084FF0FF38BF
:1023000008FB03F8B8831FFA88F80520A7F81E8099
:1023100005F054FF4044F8833CE000BF000000207B
:10232000BC0600204C1D00201001002014000020DD
:10233000B4F8B6A3032706EBC70393F87E30C7F1C2
:10234000060113F0020F0CBF01224FF0FF3202FB17
:102350000AF221F00101214413F0010FB1F8B21388
:102360000CBF4FF001094FF0FF3909FB0129DFF8DD
:1023700098821FFA89F928F81790384605F01EFF51
:10238000484428F817000137072FD4D1B4F8E820C3
:10239000934B1A80AB68980631D5002005F00EFFEC
:1023A000904F8046B882012005F008FF94F8B030C5
:1023B000F882DFF858E213B396F8C030BEF99412F1
:1023C00013F0020F96F986204FF0320396F97E4003
:1023D000BEF996E218D04A4364420EFB04FE92FB1B
:1023E000F3F26FF0310192B29EFBF1F111449EFBCA
:1023F000F3FE88447244A7F814801044F8827A4BA4
:102400007A4A03F1100411E00EFB04F44A4394FBF2
:10241000F3F4A04492FBF3F3A7F814801844EDE71B
:1024200023F8021FA34202F108020CD0B3F9020004
:10243000B2F97810B2F87A708842F1DB39B2814291
:10244000A8BF0146ECE796F8C030590706D4684BA0
:10245000634A93F800C0118801230FE0654B002404
:10246000DE7D043E644BA01903EB4403C0B219891E
:10247000013406F071FA042CF4D1E8E7634508D280
:1024800032F9130009B28842A8BF014689B201336C
:10249000F4E7B5F8D200B5F8D060431A1FFA83F913
:1024A000AB68B5F8D44003F480420992524A03F075
:1024B000100B524BB2F90620B5F8D6705B78B5F820
:1024C0001CA1B5F8D8E0B5F81E510192B2B208933C
:1024D0000697059507921FFA84F84FEA4C0C0023E3
:1024E000634539D00AB282423D4D02DDEA5A4A4480
:1024F000EA52099F3A4AA7B1019D5545D55E07DDCD
:10250000754503DB8542A8BF05461CE075461AE009
:10251000A54204DB069FBD42A8BF3D4613E0254609
:1025200011E0ED5EB54203DB8542A8BF054600E041
:102530003546D552059F019DBD4205DA079DBBF189
:10254000000F18BF4546D552089A1AB92C4A9D5A11
:10255000234A9D520233C3E7264B9B7D002B63D059
:10256000284A5379013B142B52D8DFE803F00B5172
:1025700051215451511951515151512951515151D8
:1025800051212900194B93F8BF301BB1154B002086
:10259000D98B47E0194B58780028F7D1014641E024
:1025A000104C0020618B06F0D7F90120A18B39E097
:1025B0000C4C0020A18B06F0CFF90120E18B31E01B
:1025C000084C0020618B06F0C7F90120A18B06F0B2
:1025D000C3F90220E18B06F0BFF90320218C21E032
:1025E0004C1D00200000002012000020641D00206F
:1025F000741E0020E40500202C070020BC060020EB
:10260000CA040020941900201400002010010020AA
:1026100093689A0608D51B4C0020A18A06F09CF905
:10262000E18A012006F098F905F0ABFD164B1B7806
:102630002BBB164B9B681B0421D504F06FFA1EE0E0
:10264000134B1B78002B3DF434AF08F0FBFAFDF779
:1026500030BF012202E0022200E003225FFA82F989
:10266000002009F1FF33014685F8B03303F00EFD79
:10267000022028214A4605F009FBFDF78FBF15B05F
:10268000BDE8F08F00000020611E0020941900209A
:10269000BC060020AFF30080634B2DE9F04FB3F987
:1026A0000600624B8DB0DA8C90420FDBB0F5FA6F0A
:1026B00093F8254007DA811A4C43A2F5FA6294FB9D
:1026C000F2F4643403E0C4F1640400E06424584A82
:1026D00093F82360B2F81C1192F9EC2093F8705033
:1026E00093F87170524293F8243092B20491002111
:1026F0000692059607930A464B4BDDF810C031F958
:10270000038040F2E636CCEB080303F2F31EB64535
:1027100003D8002BB8BF5B4201E04FF4FA73022AE2
:10272000DFF814C12CD025B1AB42CCBFC5EB0303FD
:1027300000236426DFF804A193FBF6FE6FF0630B21
:102740003AF81E900BFB0E3B0EF1010E3AF91EA05B
:102750000FFA89FECEEB0A0E0EFB0BFE9EFBF6FE79
:10276000CE442CF801E0DDF814C003FB0CFE314B25
:102770009EFBF3F333449BB2634393FBF6F314E005
:1027800027B1BB42CCBFC7EB03030023DDF818E041
:1027900003FB0EF6ACF80460079E002BB8BF5B424B
:1027A0007343244E93FBF6F36433DFF88090DFF835
:1027B00090C002EB090696F801A096F80BB0767D62
:1027C00003FB0AFA03FB0BFB73434FF0640E9AFB07
:1027D000FEFA02F80CA093FBFEF30CF1030A0CF1D5
:1027E000060C02F80C30DDF810C09BFBFEFBE04548
:1027F00002F80AB0104B05DA33F801E0CEF1000E12
:1028000023F801E00132032A01F102017FF474AFE1
:10281000074DB5F81E21904214DBB0F5FA6FA8BF42
:102820004FF4FA600FE000BF2C070020641D002069
:10283000941900200CFEFFFFF2010020400D002043
:102840004E0D00201046801A4FF47A714843C2F5AD
:10285000FA62B0FBF2F24FF0640CB34C92FBFCF165
:1028600004EB4100B0F818E06FF0630000FB0122B8
:1028700004EB4101B1F91A000FFA8EF1411A4A43F3
:1028800092FBFCFCE644A3F806E0A84BA84F5B7A59
:10289000002B44D0A74BB3F90000A74BB3F900308D
:1028A000C01A08F0CDFB9EA3D3E9002308F02EFC4C
:1028B0000022A24B08F054FD08F03AFE80460BF0CF
:1028C000B3FB814640460BF023FC8046B7F902007B
:1028D00008F038FF8246B7F9000008F033FF494698
:1028E000834608F083FF41460646504608F07EFFC7
:1028F0000146304608F070FE09F03EF9494638803E
:10290000504608F073FF41468146584608F06EFF76
:102910000146484608F062FE09F02EF97880D5F8A5
:102920000880DFF848A218F0020F00F08380844B83
:1029300006211A88236B7C4F1A4494F834302263A2
:102940000133DBB2B3FBF1F901FB193919F0FF06D2
:1029500084F8343004965CD17A4E7B4B7078B96B36
:1029600033F810E04FF0080B91FBFBF01FFA8EFEDE
:10297000081A7044B86390FBFBF080B20392019395
:1029800008F0E0FE714908F031FF714908F0E2FFFC
:1029900081469AF80B0108F0D5FE0146484608F03A
:1029A00025FF09F00FF99AF80E11B887039A019BD9
:1029B00079B37079396C33F8100091FBFBF380B276
:1029C000CB1A03443B6493FBFBF39BB240F6E44118
:1029D000594340F6FF70B1FBF0F1BAF808014FF42B
:1029E0007A73091A5943BAF8060191FBF0F14A4388
:1029F00092FBF3F37964D7E91201C01841EBE3715C
:102A0000C7E91201534A002309F0FCF8049E386517
:102A10003E63514AA38F12889A4203D395F80D2141
:102A20009A4203D9002384F8543003E03E4B042239
:102A300083F8542049483C4B417B94F8542001B121
:102A4000012118F4007F83F8551022D0444E454BE5
:102A500096F8B8101B8801EB810618B2B04215DD5C
:102A6000324E76787EB1012684F856603C4E96F858
:102A7000B960314401EB8101884207DD2A49022017
:102A800081F8560002E0022184F856100BB984F850
:102A90005630354E33689B060CD530498B7A0BB9CE
:102AA000CB7A23B1214BDB7A0BB9012300E0002361
:102AB00084F8573094F856101B4B022902D14C2051
:102AC0004E211DE0012904D14D2153204C220B46FB
:102AD00007E093F85710012906D1532001464E22F2
:102AE0004D2306F087FB4EE093F85510012903D1E2
:102AF000532001460246F3E7042A03D153204D2117
:102B00000A460AE0022A03D1532001464D2204E07E
:102B1000012A2DD153204D214E224423E1E700BF4D
:102B2000182D4454FB210940400D0020BC06002014
:102B3000F2010020D401002006020020008066403F
:102B4000BE04002008050020100500203333534048
:102B500000F07F45407E050018050020B8010020E8
:102B6000641D00202C010020400500209419002045
:102B7000B04A107818B1322006F00EFB03E083F85B
:102B8000580005F072FAAC4B1A8812B133689F07EF
:102B900002D4AA4B1B882BB1A94BDA6882F0080239
:102BA000DA600FE0A74B9A7812B1A54A08211161AB
:102BB0005B7813B1A24B08225A61A34B1B780BB16F
:102BC00007F020FAAB68180662D5A04AA04F136838
:102BD000E26D9A1A002A5BDB03F543435033FB6531
:102BE00097F860309BB97A238DF82430994B0222F4
:102BF000B3F900306D20C3F1B40393FBF2F38DF809
:102C00002530FF2109AB06F0D7FC012325E0012B7D
:102C100026D191497923B1F900208DF824300A2377
:102C200092FBF3F25A32B42AA8BFB42222EAE2722B
:102C30008DF82520B1F902206D2092FBF3F35A3371
:102C4000B42BA8BFB42323EAE3738DF82630FF2109
:102C500009AB032206F0B0FC022387F8603017E0CE
:102C6000022B15D164238DF8243001238DF82530F3
:102C7000744B6D205B78FF21002B18BF01238DF86A
:102C80002630032209AB06F097FC002384F860305D
:102C90006E4B1A68636ED31A002B11DB694B597B9C
:102CA00061B99970664BD96881F00801D96002F565
:102CB000F423674A03F59073536601E001229A708A
:102CC0000027D4F87021624B9742DFF8A4A180F26C
:102CD000398703F168014C2000FB07115F4A11603E
:102CE0009AF80010914619B102F0ECFC00F02ABFEE
:102CF00093F8003113B15A4A5A4BDA60D9F80030D0
:102D0000DFF858A1186804F04EFE002800F017877D
:102D1000DAF80030186804F041FEDAF8003093F871
:102D20004920C2B9B0F124014A424A4183F84920FE
:102D3000002AE3D1434B5B78002BDFD1232802D15B
:102D400002F0C0FCDAE795F8B1338342D6D1464AA7
:102D5000464B1A60CFE7012A05D14D2814BF002247
:102D6000022200F0E8BE022A05D13C2814BF00224E
:102D7000032200F0E0BE032A0DD140284FF00002EC
:102D800000F2D98683F847205A7183F848001871F9
:102D9000042200F0D0BE042A07D11A7983F8460035
:102DA00050401871052200F0C6BE052AA6D193F83E
:102DB000481093F847209142197907D94140197179
:102DC000511C83F847101344987197E7814240F0F3
:102DD000AF8693F84630752B00F02C8400F21181F9
:102DE000692B00F0718300F2C280452B00F08186D0
:102DF00040D8422B00F03A860CD8402B00F05C867D
:102E0000412B40F08C86002004F004FE4FF0000AB5
:102E100000F063BE432B00F0FD85442B40F07F861D
:102E2000002004F0F7FD0A4B012283F8002100F096
:102E30007ABE00BF621E00206C1E0020380D0020EC
:102E4000000C0140BC060020480C00206C01002052
:102E5000400D0020D4010020A403002054000020D5
:102E60000400FA0500ED00E0EFBEADDEF04F0020FB
:102E7000611E0020662B00F094826CD8642B00F059
:102E80006182652B40F04B860B2004F0C3FDD84BCC
:102E9000DFF878A3B3F9000004F0BFFDBAF81E0113
:102EA00000B204F0BAFD3368C3F3C000C3F380027C
:102EB000800040EA4200C3F340021043C3F34012D3
:102EC00040EAC20003F01003184304F0A6FDC94A0B
:102ED000002092F804E0D3784FEA8E0E4EEA430EBB
:102EE00053784EEA030E93794EEAC30E53794EEAB5
:102EF000431E537A4EEA831EBF4BD9794EEAC11E58
:102F0000197A4EEA012E597A4EEA412ED1794EEACB
:102F1000812E117A927A4EEAC12E4EEA023E5A7BF7
:102F20009AF81C114EEA423E9A7B4EEA823E1A7C87
:102F30004EEA024E1A794EEA021E5A7C4EEA424E80
:102F40009A7C4EEA824EDA7C1B7D4EEAC24E4EEAF5
:102F5000035E03460EE2672B00F06382682B40F0AD
:102F6000DE85102004F056FD4FF0000AA1E26F2B21
:102F700000F0288324D86C2B00F0D88218D86A2B54
:102F800000F0B2826B2B40F0CA85DFF880A20520EA
:102F900004F040FDBAF9220104F03FFDBAF9240122
:102FA00004F03BFD9AF8060100F0010000F062BC5D
:102FB0006D2B00F0CA826E2B00F0D28200F0AFBD04
:102FC000722B00F0D88311D8702B00F01B83712B6B
:102FD00040F0A585DFF834B24FF0000A9BF81C01E1
:102FE000400000F0FE0004F015FD61E3732B00F0DB
:102FF0000884742B40F093854FF0000A4FF0010BCA
:103000007AE3CE2B00F0888444D8C82B00F094805B
:103010002BD8782B00F015820FD8762B00F0008487
:10302000772B40F07C85DFF8E4A14FF0000B9AF895
:103030001C0104F0EFFC534695E3A02B00F09884AC
:10304000A42B40F06C85DFF8C4A14FF0000B9AF878
:103050002E0180000130C0B204F0DCFC9AF82E0191
:1030600004F0ABFC534600F091BCCB2B61D009D8E7
:10307000C92B75D0CA2B40F05285DFF8A4A10AF104
:103080000A0B90E0CC2B00F0CF80CD2B00F03A84DF
:1030900000F045BDD42B00F0F08116D8D12B00F004
:1030A000EC8307D8CF2B00F0E280D02B00F02184F6
:1030B00000F035BDD22B00F03081D32B40F02F85AE
:1030C00005F04CF84D4B1880CCE0F02B00F0448418
:1030D00010D8D62B00F01481EF2B40F0208505F09E
:1030E0003DF8DFF838A1AAF82C0005F037F8AAF867
:1030F0002A00B7E0FA2B00F01784FE2B40F00F8572
:10310000082004F087FC3E4B3E4A1B684FF0000A43
:10311000B3FBF2F3C3EB431103EB81033A490968B4
:10312000B1FBF2F2394902EBC303A1F82C3100F0F4
:1031300008BC4FF0000A47E04FF0000A05F00EF817
:10314000334B23F80A000AF1020ABAF1100FF5D145
:10315000002004F05FFC2F4B01221A7000F0E3BC4A
:1031600004F0F2FF234BDFF8BCA0D87204F0ECFFB0
:10317000294B187004F0FCFFCAF8000004F0F8FFB7
:10318000CAF8040004F0EAFFDFF880A0AAF8020100
:1031900004F0E4FF9AF80631AAF8040143F00203B0
:1031A0008AF806315EE004F0CFFF0AF1010A8AF8DE
:1031B000010004F0C9FF8AF80B0004F0C5FFDA45EE
:1031C0008AF81500EFD14DE0104B93F81C21924581
:1031D00048D203F207131AF803B004F0BFFF0F4BF5
:1031E0000AF1010A03EB4B03A3F84600ECE700BF2A
:1031F000BE040020BC060020B8010020040200200C
:103200002400002040420F009C000020400D0020C0
:103210002C0700206801002008020020641D002007
:10322000631D00202002002004F08EFFDFF85CA464
:103230008AF81F0004F088FF8AF8200004F084FF59
:103240008AF8230004F080FF8AF8240004F07CFF51
:103250008AF8250004F078FF8AF8210004F074FF52
:103260008AF82200002004F0D5FB00F05CBC04F0DA
:1032700075FF6FF4AF628318DFF8DCA3C62B98BF2D
:10328000AAF81C0104F06AFFAAF8D00004F066FF57
:10329000AAF8D20004F062FFAAF8D40004F05EFF9E
:1032A000DFF8E8B3ABF8BA0004F04EFF8AF82C015F
:1032B00004F04AFF8AF82D0104F046FF8AF82E0137
:1032C00004F042FF8AF80A0104F03EFF8AF8260162
:1032D00004F03AFF04F042FF00EB80004000ABF83E
:1032E000280004F031FF8AF80B0104F02DFF8AF862
:1032F0000D0104F029FF8AF80C0104F025FFB1E765
:103300004FF0000A04F02AFFD14B23F80A000AF11B
:10331000020ABAF1100FF5D1A4E7CE4B5B78002B6F
:10332000A0D104F011FFCC4B022883F8B0034FF07A
:10333000000088BF0022014688BF83F8B02302F056
:10334000A5FE8FE70720DFF810A304F063FBE7205A
:1033500004F033FB9AF8050004F02FFB002004F082
:103360002CFB9AF82401BD4BBD4A00280CBF104627
:103370001846D1E38B420ED2BA4A13F802C001229A
:1033800002FA0CFC1CEA0E0F18BF9A4003F101036D
:1033900018BF1043EEE704F04AFBAF4B93F8B003BD
:1033A00068E2122004F036FBAF4BDFF8E4A21B8882
:1033B000B3F5806F28D94FF0000B3AF90B000823C2
:1033C00090FBF3F00BF1020B04F027FBBBF1060FAF
:1033D000F3D1DFF8C0A2BAF9000004F01EFBBAF97D
:1033E000020004F01AFBBAF90400DFF8ACA204F002
:1033F00014FBBAF9000004F010FBBAF9020004F063
:103400000CFBBAF9040054E3BAF9000004F005FB20
:10341000BAF9020004F001FBBAF9040004F0FDFA65
:10342000D7E7102004F0F6FA4FF0000A8F4B13F89C
:103430000A000AF1010A04F0C0FABAF1100FF5D13E
:1034400071E3382004F0E6FADFF840A20AF1400BFD
:10345000BAF9780004F0E1FABAF97A0004F0DDFA7A
:10346000BAF97C0004F0D9FA0AF1080A9AF8760051
:1034700004F0A3FADA45EBD155E3002004F0CAFAD0
:10348000DFF808A20AF1400B04F068FEAAF8780001
:1034900004F064FEAAF87A0004F060FEAAF87C004A
:1034A00004F052FE0AF1080A8AF87600DA45EBD1F8
:1034B00039E36F4B13F80A000AF1010A04F07DFAB0
:1034C000BAF1100FF5D12EE3102004F0A3FA4FF05B
:1034D000000A684B33F90A000AF1020A04F09DFA67
:1034E000BAF1100FF5D11EE3102004F093FA594BF6
:1034F000DFF8A8A1D87A04F060FA5F4B187804F0DE
:103500005CFADAF8000004F092FADAF80400DFF866
:1035100090A104F08CFABAF9020104F07EFABAF92B
:10352000040104F07AFABAF92001C2E2DFF874A1CA
:10353000062004F06FFABAF9000004F06EFABAF946
:10354000020004F06AFA4D4B07E0062004F062FA2C
:103550004B4B186804F06BFA4A4BB3F90000A8E231
:10356000DFF83CA1072004F055FABAF83C004FF60A
:10357000FF7BFF28A8BFFF20C0B204F01EFADAF8D4
:1035800050005845A8BF584620EAE07000B204F049
:1035900044FA3D4BB3F9000004F03FFA2E4BDAF841
:1035A000440093F80A310028B8BF40422BB10A23E7
:1035B00058435845A8BF584602E05845A8BF58464A
:1035C00000B276E2DFF8C4A0072004F023FA9AF8EC
:1035D0001F0004F0F2F99AF8200004F0EEF99AF8CE
:1035E000230004F0EAF99AF8240004F0E6F99AF8C6
:1035F000250004F0E2F99AF8210004F0DEF99AF8C7
:10360000220037E11E2004F005FADFF89CA00AF141
:103610000A0B0AF1010A9AF8010004F0CEF99AF8AF
:103620000B0004F0CAF99AF8150004F0C6F9DA455F
:10363000EFD178E22F2004F0EDF9DFF870A01AF84E
:10364000010F002800F06F8204F0B7F9F7E700BF20
:10365000CA040020BC060020941900200C0000C001
:10366000040000C0470E00203C0000201400002091
:103670004C1D00202C07002008020020D40100204F
:10368000EC010020DC030020CE010020641D00209E
:1036900084040020B8040020B4020020200200208E
:1036A000400D0020A4030020631D0020CB0801086A
:1036B0009BF81C319A4580F03682C54B1AF80320DE
:1036C000C44B0AF1010A03EB4203B3F9460004F0CC
:1036D000A4F9EDE7824408F10108BF4991F81C0103
:1036E00080450CDBBBF1000F00F01D825FFA8AF011
:1036F00004F090F94FF0000B4FF00008EDE701F2F5
:103700000711B64818F801104FF00C0E0EFB01011E
:10371000496B084604910AF03EFA8446BBF1000F5B
:10372000D8D159466145D6DA049A505C0291CDF859
:103730000CC004F042F90299DDF80CC00131F1E748
:10374000A74AA3495244127A1BF80100904203D1C0
:10375000019304F032F9019B0AF10C0ABAF1FC0F53
:10376000EED10BF1010B93F81C21934580F0DB8126
:103770004FF0000AE4E7DFF894A2162004F04AF9BB
:10378000BAF91C0104F049F9BAF9D00004F045F97E
:10379000DFF840B2BAF9D20004F03FF9BAF9D40028
:1037A00004F03BF9BBF9BA0004F037F99AF82C01A0
:1037B00004F003F99AF82D0104F0FFF89AF82E01AD
:1037C00004F0FBF89AF80A0104F0F7F89AF82601D9
:1037D00004F0F3F8002004F0F0F8BBF928000A2305
:1037E00090FBF3F004F019F99AF80B0104F0E5F8F6
:1037F0009AF80D0104F0E1F89AF80C0104F0DDF8F4
:1038000037E0082004F006F94FF0010A5FFA8AF069
:103810000AF1010A04F0D1F8BAF1090FF6D182E1F8
:1038200004F092FC03461220019304F0F3F8019B8C
:103830000BB96C4A02E0102B05D16B4AD2F800B0EC
:10384000D2F804A002E04FF0000AD346184604F074
:10385000B4F8584604F0EBF8504604F0E8F8634B2F
:10386000186804F0E4F8002004F0D7F8002004F011
:10387000D4F8002004F0A1F855E104F065FC83467B
:1038800004F076FC039004F073FC019004F070FCEB
:10389000824604F063FC04F061FC04F055FC039ADA
:1038A000019BBBF1000F0FD14E4981E80C00504B3A
:1038B000012283F807B01A73BAF1000F3FF4D2ACBB
:1038C0004A4BC3F800A0CDE4BBF1100F7FF4CAACA3
:1038D000454981E80C00BAF1000F02D0434BC3F810
:1038E00000A04148434B0222011D1A7000F0D4FE93
:1038F000B8E43F4B5B78002B7FF4B4AC012006F0BA
:1039000037FFAFE43A4B5B78002B7FF4ABAC3A491E
:103910004FF4C8730B80A5E4354B5A78002A7FF426
:10392000A1AC01229A739DE4314B93F801A0BAF146
:10393000000F40F0F4805046012102F0A7FB5046F2
:1039400091E42E4B33F90A000AF1020A04F065F8FB
:10395000BAF1080FF5D1E6E0DFF878A0042004F012
:1039600059F8BAF92C0004F058F8BAF92A00A0E086
:103970000C2004F04FF8224B186804F058F8214B43
:10398000186804F054F8204B1868C5E093F82E210D
:10399000934580F0C880DFF878A01AF80B000193F7
:1039A00004F00BF80AF1100212F80B0004F005F80D
:1039B0000AF1200212F80B000AF1300A03F0FDFFB1
:1039C0001AF80B0003F0F9FF0BF1010B019BDDE787
:1039D000470E0020641D0020400D0020CC08010887
:1039E000FC0801080C02002018020020E801002059
:1039F000BC060020140200206C1E0020660E002071
:103A0000E8F7FF1FECF7FF1FF0F7FF1F94190020E6
:103A10006F0E0020002003F0FDFF04F095FBDFF89F
:103A200058A10023CAF808308AF8050004F0A0FB6A
:103A3000DAF808301843CAF8080004F085FB8AF861
:103A4000170104F08BFBAAF8E60004F087FBAAF844
:103A5000E80004F083FBAAF8EA0004F07FFBAAF870
:103A6000060104F07BFBAAF808015CE0DFF808A17E
:103A7000102003F0CFFF9AF8050003F09EFFDAF85C
:103A8000080003F0D4FF9AF8170103F096FFBAF983
:103A9000E60003F0C2FFBAF9E80003F0BEFFBAF98E
:103AA000EA0003F0BAFFBAF9060103F0B6FFBAF96B
:103AB000080103F0B2FF36E0082003F0ABFF4FF03F
:103AC000000A2D4B534493F80F010AF1010A03F049
:103AD00074FFBAF1080FF4D125E004F035FB264B52
:103AE00053440AF1010ABAF1080F83F80F01F4D127
:103AF00019E0132003F08EFF4FF0000A1F4B13F85C
:103B00000A000AF1010A03F058FFBAF10B0FF5D1D0
:103B1000002003F08CFF002003F089FF03E0012068
:103B2000002103F059FFD9F80030187903F045FF60
:103B3000D9F80030002283F84920FFF7DFB80137B9
:103B4000FFF7BFB89AF8003023B133689B0600F145
:103B50009E82B3E2AA68084B1705F6D5084A127888
:103B6000002AF2D093F83B21AAB993F83C315BB913
:103B7000044B5B780AE000BF941900208E190108FD
:103B8000480C0020BC060020D24A137D003318BF29
:103B90000123002BD9D095F83A31002B40F08281D7
:103BA000CD4BD86803F0FFFE002840F07B81CB4F5F
:103BB000D4F874113A68CA4B511A7C29B84640F2BD
:103BC0007181C3F8742193F878210746013283F894
:103BD000782107F12400C0B203F0D8FFC14B33F9BC
:103BE000170007F0AFFDC04B8246188807F0AAFD0A
:103BF0000146504607F0AEFEBC4907F0F7FD07F05E
:103C0000BBFF013700B203F0EDFF032FE1D13020FD
:103C100003F0BCFFB64BB3F9000003F0E3FF03F081
:103C2000C3FF94F8780110F0030B2CD1DFF8D0A279
:103C3000102003F0ABFFDAF80030642793FBF7F0B5
:103C400000B203F0CFFF212003F0A0FFDAF800302C
:103C500093FBF7F007FB103787EAE770A0EBE770FC
:103C600000B203F0BFFF142003F090FFA14BB3F9A3
:103C7000000003F0B7FF1C2003F088FF584603F054
:103C8000B1FF03F091FF94F87831954F580740F059
:103C9000E380022003F07AFFB7F97A014FF00A0AB5
:103CA00090FBFAF003F09EFFAB68990760D5BB8FDD
:103CB0004FF06E0B0BFB03FB15239BFBF3FB3A2032
:103CC00003F064FF1FFA8BFB6422BBFBF2F90FFACF
:103CD00089F0039203F086FF3B2003F057FF039A1D
:103CE00002FB19B080B20530DFF818B290FBFAF091
:103CF00000B203F077FF9BF80030BA8F40F6340132
:103D000092FBF3F24A432A21B2FBF1F2B7F87C119D
:103D100091FBF3F003FB10131B019BB243EA022358
:103D20009BB2C2F3032243EA0209062003F02EFFEE
:103D30000FFA89F003F056FFB7F87C219BF80030AA
:103D4000013292B292FBF3F103FB11232820A7F872
:103D50007C3103F01BFF786C90FBFAF000B203F0AB
:103D600041FF042003F012FFB7F9500003F03AFFBF
:103D700033689A066ED5DFF890A15F4FDAF800300D
:103D80003C2183EAE37CACEBE37C5C4B13209CFBA3
:103D9000F3F207FB02CC01FB0CF9029199FBF3FB58
:103DA0000193039203F0F2FE039A02EB820202EB0C
:103DB00082020BEB820007FB0B9B00B203F012FFA9
:103DC0004FF47A791B2003F0E1FE9BFBF9F000B27F
:103DD00003F008FF232003F0D9FEDAF80020002AC0
:103DE000ACBF4E20532003F0FDFEDAF80420019B07
:103DF00082EAE27BABEBE27B9BFBF3F207FB02BBCD
:103E00000299122001FB0BF1039291FBF3FB02914B
:103E100003F0BCFE039A02EB820202EB82020BEB80
:103E2000820000B203F0DEFE1A2003F0AFFE02991A
:103E300007FB0B1191FBF9F000B203F0D3FE222037
:103E400003F0A4FEDAF80430002BACBF4520572065
:103E500003F0C8FE03F0A8FE94F87831282B21D196
:103E60001F4B0022D8F8007083F878214FF47A7342
:103E7000B7FBF3FA17203C2703F088FEBAFBF7F9EB
:103E8000B9FBF7F007FB1090000200B203F0AAFEA6
:103E9000182003F07BFE07FB19A000B203F0A2FE7E
:103EA00003F082FE95F83A31012B7FF44EAE0A4DB5
:103EB000E86803F078FD00283FF447AEE86803F0B7
:103EC0006DFD0746052004F0FCF88A2F4BD08E2F9D
:103ED000EDD11BE0B8010020E4050020901900207E
:103EE000400D0020840400203C00002000007A44A3
:103EF000DC030020D4010020806967FF80969800D1
:103F0000BC030020380000202002002000212E22C7
:103F10006E4809F01EFE7C2384F8AA31E02384F861
:103F2000AD317D2384F8D631A38F84F8AB71DAB23A
:103F30001B0A84F8C93184F8BF31142384F8C231D4
:103F400084F8C3314FF4FA73A4F8C4314823A4F8B9
:103F5000CC31782384F8C82184F8BE2184F8CE318E
:103F60005A482E2190E033689B06A0D5584D002179
:103F700005F5BF702C2209F0ECFD7C2384F87E311E
:103F8000A02384F881317D2384F8A931514B84F832
:103F90007F711B7884F898314F4BDB7A002B6ED001
:103FA0004E494F4A0F68DFF850C197FBF2F0662385
:103FB000C0B285F8A731FB0F0CFB00774FF0060E5F
:103FC0000EFB07F785F8873142F21073B7FBF3F960
:103FD00000EB800003FB197749685FFA89F900EB71
:103FE000800009EB800080B291FBF2F2D2B285F83A
:103FF0008801000A85F88901C80F0CFB02110EFB2D
:1040000001F185F88C0102EB8202B1FBF3F003FBB6
:10401000101302EB8202C0B200EB820292B285F86A
:104020008D21120A85F88E2185F88F31B5F804218B
:104030001B0A85F890316423B2FBF3F303EBC3034F
:104040009B009BB285F885311B0A85F88631B5F84F
:10405000223185F88A7185F891311B0A85F89231F1
:10406000B5F802313F0A85F893311B0A85F894317F
:10407000B5F8243185F88B7185F89A3102E0202358
:1040800085F8A73117482C2100F094FC0FE7164E55
:10409000D4F8D82133689A1A002A0FDB0D4A127817
:1040A000042A0BD90A4A03F5123303F5F873C2F850
:1040B000D8310E4BDA6882F01002DA600C4B9B6844
:1040C0000BB10C4898470DB0BDE8F08FEA0E002008
:1040D000400D002008020020BC0600202002002025
:1040E000A0860100BE0E00206C010020000C0140E3
:1040F00044050020BA0E00206079FEFFAFF3008077
:104100001FB50123ADF80830ADF80410002301A954
:10411000ADF80A30ADF80C30ADF8062001F00CFD1A
:1041200005B05DF804FB2B4B10B54FF4127404FB83
:1041300000342379DB074CD594F838320BB3236B6A
:1041400000221868828494F83C2222B1B4F84422F8
:104150000132A4F8442294F84222197B002A14BFA9
:1041600002220022FFF7CCFF012384F83B32002318
:1041700084F8393284F83A3284F83832A4F840327C
:1041800010BD94F83B322046012B04BF94F839321D
:1041900084F83A3204F04CFA94F83B12236B94F80A
:1041A000422249B9012184F83B12002A1868197B80
:1041B00014BF0222002208E0002184F83B128A4248
:1041C0001868197B0CBF02220022BDE81040FFF7DF
:1041D00097BF10BDB0070020454B10B54FF41274C7
:1041E00004FB003494F83C22C2B9A36A616A994284
:1041F00029D0591CA069A162C05C2369C0B2994250
:104200004FEA400343F40073A4F83E324FF00A0330
:1042100084F83D3228BFA262012312E094F93D32B6
:104220007BB1B4F83E1220464B08A4F83E3201F0B0
:10423000010104F012FA94F83D32013B84F83D325A
:1042400001E084F83C3294F83832002B4ED194F8D7
:1042500039320133DBB2092B84F8393204D12046DC
:10426000BDE8104004F0E4B90A2B3FD194F83B328A
:104270002BB9B4F8403243F00103A4F8403223795B
:10428000D8071AD5B4F8403203F4007292B20AB9D2
:10429000D90705D4B4F846320133A4F846320CE00D
:1042A000216A6069C3F347034354E168236A013913
:1042B0008B4236BF013322622362012284F8382206
:1042C00094F83B220023012A84F839320ED194F865
:1042D000422284F83B32236B002A1868197B0CBFFA
:1042E00002220022BDE81040FFF70ABF10BD00BF48
:1042F000B0070020426A10B58469A154416A02697E
:104300000131B1FBF2F402FB14124262426B32B192
:104310001368DB0708D4BDE8104004F0FDBF836CD0
:10432000DA6842F08002DA6010BD0FB407B50B49BD
:1043300004AB08680A4953F8042B0968019301F09B
:10434000CFFD084B186803681B6998470028F8D010
:1043500003B05DF804EB04B0704700BFF804002020
:10436000F4040020E405002037B5037904460D4627
:10437000052B34D8DFE803F003060A0D1114836817
:1043800019782DE0836893F9001029E08368198873
:1043900026E08368B3F9001022E0836819681FE003
:1043A00083686946186801F00DFF01461248FFF75F
:1043B000BCFFF5B1E06807F0C5F9694601F002FFFE
:1043C00001460E48FFF7B1FF206907F0BBF96946C7
:1043D00001F0F8FE01460948FFF7A7FF09E00021B8
:1043E0000748FFF7A2FF25B10648E1682269FFF7F9
:1043F0009CFF03B030BD00BF72220108712201088A
:104400004D1A0108491A01082DE9F04389B0044604
:1044100009F0C1FBC6B2002E6CD18B4803F01EFB25
:104420008A4C2069002107F075FB40BB01368848A3
:104430003146FFF77AFF206904A901F0C3FE014667
:104440008448FFF772FF606904A901F0BBFE0146D2
:104450008048FFF76AFFA06904A901F0B3FE014696
:104460007C48FFF762FFE06904A901F0ABFE01465A
:104470007948FFF75AFF0C2E04F11004D1D1002522
:10448000764C2F462B464FF00008B04504F110043F
:1044900015DA184654F8101C07F0A0F854F80C1C54
:1044A0008146284607F09AF854F8081C0546384615
:1044B00007F094F808F101084B460746E5E768481D
:1044C00001930295039703F0C9FA002401ABE05869
:1044D000644920F0004007F045FB634B634A043415
:1044E000002814BF1046184603F0B8FA0C2CEDD182
:1044F0005F4891E020465F49052209F055FB38B935
:10450000524B002203441030C0281A61F8D197E0C2
:1045100020465949042209F047FB06462046002E52
:1045200040D1202109F02AFB002800F08980451C99
:10453000284609F030FB34468046504B53F824603F
:104540000EB94F4868E0284631465FFA88F209F014
:104550002BFB671C20BB3D4B0021C2181030C0282C
:1045600011619C46F7D1474B002403EBC702D2F8F8
:1045700004E09846BEF1000F04D143483146FFF7EE
:10458000D4FE55E018F837309C42F6DA23010CEBE4
:104590000305103573440FCB013485E80F00F1E7B4
:1045A0003C46CAE709F0A6FB461E0B2E074643DC35
:1045B0002046202109F0E2FA054640B1451C284674
:1045C00003F08CFF214B3F01D851012400E0044649
:1045D0002846202109F0D2FA054640B1451C28465C
:1045E00003F07CFF194B013403EB06135861284696
:1045F000202109F0C3FA054640B1451C284603F0C6
:104600006DFF124B013403EB0613986128462021FD
:1046100009F0B4FA18B91D4803F020FA10E001308F
:1046200003F05CFF094B032C03EB0616F061F2D19B
:104630001748FFF7E9FE03E016480C21FFF775FE67
:1046400009B0BDE8F08300BF581A01089419002092
:10465000831A0108891A0108FF210108A8190020FE
:104660008D1A01080AD7233C541A0108501A010870
:10467000A92401089C1A0108A21A0108840D010846
:10468000A71A010858020108BF1A0108D21A010826
:10469000A51B01080C1B0108F7B50368174C184D42
:1046A00023600B68174E6360006804F029F895E8F2
:1046B0000300154B0196009394E80C0003F0DDFF16
:1046C0003668124B60681E606B68114FC01A07F0A5
:1046D00039F8104B196807F089F807F04DFA22688D
:1046E0002B687860D31A3B600B4B1E600B4BB3F802
:1046F000C8200B4B1A8003B0F0BD00BF641100202E
:1047000020020020701100206C110020AC1100204C
:10471000741100205C000020A4110020641D002002
:10472000A01100202DE9F04F9F4F05017C598E46C6
:1047300085B007EB050B11462046904672469A4617
:1047400001F0A6F9DBF808200BF10803ADF80C2006
:1047500018228DF80E2003A90222DBF804008DF840
:104760000F20019303F0B7FC019B904E1A7906EBE2
:10477000050939460C2A00F2ED80DFE812F00D0041
:10478000EB00EB00EB004E00EB00EB00EB008400D5
:10479000EB00EB00EB00B900238CDFF814C223F030
:1047A00001031B041B0C2384278CA088238B6445E6
:1047B00023F073034FEA03434FEA1343BFB280B2BF
:1047C00043F0700314D00CF5006C644510D00CF568
:1047D000406C64450CD00CF5806C644508D00CF539
:1047E000806C644504D027F0020747F0030707E018
:1047F00027F00E0720F4407047F0030740F4807064
:10480000A0802383A4F834A02784238B23F00803FB
:104810001B041B0C43F0080333E0238CDFF890C12A
:1048200023F010031B041B0C2384278CA088238BEC
:10483000644523F4E6434FEA03434FEA1343BFB210
:1048400080B243F4E04308D00CF5006C644504D01A
:1048500027F0200747F0300707E027F0E00720F4B3
:10486000406047F0300740F48060A0802383A4F8C4
:1048700038A02784238B23F400631B041B0C43F410
:104880000063238366E0238CDFF824C123F4807364
:104890001B041B0C2384278CA088A38B644523F066
:1048A00073034FEA03434FEA1343BFB280B243F0AE
:1048B000700308D00CF5006C644504D027F4007731
:1048C00047F4407707E027F4606720F4405047F44E
:1048D000407740F48050A080A383A4F83CA02784B4
:1048E000A38B23F008031B041B0C43F0080330E0E8
:1048F000278C2F4827F480573F043F0C2784278CB0
:10490000A388B4F81CC027F400572CF4E64C4FEAF7
:104910000C4C3F044FEA1C4C3F0C84429BB24CF4BD
:10492000E04C47F4405703D000F50060844203D1C7
:1049300023F4804343F48043A380A4F81CC0A4F86C
:1049400040A02784A38B23F400631B041B0C43F4B7
:104950000063A38329448B7B43B1B4F844306FEAEE
:1049600043436FEA53439BB2A4F8443023889BB27D
:1049700043F0010323800C2A10D8DFE802F0070F70
:104980000F0F090F0F0F0B0F0F0F0D00343404E042
:10499000383402E03C3400E0403474514846A9F811
:1049A000048005B0BDE8F08FD4170108200F002067
:1049B000002C01402DE9F041144C07460E46E068FA
:1049C000022102F0E1FF00231D4603F10108721EDF
:1049D000DBB293420BDAF95CE0680D4402F0E8FFC9
:1049E0004FF47A7003F062FBADB24346EDE7E9B2F3
:1049F000E06802F0DDFF4FF47A7003F057FBE068E7
:104A00000121BDE8F04102F0BFBF00BFE405002076
:104A100030B50E4B9B8912F1FF3214D311B10C78D3
:104A2000013100E0FF24094B1D89AD07FBD59C81B6
:104A30001C89E407FCD5054B9B899BB20028EAD072
:104A400003700130E7E7012030BD00BF00380040AF
:104A50007FB51C4C4FF4805506466561C32003F0BA
:104A600067FF684600210622FFF7D2FF25619DF807
:104A700001309DF800209DF8021043EA022212B294
:104A8000042392FBF3F2ADF808209DF8032002A85E
:104A900042EA012212B292FBF3F29DF80410ADF843
:104AA0000A209DF8052042EA012212B292FBF3F39C
:104AB000ADF80C30044B31461A7802F055FE04B0C4
:104AC00070BD00BF000C0140580000200000000035
:104AD0002DE9F04F9B4B95B093F82C31C4B2012BCC
:104AE00000F0E78002D3022B40F0C885242C964DBD
:104AF0000CD006D80A2C00F08C800D2C00F0898098
:104B0000C3E02A2C07D02C2C05D0BEE000232B704C
:104B10006B70AB70CAE06A782E782A4400218A4B09
:104B2000D170EEB9DA789E74472A19D11A79502AD1
:104B300016D15A79472A07D19A79472A04D1DA79C6
:104B4000412A01D101229A746A797F4B522A07D1F6
:104B50009A794D2A04D1DA79432A04BF02229A7441
:104B6000AB7C794F012B02D0022B33D046E0B31E31
:104B7000072B43D8DFE803F0040810141C24422953
:104B800001F058F9686139E0EA786F4B532A35D162
:104B90005A6952425A6131E001F04CF9A8612DE0A6
:104BA000EA78694B572A29D19A6952429A6125E0DD
:104BB000EA78664B302A94BF00220122DA721DE0A7
:104BC000002001F017F9287718E0002001F012F911
:104BD000E88313E0072E06D0082E0FD1012001F044
:104BE00009F978840AE0012001F004F941F2184340
:104BF00058434FF47A72B0FBF2F33B840136002342
:104C00002A2C514A2E706B704BD1012182F824104E
:104C10004CE095F82430002B33D04B4BDB78402B05
:104C200004D9A3F137021201D2B202E01B0103F052
:104C3000F0022B79A978402B8CBF373B303BDBB29D
:104C40001344DBB29942404A1AD1937C012B08D01D
:104C5000022B15D1118C3E4B528C19803D4B1A8082
:104C60000EE03A49C97A61B13B49506908609069E0
:104C70004860107F39490870D18B394A118000E0B3
:104C80000023002285F8242010E06B782E4A0E2B9A
:104C900003D8591C13445170DC7095F824302A4A0B
:104CA0001BB991784C40947000E0002303F001039D
:104CB0002FE1254B002193F82520082A00F22881B6
:104CC000DFE802F00B05141E2F506E8A9700622C4D
:104CD00001D1022207E083F82510B52C40F018819D
:104CE00093F82520013283F8252011E1032283F86F
:104CF000252083F8264083F8274083F8284007E1E1
:104D0000042283F8252093F8272093F828102244C2
:104D1000D2B283F827200A4483F8282083F8294058
:104D2000F6E0052283F8252093F8272093F8281031
:104D30002244D2B283F827200A4483F828205C85D5
:104D4000E6E000BF9419002000100020BC060020FF
:104D5000440E0020600E00202002002008020020E7
:104D6000420E0020062183F8251093F8271093F8AF
:104D700028002144C9B283F82710014483F8281081
:104D8000598DB04A01EB0424A4B2B4F5007F89BF69
:104D900000215485518582F8251000229A85B7E0BC
:104DA00093F8272093F828102244D2B283F82720C2
:104DB0000A4483F828209A8DC72A03D8A1491144B0
:104DC00081F83040013292B29A855B8D934240F077
:104DD0009F8007229B4B86E7082283F8252093F8C3
:104DE0002730A34200F09480964A002382F82530B1
:104DF0008FE083F8251093F82810924AA14240F0E2
:104E0000878092F8291006293BD004D8022911D0B6
:104E1000032923D07CE0122949D0302978D192F897
:104E20003410894A102988BF1021117010788749E1
:104E300000224AE08649506B4860906B0860116C14
:104E40004FF47A7091FBF0F182480180824992F828
:104E5000F800C872012182F8F9104BE092F8351081
:104E600011F0010105D092F83420D01E4242424197
:104E700000E00A4683F8F820002A3BD17649CA723E
:104E800038E092F83B1011F0010105D092F83A2079
:104E9000D11E4A424A4100E00A4683F8F8200AB986
:104EA0006D49CA7293F85F106C4A117022E0516C20
:104EB0006B480180916C42F2107091FBF0F16948EF
:104EC0000180012182F8FA1014E0824201F10C0104
:104ED00010DA11F8045C644C155511F8035C634C4E
:104EE000155511F8015C624C15550D78614C15553E
:104EF0000132EAE793F8F930524A4BB192F8FA30AE
:104F000033B1002382F8F93082F8FA30012300E04F
:104F10000023002B00F0B283574B9A68DA60574A9F
:104F2000116890469960564B196841F0200119604C
:104F3000544B197801290CBF002201221A70464BEC
:104F4000DA7A002A00F09A83444A1278042A40F25E
:104F500095835A7802B91A731B7B13B90AB103F00F
:104F6000EDFB384C4FF0050E94F8FB3004F1FA06D7
:104F7000013393FBFEFE0EEB8E0ECEEB030E424B87
:104F800084F8FBE01B780396049304F5807303EB2D
:104F90008E0E00232E493D4A5D583D4E9D5095FB97
:104FA000F6F002F1080698513A4E5F1806FB0055DC
:104FB00042F2107C95FBFCFC0597039F1FFA8CFCCA
:104FC00002F1100A27F802CF03EB830B53F80A60B3
:104FD00003975EF80B704EF80B50C7EB060909EB10
:104FE0000506052543F80A6096FBF5F6284D1832AC
:104FF00005FB0060049E9850012E0F4606D1ACF1CF
:10500000020CBCF5797F9CBF059A10600433082B15
:10501000C0D10C4DD8F80000D5F84831C01A06F0C0
:105020008DFB1D4906F096FCD8F800304FF07E51FC
:10503000C5F84831064606F077FD78BB4FF07E5044
:105040002DE000BF001000206E0E00203010002068
:1050500020020020420E0020BC0600200802002092
:10506000440E0020600E00206F0E00207F0E0020F6
:105070008F0E00209F0E002078070020901900203E
:1050800040050020460E00201402002028110020B8
:1050900080969800806967FF00007A44304610AA25
:1050A000C5F84C01B44B009211AA019297E8030095
:1050B0000CCB03F0E2FA109A64231198AF4992FBEB
:1050C000F3F20A8090FBF3F3AD4AAE481380037B02
:1050D00081460BB90B80138095F85031AA4E002BF6
:1050E0003AD0D6F84C114FF07E5006F033FCD6F88B
:1050F000543180463868C01A06F024FB414606F059
:1051000075FB06F039FDD6F858211FFA80FA786849
:105110000FFA8AFA801A06F015FB9C4B196806F004
:1051200065FB414606F062FB06F026FDB6F95E31EE
:1051300000B2C218B6F95C310221534492FBF1F27D
:1051400093FBF1F392B29BB2A6F86221A6F860310C
:10515000A6F85E21A6F85C31012385F85031796804
:10516000386899F80830C5F85811C5F8540123B9C2
:10517000844BDB79002B00F08182834E06F5B673F9
:10518000009306F5B8730193D4F86421D4F868311C
:1051900003F073FA7B68D4F86801C01A06F0D2FAFB
:1051A0007A4B196806F022FB06F0E6FCD4F864316D
:1051B0003A68C4F878019B1AC4F87431744B93F9B7
:1051C0000030012B03D0022B00F0F48056E2D6F819
:1051D0007C51D6F898410395D6F88C71D6F8905149
:1051E00004F100400695049706F0C6FC814620466F
:1051F00006F0C2FCD6F84C81D6F894610790404680
:10520000059605F02FFF634B044693F8C4000D4646
:1052100006F094FA05F026FF55A3D3E9002305F024
:1052200075FF02460B4600205B4906F099F82B46B5
:10523000224605F0B9FD02460B462046294606F0F7
:105240008FF8CDE90801554E0025554C54F81570DE
:10525000A4F11403384635F803A006F073FA039955
:1052600006F0C4FA06F088FCCAEB000080B22834CD
:10527000285304B2204606F065FA049906F0B6FAFF
:1052800006F07AFC1FFA80FBE01906F05BFA06993B
:1052900006F0ACFA414606F0A9FA316806F09EF92C
:1052A00006F06AFC484504DB079A9042A8BF104606
:1052B00000E0484606F046FA306006F05DFCB4684F
:1052C00058441FFA80FB204605F0CCFECDE90A01C8
:1052D00070680AF1310A381A06F034FA414606F0CD
:1052E00039FB214606F078F905F0BCFE02460B4674
:1052F000DDE9080105F00AFF02460B46DDE90A0177
:1053000005F052FD06F014F91FFA8AFABAF1620F9D
:10531000014630617760B0600ED9059806F066FAF4
:1053200006F02AFC1F4BB0F5FA6FA8BF4FF4FA60E5
:105330009842B8BF184600E00020834440F6B833D6
:105340000FFA8BFB9B45A8BF9B46174B0A229B4538
:10535000B8BF9B466A43154B56F8141B25F803B09B
:10536000134B0235042DD15000F088816DE700BF4A
:10537000182D4454FB2119400C020020620E00201D
:10538000640E0020BC060020001000205C000020FD
:1053900014020020641D00200000F03F5C02002089
:1053A0007411002030F8FFFF48F4FFFF30020020A6
:1053B00084020020B64AD6F86CA1B2F9CA909AFBD2
:1053C000F3F39945A8BF9946B6F8A0411FFA89F9A9
:1053D0000FFA89F223B29A420BDDAE49D6F84C019E
:1053E00006F004FA06F0C8FB20441FFA80F9A6F87C
:1053F000A091D5F87041D5F8A461A61B304603F002
:10540000C1F90028D8BF404241F293139842CCBF63
:105410000020012078B3304606F094F99E4906F04A
:10542000E5F908F075FE0646504606F08BF9014690
:10543000304606F0DBF906F09FFB80B240F6B8324A
:1054400003B29342A8BF1346944AA5F8A801934219
:10545000ACBFE318A31848F6A042934203DDA3F5BE
:105460000C43A03B04E0002BBCBF03F50C43A0336E
:10547000C5F8AC3101E0C5F8AC41D5F8AC61C6F572
:105480000C502830039606F05DF9834906F0AEF91A
:10549000044608F0C9FD1390204608F039FED5F8FF
:1054A000BC41D5F8B071D5F8B461129004F1004058
:1054B0000597089606F060FB0490204606F05CFB1A
:1054C000D5F84CB1D5F8B8510A905846079505F073
:1054D000C9FD6F4B044693F8C4000D4606F02EF943
:1054E00005F0C0FD68A3D3E9002305F00FFE0246D6
:1054F0000B4600206A4905F033FF22462B4605F093
:1055000053FC02460B462046294605F029FFCDE90B
:105510000C01644E00270FFA89F006F013F912AB64
:1055200053F8171006F062F95F4C0546E05F06F08D
:1055300009F90146284606F04FF806F01DFB5B4BC3
:105540000FFA80F8B8F57A7FA8BF4FF47A789845BB
:10555000B8BF98461FFA88F03C34385300B206F0C2
:10556000F1F80599044606F041F906F005FB80B212
:1055700006900899204606F039F9594606F036F9A2
:10558000316806F02BF806F0F7FA049DA84204DB18
:105590000A9DA842A8BF284600E0049806F0D2F869
:1055A000B46805463060204605F05CFDCDE90E018B
:1055B00070681436C0EB080006F0C4F8594606F0CF
:1055C000C9F9214606F008F805F04CFD02460B46E5
:1055D000DDE90C0105F09AFD02460B46DDE90E01FE
:1055E00005F0E2FB05F0A4FF46F8108C014646F8F2
:1055F000040C46F80C0C079806F0F8F806F0BCFA14
:10560000069C0444284606F0B7FA204440F6B83316
:1056100000B29842A8BF1846204B0A229842B8BF51
:1056200018467A43224BF852224B0237042FD550AA
:105630007FF471AF164B93F8C6202AB1039E642104
:105640001D4A96FBF1F11180B3F8C2301B4C9A450C
:105650000DDDD4F8A431D4F87001C01A03F092F82B
:1056600042F210730028B8BF4042984206DD144B46
:1056700001221A70B4F8C0210F4B1A8015B0BDE892
:10568000F08F00BFAFF30080182D4454FB21194068
:10569000641D00200000C842D302373948F4FFFFE0
:1056A0000000F03F840200206011002018FCFFFF82
:1056B000300200205C0200200402002000100020C4
:1056C000140200202DE9F047714B86B01A789946F4
:1056D00042B901236F4889F8003002F0BFF96E48E3
:1056E00002F0BCF96D4D286802F05DF9AA46002869
:1056F00000F0CB80286802F051F909280146684C77
:1057000001D03F2859D14FF00008D4F8C461654F4B
:1057100045462EB164483968324608F045FA10B95A
:10572000B84605B93D46614B0C379F42F1D305B3EE
:10573000D5F800E0D8F800C0D4F8C43158481EF8B5
:1057400003701CF80310B94213D15A1C59B92D2B00
:1057500009D8C0F8C42103442027024483F8C87143
:1057600082F8C81105E0234483F8C871C4F8C42145
:10577000E2E7D4F8C4310BB1454512D04C4802F0F1
:105780006DF9454509D855F80C0B02F067F9DAF8C0
:105790000000092102F00CF9F3E73F4802F05EF93E
:1057A0000026D4F8C4319E429CD23F4BDAF8000068
:1057B000995D02F0FDF80136F3E7D4F8C43133B94E
:1057C00004283BD104F5E47001F08CF95DE00C286D
:1057D00001D1384881E70A2901D00D294AD136483C
:1057E00002F03CF9D4F8C4312F4EE218002382F8BD
:1057F000C8310493314B03A800932A4910220C238B
:10580000039608F07BFA054638B1006808F0C3F942
:105810000130AB683044984702E0294802F01EF995
:1058200021480021302208F094F90023C4F8C43143
:1058300099F80030002B7FF452AF26E00C28C8D036
:105840007F2903D14EE72F2B3FF64CAFA1F1200269
:10585000D2B25E2A3FF646AF13B920293FF442AFD9
:105860005A1CC4F8C42128681C4484F8C81102F0EA
:105870009FF837E77F29E6D1013BC4F8C431002205
:10588000234483F8C8210F482AE706B0BDE8F08713
:10589000611E0020341B01086C1B0108E405002078
:1058A00000100020740C0108C8110020340D0108FC
:1058B000711B0108761B0108A9240108518000080A
:1058C000811B0108A21B010873B51D4D4FF48056C2
:1058D00004466E61F52003F02BF80DF1070000215E
:1058E0000122FFF795F82E619DF80730702B24D127
:1058F000144B154ABB2C1A60144A5A60144B154AB3
:105900001A60154A5A60154ADA60154B02D901200F
:10591000187113E0612C01D902220BE0292C01D966
:10592000032207E0132C01D9042203E0092C8CBFC9
:10593000052206221A71012000E0002002B070BD8D
:10594000000C014058050020DD7D0008259A000864
:1059500044050020318E0008514A00081844923155
:105960005C000020AFF3008070B5064C4FF480550A
:105970000E46656102F0DCFF304602F0D9FF25617A
:1059800070BD00BF000C014070B50468294D037B59
:10599000AC420DD0B4F1804F0CD0A5F59435AC429B
:1059A0000AD005F58065AC4214BF0424032404E04A
:1059B000002402E0012400E0022433B1042B31D0A2
:1059C000082B31D00C2B0BD130E01D46042C07D016
:1059D000194E05EB840406EB0414A26023712173B5
:1059E000027B03680C2A23D8DFE802F00722222278
:1059F0000C2222221122222216009A8992B242F00F
:105A000002020DE09A8992B242F0040208E09A89FB
:105A100092B242F0080203E09A8992B242F0100278
:105A20009A8170BD0125D1E70225CFE70325CDE797
:105A300070BD00BF002C0140F8110020134B02681C
:105A400010B51C68D1430C401C605C682140596053
:105A500019680A431A6002689C68D1430C409C6034
:105A6000DC682140D9604179102906D19968114339
:105A70009960D9680A43DA6010BD01F1804303F5EB
:105A8000823319680A431A6010BD00BF0004014048
:105A9000254B10B55343254A254C12680139B2FBFA
:105AA000F3F20388013AA04289B292B29BB212D0BB
:105AB00004F50064A0420ED0B0F1804F0BD0A4F5E5
:105AC0009834A04207D004F58064A04203D004F5C6
:105AD0008064A04202D123F070039BB2154CA04217
