:020000040800F2
:1000000000500020D5DE000881DF00087DAE00082A
:1000100081DF000881DF000881DF000800000000A8
:1000200000000000000000000000000081DF000868
:1000300081DF00080000000081DF000859AE0008E1
:1000400081DF000881DF000881DF000881DF000810
:1000500081DF000881DF000881DF000829B0000887
:1000600081DF000881DF000881DF000881DF0008F0
:10007000EDAD000881DF00081DAE000881DF00083B
:1000800081DF000881DF000881DF000881DF0008D0
:1000900081DF000881DF000881DF000825B000084B
:1000A00081DF000881DF000881DF000817B0000849
:1000B0000DB0000801B00008F5AF000879AE0008E7
:1000C00071AE000875AE00086DAE000881DF000853
:1000D00081DF0008A9AD000835AD0008FDAC0008BF
:1000E0002DB0000881DF000881DF0008000000005B
:1000F0000000000000000000000000000000000000
:0C01000000000000000000005FF808F1A3
:100110002DE9F04F854D8FB0AB68854C13F0080189
:1001200000F0868095F81721042A00F28380DFE82A
:1001300002F003030550750023787CE060787C4A68
:10014000002877D000209E05507002D5137E180736
:1001500070D4E0780023A27800F00706A383754BE3
:1001600042EA06221A60227902F03F06760146EA48
:10017000D00058606079800040EA9210A27902F0C5
:10018000010640EA86209860E07900F00F06F6014B
:1001900046EA5202DA60227A02F07F06360146EA27
:1001A00010101861607A400040EAD212A07A00F084
:1001B000030642EA46225A61E27A02F01F06B601BD
:1001C00046EA90009861207BC00040EA5212DA6152
:1001D0002CE0A27F564B6AB393F82000002201283E
:1001E0009A7727D19A8393F83420082A84BF08226B
:1001F00083F8342094F834004F4A0023DEB286425C
:1002000002F1020212D212F8016C12F8027C46EAE4
:1002100007274A4E46F823700133EFE794F8583029
:10022000434A00203BB1908382F85800012302E04A
:100230000B4600E00023E26D206E101A002802DA5F
:10024000002B00F09B8302F59C4220322266DFF8EF
:1002500004A13B4E00293CD13A4F89468846DAF842
:1002600000305FFA88F09847A0F2EE2292B240F296
:10027000DC539A42D4F8A420334B88BFB5F81C0154
:100280001340002B03DA013B63F0030301332849D9
:1002900003EB880301EB4303A3F8640039887B88F0
:1002A00008F101080B44B988B8F1080F0B44F9882C
:1002B00007F108070B441BB24FF0040193FBF1F365
:1002C00026F8093009F10209C9D10132C4F8A42085
:1002D00009E00027F8B2DAF80030984726F817004E
:1002E0000137082FF6D1AB68590404D594F8A8302B
:1002F0000BB90AF065FE95F826210C4B62B3033268
:1003000036F91200A0F57A70B0F57A7FA8BF4FF4E5
:100310007A7020EAE0700BF06FFB0C490BF074FC74
:100320000B490BF0BDFB0BF0A7FD2AE0181A0020CB
:1003300008010020C40700202A01002040010020FD
:10034000980700206C0100200300008000007A4420
:1003500000C07F44BC07002093F8270190B1A84A51
:10036000D179A84A32F81100B3F82A2180B2801A54
:10037000B3F82831C0EB802090FBF3F000B280F39B
:100380000A0080B2AB68A4F8BE009A053FD59E4B28
:100390009E4AB3F81C9092F8B8300FFA89F703EB35
:1003A00083018F4290461EDDDFF868A29AF8012093
:1003B000CAB1974AB2F81C2132807280B280B8F874
:1003C000BA20F28098F8B920134403EB83039F42CC
:1003D00004DD0AF0F5FD00238AF80030B4F8C030DF
:1003E0000133A4F8C03098F8B83003EB83039F4280
:1003F00009DD884F97F80180B8F1000F03D10AF0AA
:10040000DFFD87F8008009F10109A4F81C900022A3
:10041000B5F81E11B5F820711346B05E9B088842EE
:10042000C4BF63F07F03DBB20232B842B8BF43F00F
:100430004003082AF1D194F8C200734A984205D1CA
:1004400092F8C300F92804D8013000E0002082F8B7
:10045000C30084F8C230AB686D4A13F480436B4F1D
:100460000CD0B2F81C11B2F8DC20B6F90630881AAC
:10047000834208DD0A44934207DB04E0B6F9062014
:100480008A4202DB16E0002314E00023C4F848345B
:10049000C4F84C34C4F85034C4F8D030C4F8D43064
:1004A000B7F846302BB1584B93F8A830002B41F0E9
:1004B000AC840123B7F846206AB194F8A82052B959
:1004C000544A52783AB195F8232112B10AF078FDD6
:1004D00001E0002BFAD194F8C3204B4B142A40F0D2
:1004E000B1804C4A50789046D0B1B7F846202AB92E
:1004F00093F8C2305F2B01D10AF062FD95F82231EA
:10050000002B00F09F80B7F84630002B40F09A8017
:1005100094F8C2307D2B40F095800AF051FD91E0B7
:1005200093F8C220572A15D13B4B4FF47A721A80A8
:10053000AB68DB0501D506F0D3FF384B1B685807C5
:1005400002D5374A0A21118013F0080326D1A4F8F6
:10055000C43023E0A968490717D55A2A15D193F862
:10056000C6202AB1012283F8C60083F8C72015E00F
:1005700093F8C82082F0010283F8C820294B0AB101
:10058000022200E003221A7008E05D2A01F046848E
:100590005B2A01F045845E2A01F04484B7F84630B6
:1005A00033B994F8C2206F2A02D10AF07FFC15E01B
:1005B00095F8222122B11BB994F8C2307E2BF4D0D9
:1005C00094F8C230972B04D1174B4FF4C8721A809D
:1005D00004E0A72B04BF012388F80E3094F8C23042
:1005E000BB2B02D1BB8D023303E0B72B03D1BB8DF4
:1005F000023BBB851FE0BE2B18D17B8D023319E077
:10060000740500207C05002008010020E81D002062
:10061000181A002028070020BC0C0020AC05002080
:10062000BE0C0020BE1E0020C81E0020BD2B09D11C
:100630007B8D023B7B850120014607F06FFB002389
:1006400084F8C330D5F808E01EF0040F31D094F8D8
:10065000C820A14B8AB1A14A527872B1A04AB6F91A
:100660000610B2F81E21914207DD93F8A82022B9A6
:100670003221A3F8CA1083F8C82094F8B920964B09
:1006800062B193F8CC202AB993F8C62012B932226D
:10069000A3F8CA20012384F8CC300AE093F8C620DE
:1006A0003AB18E4A527822B983F8C620012283F8E3
:1006B000C7208C480123002130F8022F03F1FF3CB2
:1006C000A2F21556B6F5C77F8CBF002601269E40C4
:1006D00012B2314340F21356B242CCBF002601267B
:1006E00006FA0CF6314340F2A466B242D4BF0022AF
:1006F00001225E1CB240033311430D2B89B2DBD1C2
:10070000002307EB4306B6F84660734A31420CBF3C
:100710000026012602F1A8001E540133152BF0D14A
:1007200092F8A9306D4E704943B9704BB2F91C2054
:1007300093F8B83003EB83039A420CDD0B689807FB
:1007400009D5F3784BB9C4F8D030C4F8D430634B32
:100750000122DA7001E00023F37094F8AA305E4AB7
:100760005BB10023F370337943B9C2F8D030C2F8DB
:10077000D4305A4B01221A7100E0337194F8A8303A
:100780000BB901233370F278594B12B9534A1279DD
:1007900012B110225A6101E010221A610A68510751
:1007A00025D594F8AB104C4B99B1B17991B94B4820
:1007B0004FF0010C80F806C0D3F8DC00C3F8EC1051
:1007C000C3F8D800B3F8E800C3F8F010A3F8E000CD
:1007D00000E0B1711EF4005F09D094F8AC302BB189
:1007E000F37B23B93D4B0121D97300E0F37312F081
:1007F0000A0F20D094F8AD3037494BB1737943B923
:10080000364B01205871B1F8C430A1F8F43000E043
:10081000737194F8AE302BB1737A23B92F4B012149
:10082000597200E0737294F8AF102B4B19B1B3F802
:10083000C410A3F8F610920640F19180F27A274B8B
:10084000002A00F0878094F8F820DFF88C80042AD2
:1008500040F2808098F8B2208AB1DA79002A7ED1FD
:100860000121D9711A72234B08F1FC0008F580713F
:100870001A7005F0EBFE022388F804316FE0DA719C
:1008800098F8B320002A37D0B8F9E210B7F8CC2096
:100890000029B8BF494291422EDAB8F9E410002984
:1008A000B8BF4942914227DA1A7A002A57D1012764
:1008B0001F72104B08F584701A70D8F8103108F5C3
:1008C0008671C8F80831D8F81431C8F80C3105F031
:1008D000BDFE88F8047142E00801002028070020CE
:1008E000181A00209E070020AC050020E81D0020FB
:1008F000000C014000000020934A0023337213785B
:100900006BBB012111701A46904F0020391D5052C7
:1009100007F1080107F10C0E5052002143F80E10A8
:100920009E44D053CEF80400CEF80810023207F1EE
:10093000340E5C3743F80E10D9519E441F44042AEC
:10094000CEF80400CEF808107860B96003F1140303
:10095000DAD104E00023F371337284F8043194F89F
:10096000B43003B10123B3726B79082B02D00E2B84
:1009700040F066840023737200F062BC744BD3F8BD
:100980009C31042B00F25C84DFE813F005008B003F
:10099000F8004C033E040123C4F89C316D4B6C4EAF
:1009A0001B681B077DD5D6F8A031D31A002B78DB46
:1009B000694B02F5C332A0325B6806F5D270C6F807
:1009C000A0219847654B06F5D2779A7B184692B1DD
:1009D000D6F8A0210023C6F8AC21E9180022A1F81E
:1009E000002116465E49FA5A5A5206315A520233CB
:1009F000062BF2D186735B4B1B78A3B1B4F8A4210C
:100A0000B5F80031D31AA4F8A431B4F8A621B5F88A
:100A10000231D31AA4F8A631B4F8A821B5F80431EC
:100A2000D31AA4F8A831D4F8AC31494A002B00F00D
:100A30000784D2F8A0114C48CB1A834202F5DB712F
:100A400002F5D87019D8494BDA6882F00802DA60EA
:100A50000023FA5A30F903E016B2B645C4BFDFF8F6
:100A600000E123F80E2031F903E0B645BCBF404E4B
:100A70009A530233062BECD1E2E30023C2F8AC31E7
:100A8000C75ECE5EEA183E4402273B4496FBF7F66B
:100A9000062BA2F80061F3D10120014607F03EF9D0
:100AA000CEE3D4F89C312A4E0133C4F89C31294B53
:100AB0001B685F0762D5D6F8BC31D31A002B5DDB0B
:100AC000D6F8C031C6F8BC212A4F9BB13B69984784
:100AD0007B689847D6F8BC313A8806F5E270134433
:100AE000C6F8BC3106F5E4717B6998470023C6F867
:100AF000C031A5E3BB689847FB6898471E4AD6F803
:100B0000CC1192F831204B1C934208BF0023D4F83B
:100B1000C42104EB8101C1F8D021D4F89012C4F8AB
:100B2000CC310A4404EB8301D1F8D0010123121A1D
:100B3000C4F89022C4F8C0317A88D4F8BC31134488
:100B4000C4F8BC317CE300BF00000020200200207C
:100B500008010020AC050020240600202807002002
:100B6000B80200204C0600207FC3C901000C0140E0
:100B7000BE020020FC050020E81D0020D4F89C31B6
:100B8000B14E0133C4F89C31B04B1B68580740F19B
:100B9000498206F0E9F8D6F8987246F2A713C71B07
:100BA0009F42B6F896A2B6F894B240F23B82DFF8C4
:100BB000C892C6F89802B9F80030DFF8B8827BB363
:100BC00098F83100D6F89032D6F89C220138B3FB61
:100BD000F0F0082392FBF3F1521A1044C6F89C027D
:100BE00090FBF3F00AF008FF99490BF00DF89949D2
:100BF0000DF066FC01464FF07E500AF047FE964924
:100C00000AF04EFF0BF012F90023C6F8A432C6F822
:100C1000A832B9F80030C6F8A002013BA9F80030AC
:100C200098F831000FFA8BFB0FFA8AFAD4F8903259
:100C3000BBF1000FB8BFCBF1000BBAF1000FB8BF8A
:100C4000CAF1000AD345A8BFDA460138B3FBF0F079
:100C50001FFA8AFACDF80CA00AF0CAFE7C490AF005
:100C6000D3FF7C490DF02CFC01464FF07E500AF07A
:100C70000DFE79490AF014FF0DF054FBD8F83460EA
:100C80008146D4F8AC020AF0B7FE31460AF008FFFC
:100C90008046D4F8A002C0EB09000AF0ADFE314650
:100CA00081464FF07E500AF0F1FD014648460AF0B9
:100CB000F7FE014640460AF0EBFD0DF033FBDDF890
:100CC0000CA083460FFA8AF8B8F1FA0F634E03DDE1
:100CD0004FF0FF33336014E030680AF08DFE814638
:100CE00040460AF089FE01465D480AF0CFFD014604
:100CF00048460AF0D5FE5A490AF086FF0BF096F8EE
:100D00003060366806F1FF39B9F1C60F06D8C6EB78
:100D10000B03C4F8B032C4F8AC622FE0D4F8B032A0
:100D2000002EC3EB0B0BDFF820A1C4F8ACB225DD1D
:100D3000C6F596700AF060FE4A490AF065FF8046E3
:100D4000CAF8B40230460AF057FE41460AF0A8FE3F
:100D5000064658460AF050FE414683464FF07E5004
:100D60000AF094FD014658460AF09AFE01463046C4
:100D70000AF08EFD0BF05AF8CAF8AC023A4B18682C
:100D800000930AF035FE394906460AF089FE83468B
:100D9000D4F8C0020AF030FE8046D4F8C4020AF04B
:100DA0002BFE014640460AF02FFF314A049011689D
:100DB0000AF076FE31460AF073FE2E4A4FF07C515F
:100DC000D2F83CA0059001920AF06AFE59460AF05A
:100DD00067FED4F8A482844659464046CDF808C040
:100DE0000AF05EFEDDF808C0014660460AF050FDDC
:100DF000D4F8A8120AF04CFD51460AF051FED4F87E
:100E0000AC62834630460AF0F7FD514684464FF007
:100E10007E50CDF808C00AF039FDDDF808C0014663
:100E200060460AF03DFE014658460AF031FD019A3F
:100E3000009BB9F1C60FC4F8A80291469A461DD886
:100E4000014AC2F8DC601EE008010020AC05002069
:100E500080E6C547B1DC423ED048874A44000020C6
:100E6000000061440000C842C01E0020BD37863526
:100E700040060020E81D0020BE0C00200AF0D6FF2E
:100E8000B04BC3F8DC00059940460AF001FD03466B
:100E9000D4F8C8024FF00008CAF80080301A009356
:100EA000C4F8B882C4F8BC82C4F8C082C4F8C48252
:100EB0000AF0A2FDA4490AF0F3FD824638460AF082
:100EC00097FD014650460AF09FFE0AF0AFFF40F240
:100ED000DC529E499042A8BF10468842B8BF0846DF
:100EE0000A21C4F8C86206F027F9009BD9F83860D7
:100EF0008246314618460AF0D3FD074650460AF0AE
:100F00007BFD314682464FF07E500AF0BFFC014621
:100F100050460AF0C5FD014638460AF0B9FCC4F84F
:100F2000A4020DF0FFF90521064606F005F9039A23
:100F3000DFF810B213B2B3F5487FC4F8CC026BDA15
:100F40009BF8D0320BBBDBF8D820DBF8DC308048D4
:100F5000D31AB3F5FA7FA8BF4FF4FA738342A8BF40
:100F600018460A2106F0E8F87A4B80221B7958438C
:100F700090FBF2F3B3F5967FA8BF4FF49673A2F5FA
:100F8000D6729342B8BF134601E0DBF8D43299F829
:100F90000A209B1B5A43202192FBF1F299F814007E
:100FA000D4F8EC1042F2040603FB00106A4BB2F5D1
:100FB000967FA8BF4FF496729842A8BF1846674B19
:100FC0009842B8BF1846C4F8EC0090FBF6F0644EA7
:100FD000B242ACBF8618861999F81E000AF00CFDC3
:100FE000D4F8D812074604980AF052FC0146384655
:100FF0000AF056FD4FF06C510AF052FD0AF016FF50
:101000006FF095039628A8BF96209842B8BF18465F
:10101000301AC4F8F00001E0CBF8F080049BC4F86B
:10102000D8320DE1D4F89C310133C4F89C31AB685F
:10103000D90540F1E9804B4EB36863B94A4F3B781C
:10104000013B042B00F2FC80DFE813F011001100DB
:101050001100CD00B600B06807F0C3FB0028EDD04A
:10106000404B986807F0B8FB02F036FCF3E795F8C0
:101070002C91B9F1000F03D0B9F1010F09D098E01C
:101080007A783A4BB06803EB0213596807F09FFB7C
:101090008CE0B068DFF8CC8003681B6998470028B3
:1010A00000F087803B78304E022B2CD0032B35D0BC
:1010B000012B7ED12E4BD3F80090736AC3EB09034A
:1010C000632B76D9F369042B1BDCDFF8A0A0D8F8DA
:1010D00008000AEB0313596807F079FB7378D8F816
:1010E00008800AEB03139E6816F8011B19B14046ED
:1010F00007F07CFBF8E7FB69C7F824900133FB613C
:1011000057E0022053E07278184BD8F8080003EB40
:101110000213596807F05BFB032048E03369012B99
:101120002AD0022B42D0002B43D1326A114BC6F891
:10113000109053F8321003EBC2035B687161B36126
:1011400037E000BF080100200024744924FAFFFFA3
:101150000CFEFFFFE81D002020031900E0FCE6FF65
:10116000D4FEFFFF50060020E407002074070108AA
:10117000141A002060080108F369B269934209DA81
:101180007269D8F80800D15C07F030FBF3690133CD
:10119000F3610EE0326A90490132326251F8322036
:1011A0000023F36102B90223336102E0042003F05B
:1011B0004BFF00237B6043E07B68052201337B60AB
:1011C0007B7801200133DBB2B3FBF2F202EB820247
:1011D0009B1A7B70814B824A1B68BB60002384F89A
:1011E000F830D3720DE07D4B1A68BB68D21A40F616
:1011F000C4139A4224D97B4B05201A6822F020029E
:101200001A6003F021FF1BE00023C4F89C31754BEA
:101210001B68DA0614D5714B1A68734B19683C3198
:101220008A420DD31A60714F714A724B724EC3F8E5
:10123000DC223B880B20336105F0B0FD3B887361F5
:1012400005F092FDAB89E06533B16A4AD2F8E0223D
:10125000821A002AC0F2F8851844C4F8E00208F0A7
:1012600029FB05F081FD654BE0651A681860821A5C
:10127000A4F8E42200F0FCFD5A4B5E4E1968604F62
:1012800011F0080F34D0B6F8E62002F145039BB206
:101290008A2B29D8524B58799E4628B3B6F8F43099
:1012A000B6F8C400C01A80B283B21EB2B336BCBF57
:1012B00000F5B4739BB218B2B3289EF80D60C4BF9A
:1012C000A3F5B4739BB295F8EC008EB140B24042E6
:1012D0004343787A1BB243436FF01D0093FBF0F356
:1012E0001A44A4F8E62003E0B4F8C430A4F8F430BB
:1012F0004B0740F191803A4B9A79002A00F08C809C
:101300001E7C002E7ED197F8730097F87220394B1F
:1013100080B3B4F8E8C0B4F9E0000FFA8CFEC0EB7B
:101320000E08B8F1000FB8BFC8F1000890450FDDF6
:101330008645C8BF52421FFA8CFCC8BF92B2C3F8A0
:10134000EC606244012683F8E662A4F8E82063E0DA
:1013500093F8E6222AB1D3F8DC2083F8E662C3F8DA
:10136000D820D4F8F030B5F8D2201844B5F8D030F1
:10137000984229E0B4F9E060B4F9E8E0C6EB0E0E5B
:101380008EEAEE7CACEBEE7C94450ADD02229EFBFD
:10139000F2F2C3F8D422012283F8D02283F8E622A5
:1013A0000AE093F8E6223AB1D3F8DC2083F8D002C1
:1013B000C3F8D82083F8E602D4F8F020B5F8D0308E
:1013C0003244B5F8D2009A4203DB8242B4BF1346DE
:1013D0000346A4F8E8301FE060080108141A002052
:1013E00028070020AC050020180800200C08002069
:1013F0004400002008010020000C0140B80C00202F
:10140000E81D0020B4F8E42095F92501D4F8F03067
:1014100000FB0323A4F8E43097F876305BB1934BDC
:10142000DA780AB91B7933B1B4F8E830B4F8E822B5
:101430001344A4F8E8308E0640F1B1808B4BDA7982
:101440001AB91A7A002A00F0AA801B7B002B00F040
:10145000A680B4F9C4000AF0CFFA85490AF020FB4F
:1014600080460CF09DFF814640460CF025FF97F822
:10147000C5A080467F4EB4F92201BAF1000F5CD0BE
:10148000B6F81E31CAF100061FFA83FB1BB2C01A60
:1014900006F04AF8B04203DB5045A8BF504600E0D2
:1014A0003046B4F81C318344B4F920019AB21BB21F
:1014B0001FFA8BFBC01A0192A4F81EB106F034F893
:1014C000B042019A03DB5045B4BF06465646164467
:1014D000B6B20FFA8BF0A4F81C610AF08DFA8246BE
:1014E00030B20AF089FA4146064650460AF0D8FA68
:1014F0004946834630460AF0D3FA014658460AF078
:10150000C5F95D490AF080FB0AF090FC4946A4F851
:10151000180150460AF0C4FA4146814630460AF0A6
:10152000BFFA014648460AF0B3F953490AF06CFB8A
:101530000AF07CFCA4F81A0131E00AF05DFA834657
:10154000B6F920010AF058FA4146824658460AF098
:10155000A7FA49460346504600930AF0A1FA009BB9
:10156000014618460AF092F943490AF04DFB0AF089
:101570005DFC4946A6F8180158460AF091FA414622
:10158000814650460AF08CFA014648460AF080F936
:1015900039490AF039FB0AF049FCA6F81A01374E1E
:1015A0007368984704F0D6F9354B9B7D002B43D0E8
:1015B0006B79013B142B34D8DFE803F00B33331D78
:1015C0003633331633333333332433333333331D2A
:1015D000240097F8BF300BB1002011E0234B58785E
:1015E0000028F9D1014625E00020F18906F086F8AF
:1015F0000120318A1EE00020318A06F07FF80120A8
:10160000718A17E00020F18906F078F80120318A0C
:1016100006F074F80220718A06F070F80320B18A8F
:1016200008E0AB68980607D50020318906F066F817
:101630007189012006F062F805F01BFC114B1B7844
:10164000002B40F00184AB68190440F1FD830E4E7D
:101650003278023A042A00F2F783DFE812F017002A
:1016600040000500B900F200102599E0280700208D
:1016700035FA8E3C080100200000204100000020C7
:1016800050060020BD1E0020B50C0020B74B1A6884
:10169000D4F8EC3264339A4240F2D6831025B44B2E
:1016A000D4F8F022B34F985C984648B107F040F95F
:1016B000D7F8F022013D02F10102C7F8F022EED185
:1016C000D4F8F032AB4A18F80330002B40F0BC835A
:1016D00003213170C2F8F032C2F8F432B4E3D4F826
:1016E000F072A54A052F92F8009048D8A04E06EB5C
:1016F0008703586F0CF097FB002F14BF02230923B8
:10170000C9F1080707FB1307B046D4F8F462D4F810
:10171000F4320F33B34202DABE422DD10CE0BE42A6
:10172000FADA944BD3F8F03208EB83035B6F985DE1
:1017300007F0FEF80136EAE76B79012B0BD00A209F
:1017400007F0F6F8D4F8F0320133C4F8F032002391
:10175000C4F8F43278E32C2007F0EAF8D4F8F03239
:1017600008EB8303D3F88C50013D15F8010F0028D6
:10177000E5D007F0DDF8F8E7C4F8F46264E3DA05D1
:101780004CBF042305233370002357E007F0D0F843
:10179000D7F8F022013D02F10102C7F8F02209D08A
:1017A000734BD4F8F022734F1A4492F8A400984671
:1017B0000028EBD1D4F8F032434493F8A430002B46
:1017C00040F04283052232706A4AC2F8F0323BE3AD
:1017D000D4F8F0320A2B2CD8DFE803F0062D0A2DBE
:1017E0000E16191D21252D00644806F086FA22E008
:1017F00063486449644A04E0644895F8B21395F874
:10180000B32306F07AFA16E06148F97F0EE06148EA
:10181000B5F8D0100AE06048B5F8D21006E05F4B8A
:101820005F48D96802E05F4B5F48198806F065FAA7
:1018300001E006233370D4F8F0320133C4F8F032FB
:1018400002E3D4F8F8A24B4F1AF01F0B40F0B2801D
:1018500005F066FDD7F8FC62492007F069F8D7F873
:10186000F80207F06BF8306807F068F8706807F066
:1018700074F8B06807F071F8F06807F06EF8306936
:1018800007F06BF8706907F068F8B06907F065F861
:10189000F06907F062F8306A07F05FF8706A07F0E5
:1018A0005CF8B6F9280007F058F8B6F92A0007F0F6
:1018B00054F8B6F92C0007F050F8B5F8D030B6F966
:1018C0002E000127C01A07F039F8B6F9300007F0EA
:1018D00044F8B6F9320007F040F8B6F9340007F0E2
:1018E0003CF8B6F9360007F038F8B6F9380007F0DA
:1018F00034F8B6F93A0007F030F8B6F93C00B5F81C
:10190000D030C01A07F01AF81B4B1B789F420ADA36
:1019100006EB4703B3F93C00B6F93C300137C01A77
:1019200007F01BF8F0E76B79012B07D1D4F8FC32F4
:10193000B3F95E00A0F2DC5007F00FF8D4F8FC32E7
:101940001A4A1B49C4F80033C4F804339B1A9B108D
:101950004B430321013393FBF1F101EB41015B1A8E
:10196000642101FB0322C4F8FC2248E2141A00207F
:10197000C804010808010020D01E0020A01A010898
:10198000BC1A0108D31A01085B220108DF1A0108FA
:10199000F31A0108001B0108121B0108B005002002
:1019A000241B010830000020371B01081004002010
:1019B000295C8FC295F8B23395F8B3230BEB030182
:1019C000013991FBF2F002FB10129A4280F2D881A9
:1019D00005F0A6FC5020D7F8FC92D7F8008306F05B
:1019E000A7FFD7F80423D7F8FC3210681B6800263D
:1019F0001844D7F800331B68A0EB430006F0ADFF96
:101A000009EB060208EB060350685B680436C01A4F
:101A100006F0A3FF0C2EF3D1002309EB030108EB22
:101A200003020969126968468A1A03F1180104332E
:101A30000C2B0A50F1D10022134606A8815801F15F
:101A400020003F2820D801F108000F2806D80231D5
:101A5000032904D9002B08BF012300E0022304322C
:101A60000C2AEAD1012B069812D0022B1ED0079B1C
:101A700000F0030003F003039B0043EA0010089BFF
:101A800003F0030318431DE008AB05A900271DE080
:101A900000F00F0040F0400006F04AFF089B03F002
:101AA0000F02079B42EA0310C0B20BE000F03F00B8
:101AB00040F0800006F03CFF9DF81C0006F038FF67
:101AC0009DF8200006F034FF00265DE053F804295D
:101AD000BF0002F18000FF2810D902F50040B0F5E8
:101AE000803F02D247F0010708E002F50002B2F1A0
:101AF000807F34BF47F0020747F003078B42E5D1F0
:101B000067F03F00C0B206F013FF002607F00303A2
:101B1000022B0FD0032B1CD0012B02D006A9885D0D
:101B20002AE006AA905D06F003FF06AB9859C0F3C1
:101B3000072021E006A9885D06F0FAFE06AA905962
:101B4000C0F3072006F0F4FE06AB9859C0F3074037
:101B500012E006A9885D06F0EBFE06AA9059C0F3D4
:101B6000072006F0E5FE06AB9859C0F3074006F0E3
:101B7000DFFE06A98859000E043606F0D9FE0C2EA9
:101B80004FEAA707A0D0C1E709EB060208EB06035E
:101B9000D069DB690436C01A06F0DFFE0C2EF3D1E3
:101BA000002309EB0302B2F9281008EB0302B2F993
:101BB000282006A88A1A40F813200233082BF0D1F7
:101BC000A34B0AAE03F1100718685968324603C2E6
:101BD0000833BB421646F7D109AA05A8002352F8DC
:101BE00004199B00DBB269B101F108060F2E02D87F
:101BF00043F0010306E08031FF2994BF43F0020364
:101C000043F003038242EAD10EA901EB131203F061
:101C10000F030B4412F8107C13F8103C002643EA23
:101C20000717FFB2384606F083FE07F00303022BC6
:101C300014D0032B18D0012B22D10EAA02EB86035D
:101C400053F8200C53F81C2C00F00F0040EA02104F
:101C5000C0B206F06DFE0136BF0811E00EA800EB21
:101C6000860313F8200C09E006A911F8260006F0F7
:101C70005FFE06AA52F82600C0F3072006F058FEC1
:101C80000136032E4FEA9707CFDD0027714E07F18B
:101C90001803D6F8FC22013732F91300D6F80023D6
:101CA00032F91310D6F8042332F9133002220B4410
:101CB00093FBF2F3C01A06F050FE032FE6D1002783
:101CC000D6F8FC2207F118035B001A44B2F90600AB
:101CD000D6F8002301371A44B2F90610D6F80423C7
:101CE0001344B3F9063002220B4493FBF2F3C01AFB
:101CF00006F033FE032FE3D10027574B1B789F429A
:101D00001ADAD6F8FC2207F11C035B001A44B2F978
:101D10000400D6F8002301371A44B2F90410D6F8AB
:101D200004231344B3F9043002220B4493FBF2F36F
:101D3000C01A06F012FEE0E7484B5B79012B06D192
:101D4000B9F95E00B8F95E30C01A06F006FED6F8A2
:101D50000033D6F8FC22C6F80433414B4149C6F89B
:101D60000023D21A92104A430321013292FBF1F16F
:101D700001EB4101521A642101FB0233C6F8FC3227
:101D8000AB68DB053BD5D4F8FC10D4F83424314BD8
:101D900091420BD1D3F80021D3F838349A4205D1BF
:101DA000BBF1100F16D11AF47E6F13D1482006F044
:101DB000BFFDD4F8FC0006F0D0FDD4F8000106F019
:101DC000CCFDD4F8FC30C4F83434D4F80031C4F875
:101DD000383412E094F8F81094F844241D4B9142E2
:101DE0000BD1D3F81011D3F83C24914205D1D3F88C
:101DF0001421D3F840349A4201D006F0B2FDD4F851
:101E0000F8320133C4F8F8321EE0174B1B78002B70
:101E10003EF44FAB09F04AF8FEF74BBB012202E05B
:101E2000022200E003225FFA82F9002009F1FF3369
:101E3000014685F8B03305F071FF022028214A469B
:101E400006F042FEFEF7AABB0FB0BDE8F08F00BF60
:101E50007906010808010020D01E0020181A002071
:101E600010040020295C8FC2280700200000000019
:101E7000634B2DE9F04FB3F90600624B8DB0DA8C5D
:101E800090420FDBB0F5FA6F93F8254007DA811A1C
:101E90004C43A2F5FA6294FBF2F4643403E0C4F11B
:101EA000640400E06424584A93F82360B2F81C11DB
:101EB00092F9EC2093F8705093F87170524293F8B5
:101EC000243092B2049100210692059607930A46A7
:101ED0004B4BDDF810C031F9038040F2E636CCEB15
:101EE000080303F2F31EB64503D8002BB8BF5B42CC
:101EF00001E04FF4FA73022ADFF814C12CD025B1A7
:101F0000AB42CCBFC5EB030300236426DFF804A17A
:101F100093FBF6FE6FF0630B3AF81E900BFB0E3B43
:101F20000EF1010E3AF91EA00FFA89FECEEB0A0E51
:101F30000EFB0BFE9EFBF6FECE442CF801E0DDF816
:101F400014C003FB0CFE314B9EFBF3F333449BB2F6
:101F5000634393FBF6F314E027B1BB42CCBFC7EB5E
:101F600003030023DDF818E003FB0EF6ACF8046071
:101F7000079E002BB8BF5B427343244E93FBF6F3DE
:101F80006433DFF88090DFF890C002EB090696F822
:101F900001A096F80BB0767D03FB0AFA03FB0BFB5E
:101FA00073434FF0640E9AFBFEFA02F80CA093FB09
:101FB000FEF30CF1030A0CF1060C02F80C30DDF80C
:101FC00010C09BFBFEFBE04502F80AB0104B05DA9F
:101FD00033F801E0CEF1000E23F801E00132032ACC
:101FE00001F102017FF474AF074DB5F81E21904254
:101FF00014DBB0F5FA6FA8BF4FF4FA600FE000BF32
:1020000098070020E81D0020181A00200CFEFFFF92
:10201000EA010020C00C0020CE0C00201046801ADF
:102020004FF47A714843C2F5FA62B0FBF2F24FF016
:10203000640CB34C92FBFCF104EB4100B0F818E0E7
:102040006FF0630000FB012204EB4101B1F91A00BB
:102050000FFA8EF1411A4A4392FBFCFCE644A3F8C6
:1020600006E0A84BA84F5B7A002B44D0A74BB3F9EE
:102070000000A74BB3F90030C01A09F03BF99EA34A
:10208000D3E9002309F09CF90022A24B09F0C2FA1F
:1020900009F0A8FB80460CF00FF9814640460CF091
:1020A0007FF98046B7F9020009F0A6FC8246B7F92D
:1020B000000009F0A1FC4946834609F0F1FC4146C5
:1020C0000646504609F0ECFC0146304609F0DEFBBE
:1020D00009F0ACFE49463880504609F0E1FC414623
:1020E0008146584609F0DCFC0146484609F0D0FB21
:1020F00009F09CFE7880D5F80880DFF848A218F037
:10210000020F00F08380844B06211A88236B7C4FDA
:102110001A4494F8343022630133DBB2B3FBF1F993
:1021200001FB193919F0FF0684F8343004965CD1AC
:102130007A4E7B4B7078B96B33F810E04FF0080B98
:1021400091FBFBF01FFA8EFE081A7044B86390FBF7
:10215000FBF080B20392019309F04EFC714909F043
:102160009FFC714909F050FD81469AF80B0109F076
:1021700043FC0146484609F093FC09F07DFE9AF8BD
:102180000E11B887039A019B79B37079396C33F8D3
:10219000100091FBFBF380B2CB1A03443B6493FB2A
:1021A000FBF39BB240F6E441594340F6FF70B1FBAC
:1021B000F0F1BAF808014FF47A73091A5943BAF8E2
:1021C000060191FBF0F14A4392FBF3F37964D7E9FE
:1021D0001201C01841EBE371C7E91201534A002311
:1021E00009F06AFE049E38653E63514AA38F128847
:1021F0009A4203D395F80D219A4203D9002384F81B
:10220000543003E03E4B042283F8542049483C4BB1
:10221000417B94F8542001B1012118F4007F83F828
:10222000551022D0444E454B96F8B8101B8801EB50
:10223000810618B2B04215DD324E76787EB10126A5
:1022400084F856603C4E96F8B960314401EB810148
:10225000884207DD2A49022081F8560002E0022167
:1022600084F856100BB984F85630354E33689B0607
:102270000CD530498B7A0BB9CB7A23B1214BDB7A61
:102280000BB9012300E0002384F8573094F856106E
:102290001B4B022902D14C204E211DE0012904D103
:1022A0004D2153204C220B4607E093F8571001298B
:1022B00006D1532001464E224D2302F06FFE4EE020
:1022C00093F85510012903D1532001460246F3E744
:1022D000042A03D153204D210A460AE0022A03D1E1
:1022E000532001464D2204E0012A2DD153204D21D7
:1022F0004E224423E1E700BF182D4454FB2109403E
:10230000C00C002028070020EA010020CC0100209A
:10231000FE01002000806640EC03002074050020D0
:102320007C0500203333534000F07F45407E05009C
:1023300084050020B0010020E81D002024010020B9
:10234000AC050020181A0020B04A107818B13220CD
:1023500002F0F6FD03E083F8580004F0FEFCAC4BFD
:102360001A8812B133689F0702D4AA4B1B882BB17D
:10237000A94BDA6882F00802DA600FE0A74B9A787E
:1023800012B1A54A082111615B7813B1A24B082252
:102390005A61A34B1B780BB107F018FAAB6818060B
:1023A00062D5A04AA04F1368E26D9A1A002A5BDB3F
:1023B00003F543435033FB6597F860309BB97A23AC
:1023C0008DF82430994B0222B3F900306D20C3F10F
:1023D000B40393FBF2F38DF82530FF2109AB06F02F
:1023E000CFFC012325E0012B26D191497923B1F9B6
:1023F00000208DF824300A2392FBF3F25A32B42ADB
:10240000A8BFB42222EAE2728DF82520B1F9022099
:102410006D2092FBF3F35A33B42BA8BFB42323EA05
:10242000E3738DF82630FF2109AB032206F0A8FCE8
:10243000022387F8603017E0022B15D164238DF852
:10244000243001238DF82530744B6D205B78FF21FB
:10245000002B18BF01238DF82630032209AB06F0AC
:102460008FFC002384F860306E4B1A68636ED31AB9
:10247000002B11DB694B597B61B99970664BD968A8
:1024800081F00801D96002F5F423674A03F59073DF
:10249000536601E001229A700027D4F89421624B20
:1024A0009742DFF8A4A180F2378703F168014C203E
:1024B00000FB07115F4A11609AF80010914619B1AC
:1024C00002F004F800F028BF93F8003113B15A4A23
:1024D0005A4BDA60D9F80030DFF858A1186806F0D6
:1024E00080F9002800F01587DAF80030186806F047
:1024F00073F9DAF8003093F84920C2B9B0F1240139
:102500004A424A4183F84920002AE3D1434B5B7891
:10251000002BDFD1232802D101F0D8FFDAE795F8AC
:10252000B1338342D6D1464A464B1A60CFE7012ADF
:1025300005D14D2814BF0022022200F0E6BE022A77
:1025400005D13C2814BF0022032200F0DEBE032A7E
:102550000DD140284FF0000200F2D78683F84720C3
:102560005A7183F848001871042200F0CEBE042A84
:1025700007D11A7983F8460050401871052200F0FF
:10258000C4BE052AA6D193F8481093F8472091427B
:10259000197907D941401971511C83F84710134428
:1025A000987197E7814240F0AD8693F84630752BDD
:1025B00000F02D8400F21181692B00F0728300F28B
:1025C000C280452B00F07F8640D8422B00F0388631
:1025D0000CD8402B00F05A86412B40F08A86002010
:1025E00006F036F94FF0000A00F061BE432B00F010
:1025F000FB85442B40F07D86002006F029F90A4B2C
:10260000012283F8002100F078BE00BFBE1E00202A
:10261000C81E0020BC0C0020000C01402807002030
:10262000B40C002064010020C00C0020CC0100206C
:102630009C030020480000200400FA0500ED00E0A3
:10264000EFBEADDEF04F0020BD1E0020662B00F077
:1026500094826CD8642B00F06182652B40F049862F
:102660000B2006F0F5F8D84BDFF878A3B3F900009B
:1026700006F0F1F8BAF8360100B206F0ECF833686B
:10268000C3F3C000C3F38002800040EA4200C3F3FA
:1026900040021043C3F3401240EAC20003F01003AB
:1026A000184306F0D8F8C94A002092F804E0D3781D
:1026B0004FEA8E0E4EEA430E53784EEA030E93799C
:1026C0004EEAC30E53794EEA431E537A4EEA831EF6
:1026D000BF4BD9794EEAC11E197A4EEA012E597ABA
:1026E0004EEA412ED1794EEA812E117A927A4EEA43
:1026F000C12E4EEA023E5A7B9AF81C114EEA423E27
:102700009A7B4EEA823E1A7C4EEA024E1A794EEAD3
:10271000021E5A7C4EEA424E9A7C4EEA824EDA7C87
:102720001B7D4EEAC24E4EEA035E03460EE2672B65
:1027300000F06482682B40F0DC85102006F088F8F9
:102740004FF0000AA2E26F2B00F0298324D86C2BF3
:1027500000F0D98218D86A2B00F0B3826B2B40F0BE
:10276000C885DFF880A2052006F072F8BAF94601A4
:1027700006F071F8BAF9480106F06DF89AF806010A
:1027800000F0010000F060BC6D2B00F0CB826E2BDE
:1027900000F0D38200F0ADBD722B00F0D68311D8CB
:1027A000702B00F01C83712B40F0A385DFF834B24E
:1027B0004FF0000A9BF81C01400000F0FE0006F0FC
:1027C00047F85FE3732B00F00684742B40F091858B
:1027D0004FF0000A4FF0010B78E3CE2B00F0868417
:1027E00044D8C82B00F094802BD8782B00F01682A8
:1027F0000FD8762B00F0FE83772B40F07A85DFF838
:10280000E4A14FF0000B9AF81C0106F021F85346A2
:1028100093E3A02B00F09684A42B40F06A85DFF8A8
:10282000C4A14FF0000B9AF8520180000130C0B2F1
:1028300006F00EF89AF8520105F0DDFF534600F05D
:102840008FBCCB2B61D009D8C92B75D0CA2B40F0D7
:102850005085DFF8A4A10AF10A0B90E0CC2B00F020
:10286000CF80CD2B00F0388400F043BDD42B00F096
:10287000F18116D8D12B00F0EA8307D8CF2B00F0D6
:10288000E280D02B00F01F8400F033BDD22B00F08B
:102890003081D32B40F02D8504F0D8FA4D4B1880B1
:1028A000CCE0F02B00F0428410D8D62B00F014813D
:1028B000EF2B40F01E8504F0C9FADFF838A1AAF822
:1028C0002C0004F0C3FAAAF82A00B7E0FA2B00F0B3
:1028D0001584FE2B40F00D85082005F0B9FF3E4B16
:1028E0003E4A1B684FF0000AB3FBF2F3C3EB4311FF
:1028F00003EB81033A490968B1FBF2F2394902EB73
:10290000C303A1F8503100F006BC4FF0000A47E0C5
:102910004FF0000A04F09AFA334B23F80A000AF148
:10292000020ABAF1100FF5D1002005F091FF2F4BEC
:1029300001221A7000F0E1BC04F07EFA234BDFF8AC
:10294000BCA0D87204F078FA294B187004F088FA09
:10295000CAF8000004F084FACAF8040004F076FA19
:10296000DFF880A0AAF8020104F070FA9AF80631A4
:10297000AAF8040143F002038AF806315EE004F08D
:102980005BFA0AF1010A8AF8010004F055FA8AF8A4
:102990000B0004F051FADA458AF81500EFD14DE04A
:1029A000104B93F81C21924548D203F207131AF8F2
:1029B00003B004F04BFA0F4B0AF1010A03EB4B038F
:1029C000A3F84600ECE700BFEC0300202807002036
:1029D000B0010020FC0100201800002040420F0040
:1029E00098000020C00C0020980700206001002003
:1029F00000020020E81D0020E71D00201802002032
:102A000004F01AFADFF860A48AF81F0004F014FA40
:102A10008AF8200004F010FA8AF8230004F00CFA77
:102A20008AF8240004F008FA8AF8250004F004FA71
:102A30008AF8210004F000FA8AF82200002005F04C
:102A400007FF00F05ABC04F001FA6FF4AF6283187C
:102A5000DFF8DCA3C62B98BFAAF81C0104F0F6F936
:102A6000AAF8D00004F0F2F9AAF8D20004F0EEF9C6
:102A7000AAF8D40004F0EAF9DFF8ECB3ABF8BA0036
:102A800004F0DAF98AF82C0104F0D6F98AF82D015D
:102A900004F0D2F98AF82E0104F0CEF98AF80A017E
:102AA00004F0CAF98AF8260104F0C6F904F0CEF958
:102AB00000EB80004000ABF8280004F0BDF98AF874
:102AC0000B0104F0B9F98AF80D0104F0B5F98AF8A0
:102AD0000C0104F0B1F9B1E74FF0000A04F0B6F9C7
:102AE000D14B23F80A000AF1020ABAF1100FF5D10E
:102AF000A4E7CE4B5B78002BA0D104F09DF9CC4B22
:102B0000022883F8B0034FF0000088BF002201467E
:102B100088BF83F8B02305F001F98FE70720DFF8BD
:102B200010A305F095FEE72005F065FE9AF8050074
:102B300005F061FE002005F05EFE9AF82401BD4B11
:102B4000BD4A00280CBF10461846CFE38B420ED278
:102B5000BA4A13F802C0012202FA0CFC1CEA0E0F5A
:102B600018BF9A4003F1010318BF1043EEE705F0C8
:102B70007CFEAF4B93F8B00366E2122005F068FECE
:102B8000AF4B1B88B3F5806F29D94FF0000AAD4BCE
:102B90003AF90300082390FBF3F00AF1020A05F06A
:102BA0005AFEBAF1060FF2D1DFF8C0A2BAF93E011F
:102BB00005F051FEBAF9400105F04DFEBAF94201A7
:102BC000DFF8ACA205F047FEBAF9000005F043FEBD
:102BD000BAF9020005F03FFEBAF9040053E3DFF84A
:102BE0008CA2BAF9380105F036FEBAF93A0105F0BF
:102BF00032FEBAF93C0105F02EFED5E7102005F0B3
:102C000027FE4FF0000A904B13F80A000AF1010A60
:102C100005F0F1FDBAF1100FF5D16EE3382005F0A3
:102C200017FEDFF844A20AF1400BBAF9780005F06C
:102C300012FEBAF97A0005F00EFEBAF97C0005F032
:102C40000AFE0AF1080A9AF8760005F0D4FDDA4582
:102C5000EBD152E3002005F0FBFDDFF80CA20AF1F6
:102C6000400B04F0F3F8AAF8780004F0EFF8AAF8A3
:102C70007A0004F0EBF8AAF87C0004F0DDF80AF121
:102C8000080A8AF87600DA45EBD136E36F4B13F881
:102C90000A000AF1010A05F0AEFDBAF1100FF5D1F4
:102CA0002BE3102005F0D4FD4FF0000A684B33F9F8
:102CB0000A000AF1020A05F0CEFDBAF1100FF5D1B3
:102CC0001BE3102005F0C4FD584BDFF8A8A1D87A0B
:102CD00005F091FD5F4B187805F08DFDDAF80000E6
:102CE00005F0C3FDDAF80400DFF880A105F0BDFDB2
:102CF000BAF9020105F0AFFDBAF9040105F0ABFD28
:102D0000BAF94401BFE2DFF870A1062005F0A0FD8A
:102D1000BAF9000005F09FFDBAF9020005F09BFD2D
:102D20004D4B07E0062005F093FD4C4B186805F06D
:102D30009CFD4B4BB3F90000A5E2DFF830A1072062
:102D400005F086FDBAF83C004FF6FF7BFF28A8BFD0
:102D5000FF20C0B205F04FFDDAF850005845A8BF7B
:102D6000584620EAE07000B205F075FD3D4BB3F91E
:102D7000000005F070FD2E4BDAF8440093F80A319C
:102D80000028B8BF40422BB10A2358435845A8BF7A
:102D9000584602E05845A8BF584600B273E2DFF833
:102DA000C8A0072005F054FD9AF81F0005F023FD88
:102DB0009AF8200005F01FFD9AF8230005F01BFD8E
:102DC0009AF8240005F017FD9AF8250005F013FD88
:102DD0009AF8210005F00FFD9AF8220034E11E2038
:102DE00005F036FDDFF894A00AF10A0B0AF1010A9A
:102DF0009AF8010005F0FFFC9AF80B0005F0FBFCC7
:102E00009AF8150005F0F7FCDA45EFD175E22F20AE
:102E100005F01EFDDFF868A01AF8010F002800F089
:102E20006C8205F0E8FCF7E7DE0D002028070020A3
:102E3000181A00200C0000C0040000C0C70D0020BC
:102E400030000020F80D002008000020D01D0020D8
:102E50009807002000020020CC010020E40100209F
:102E6000D4030020C6010020E81D0020C00C002073
:102E7000AC020020180200209C030020E71D002067
:102E80001F0D01089BF81C319A4580F03682C54B16
:102E90001AF80320C44B0AF1010A03EB4203B3F909
:102EA000460005F0D8FCEDE7824408F10108BF496F
:102EB00091F81C0180450CDBBBF1000F00F01D8276
:102EC0005FFA8AF005F0C4FC4FF0000B4FF00008E9
:102ED000EDE701F20711B64818F801104FF00C0E9B
:102EE0000EFB0101496B084604910AF09CFF8446E1
:102EF000BBF1000FD8D159466145D6DA049A505C2F
:102F00000291CDF80CC005F076FC0299DDF80CC0FA
:102F10000131F1E7A74AA3495244127A1BF8010094
:102F2000904203D1019305F066FC019B0AF10C0A63
:102F3000BAF1FC0FEED10BF1010B93F81C21934574
:102F400080F0DB814FF0000AE4E7DFF894A216205E
:102F500005F07EFCBAF91C0105F07DFCBAF9D00041
:102F600005F079FCDFF840B2BAF9D20005F073FC45
:102F7000BAF9D40005F06FFCBBF9BA0005F06BFCA0
:102F80009AF82C0105F037FC9AF82D0105F033FC76
:102F90009AF82E0105F02FFC9AF80A0105F02BFC97
:102FA0009AF8260105F027FC002005F024FCBBF967
:102FB00028000A2390FBF3F005F04DFC9AF80B0172
:102FC00005F019FC9AF80D0105F015FC9AF80C01B2
:102FD00005F011FC37E0082005F03AFC4FF0010A3B
:102FE0005FFA8AF00AF1010A05F005FCBAF1090F4F
:102FF000F6D182E103F020FF03461220019305F091
:1030000027FC019B0BB96C4A02E0102B05D16B4ADF
:10301000D2F800B0D2F804A002E04FF0000AD34684
:10302000184605F0E8FB584605F01FFC504605F031
:103030001CFC634B186805F018FC002005F00BFC25
:10304000002005F008FC002005F0D5FB55E103F059
:10305000F3FE834603F004FF039003F001FF0190A9
:1030600003F0FEFE824603F0F1FE03F0EFFE03F0F4
:10307000E3FE039A019BBBF1000F0FD14E4981E89B
:103080000C00504B012283F807B01A73BAF1000FFD
:103090003FF4D4AC4A4BC3F800A0CFE4BBF1100F0F
:1030A0007FF4CCAC454981E80C00BAF1000F02D0A6
:1030B000434BC3F800A04148434B0222011D1A7044
:1030C00003F0C4FABAE43F4B5B78002B7FF4B6AC54
:1030D000012007F07DFCB1E43A4B5B78002B7FF4D4
:1030E000ADAC3A494FF4C8730B80A7E4354B5A781E
:1030F000002A7FF4A3AC01229A739FE4314B93F82A
:1031000001A0BAF1000F40F0F4805046012104F014
:1031100005FE504693E42E4B33F90A000AF1020AE9
:1031200005F099FBBAF1080FF5D1E6E0DFF878A0D9
:10313000042005F08DFBBAF92C0005F08CFBBAF9E0
:103140002A00A0E00C2005F083FB224B186805F054
:103150008CFB214B186805F088FB204B1868C5E0F4
:1031600093F85221934580F0C880DFF878A01AF8D0
:103170000B00019305F03FFB0AF1100212F80B005F
:1031800005F039FB0AF1200212F80B000AF1300AAF
:1031900005F031FB1AF80B0005F02DFB0BF1010BCC
:1031A000019BDDE7C70D0020E81D0020C00C0020BA
:1031B000200D0108500D010804020020100200201B
:1031C000E0010020280700200C020020C81E00207B
:1031D0000A0E0020E8F7FF1FECF7FF1FF0F7FF1FB4
:1031E000181A0020130E0020002005F031FB03F018
:1031F00023FEDFF858A10023CAF808308AF805003A
:1032000003F02EFEDAF808301843CAF8080003F07D
:1032100013FE8AF8170103F019FEAAF8E60003F07E
:1032200015FEAAF8E80003F011FEAAF8EA0003F080
:103230000DFEAAF8060103F009FEAAF808015CE0F9
:10324000DFF808A1102005F003FB9AF8050005F04F
:10325000D2FADAF8080005F008FB9AF8170105F031
:10326000CAFABAF9E60005F0F6FABAF9E80005F08C
:10327000F2FABAF9EA0005F0EEFABAF9060105F039
:10328000EAFABAF9080105F0E6FA36E0082005F096
:10329000DFFA4FF0000A2D4B534493F80F010AF167
:1032A000010A05F0A8FABAF1080FF4D125E003F0FD
:1032B000C3FD264B53440AF1010ABAF1080F83F803
:1032C0000F01F4D119E0132005F0C2FA4FF0000A03
:1032D0001F4B13F80A000AF1010A05F08CFABAF143
:1032E0000B0FF5D1002005F0C0FA002005F0BDFA63
:1032F00003E00120002105F08DFAD9F8003018799B
:1033000005F079FAD9F80030002283F84920FFF758
:10331000E1B80137FFF7C1B89AF8003023B133683C
:103320009B0600F1A082B5E2AA68084B1705F6D506
:10333000084A1278002AF2D093F83B21AAB993F8F0
:103340003C315BB9044B5B780AE000BF181A0020DF
:10335000D31A0108B40C002028070020D44A137D9A
:10336000003318BF0123002BD9D095F83A31002B38
:1033700040F08581CF4BD86805F033FA002840F043
:103380007E81CD4FD4F898113A68CC4B511A7C29E4
:10339000B84640F27481C3F8982193F89C210746FF
:1033A000013283F89C2107F12400DFF810A3C0B29A
:1033B00005F00AFB0AF59C7333F9170008F01CFBB3
:1033C000BF4B8346188808F017FB0146584608F0A3
:1033D0001BFCBC4908F064FB08F028FD013700B273
:1033E00005F01EFB032FDED1302005F0EDFAB64BC1
:1033F000B3F9000005F014FB05F0F4FA9AF89C010B
:1034000010F0030B2CD1DFF8D0A2102005F0DCFA6D
:10341000DAF80030642793FBF7F000B205F000FB08
:10342000212005F0D1FADAF8003093FBF7F007FB22
:10343000103787EAE770A0EBE77000B205F0F0FA0A
:10344000142005F0C1FAA14BB3F9000005F0E8FA29
:103450001C2005F0B9FA584605F0E2FA05F0C2FA68
:1034600094F89C31954F580740F0E380022005F016
:10347000ABFAB7F99E014FF00A0A90FBFAF005F09B
:10348000CFFAAB68990760D5BB8F4FF06E0B0BFB83
:1034900003FB15239BFBF3FB3A2005F095FA1FFA7B
:1034A0008BFB6422BBFBF2F90FFA89F0039205F063
:1034B000B7FA3B2005F088FA039A02FB19B080B2F4
:1034C0000530DFF818B290FBFAF000B205F0A8FA68
:1034D0009BF80030BA8F40F6340192FBF3F24A4376
:1034E0002A21B2FBF1F2B7F8A01191FBF3F003FB34
:1034F00010131B019BB243EA02239BB2C2F30322C7
:1035000043EA0209062005F05FFA0FFA89F005F098
:1035100087FAB7F8A0219BF80030013292B292FBF3
:10352000F3F103FB11232820A7F8A03105F04CFA92
:10353000786C90FBFAF000B205F072FA042005F006
:1035400043FAB7F9500005F06BFA33689A066ED566
:10355000DFF88CA15E4FDAF800303C2183EAE37C8F
:10356000ACEBE37C5B4B13209CFBF3F207FB02CC40
:1035700001FB0CF9029199FBF3FB0193039205F017
:1035800023FA039A02EB820202EB82020BEB820027
:1035900007FB0B9B00B205F043FA4FF47A791B202E
:1035A00005F012FA9BFBF9F000B205F039FA23207E
:1035B00005F00AFADAF80020002AACBF4E205320AA
:1035C00005F02EFADAF80420019B82EAE27BABEBED
:1035D000E27B9BFBF3F207FB02BB0299122001FB8B
:1035E0000BF1039291FBF3FB029105F0EDF9039AC5
:1035F00002EB820202EB82020BEB820000B205F0CA
:103600000FFA1A2005F0E0F9029907FB0B1191FB64
:10361000F9F000B205F004FA222005F0D5F9DAF845
:103620000430002BACBF4520572005F0F9F905F018
:10363000D9F994F89C31282B21D1204B0022D8F8BD
:10364000007083F89C214FF47A73B7FBF3FA1720CC
:103650003C2705F0B9F9BAFBF7F9B9FBF7F007FB1E
:103660001090000200B205F0DBF9182005F0ACF96B
:1036700007FB19A000B205F0D3F905F0B3F995F8EE
:103680003A31012B7FF44BAE0A4DE86805F0A9F8FA
:1036900000283FF444AEE86805F09EF80746052090
:1036A00003F087FB8A2F4AD08E2FEDD11AE000BF9E
:1036B000B001002050060020141A0020C00C002089
:1036C0003000002000007A44D4030020CC01002008
:1036D000806967FF80969800B40300202C000020CA
:1036E0001802002000212E226E480AF07AFB7C236B
:1036F00084F8CE31E02384F8D1317D2384F8FA3187
:10370000A38F84F8CF71DAB21B0A84F8ED3184F804
:10371000E331142384F8E63184F8E7314FF4FA7387
:10372000A4F8E8314823A4F8F031782384F8EC2198
:1037300084F8E22184F8F2315A482E2190E033686F
:103740009B06A1D5584D002105F5D1702C220AF019
:1037500048FB7C2384F8A231A02384F8A5317D2383
:1037600084F8CD31514B84F8A3711B7884F8BC31B7
:103770004F4BDB7A002B6ED04E494F4A0F68DFF873
:1037800050C197FBF2F06623C0B285F8CB31FB0F36
:103790000CFB00774FF0060E0EFB07F785F8AB31F8
:1037A00042F21073B7FBF3F900EB800003FB1977CB
:1037B00049685FFA89F900EB800009EB800080B26C
:1037C00091FBF2F2D2B285F8AC01000A85F8AD01A6
:1037D000C80F0CFB02110EFB01F185F8B00102EBE2
:1037E0008202B1FBF3F003FB101302EB8202C0B2C2
:1037F00000EB820292B285F8B121120A85F8B2215B
:1038000085F8B331B5F804211B0A85F8B431642377
:10381000B2FBF3F303EBC3039B009BB285F8A93122
:103820001B0A85F8AA31B5F8463185F8AE7185F8DE
:10383000B5311B0A85F8B631B5F802313F0A85F873
:10384000B7311B0A85F8B831B5F8483185F8AF7142
:1038500085F8BE3102E0202385F8CB3117482C21B2
:1038600003F082F810E7164ED4F8FC2133689A1A58
:10387000002A0FDB0D4A1278042A0BD90A4A03F5F5
:10388000123303F5F873C2F8FC310E4BDA6882F09C
:103890001002DA600C4B9B680BB10C4898470DB0D6
:1038A000BDE8F08F8E0E0020C00C0020000200202A
:1038B0002807002018020020A0860100620E0020C8
:1038C00064010020000C0140B00500205E0E0020C5
:1038D0006079FEFFAFF300802DE9F04F9B4B95B070
:1038E00093F82C31C4B2012B00F0E78002D3022BF5
:1038F00040F0C885242C964D0CD006D80A2C00F038
:103900008C800D2C00F08980C3E02A2C07D02C2C51
:1039100005D0BEE000232B706B70AB70CAE06A78F4
:103920002E782A4400218A4BD170EEB9DA789E7441
:10393000472A19D11A79502A16D15A79472A07D11C
:103940009A79472A04D1DA79412A01D101229A745D
:103950006A797F4B522A07D19A794D2A04D1DA79B4
:10396000432A04BF02229A74AB7C794F012B02D008
:10397000022B33D046E0B31E072B43D8DFE803F019
:10398000040810141C24422904F09CF8686139E0F2
:10399000EA786F4B532A35D15A6952425A6131E065
:1039A00004F090F8A8612DE0EA78694B572A29D1F4
:1039B0009A6952429A6125E0EA78664B302A94BFB0
:1039C00000220122DA721DE0002004F05BF8287763
:1039D00018E0002004F056F8E88313E0072E06D024
:1039E000082E0FD1012004F04DF878840AE0012060
:1039F00004F048F841F2184358434FF47A72B0FB90
:103A0000F2F33B84013600232A2C514A2E706B704E
:103A10004BD1012182F824104CE095F82430002B82
:103A200033D04B4BDB78402B04D9A3F13702120182
:103A3000D2B202E01B0103F0F0022B79A978402BEF
:103A40008CBF373B303BDBB21344DBB29942404A78
:103A50001AD1937C012B08D0022B15D1118C3E4B2F
:103A6000528C19803D4B1A800EE03A49C97A61B1F7
:103A70003B495069086090694860107F3949087077
:103A8000D18B394A118000E00023002285F82420E0
:103A900010E06B782E4A0E2B03D8591C134451703A
:103AA000DC7095F824302A4A1BB991784C40947008
:103AB00000E0002303F001032FE1254B002193F8E0
:103AC0002520082A00F22881DFE802F00B05141EE9
:103AD0002F506E8A9700622C01D1022207E083F8F2
:103AE0002510B52C40F0188193F82520013283F879
:103AF000252011E1032283F8252083F8264083F84E
:103B0000274083F8284007E1042283F8252093F812
:103B1000272093F828102244D2B283F827200A44A1
:103B200083F8282083F82940F6E0052283F8252031
:103B300093F8272093F828102244D2B283F8272044
:103B40000A4483F828205C85E6E000BF181A0020AC
:103B5000C00E002028070020C40D0020040E002005
:103B60001802002000020020C20D0020062183F868
:103B7000251093F8271093F828002144C9B283F840
:103B80002710014483F82810598DB04A01EB042412
:103B9000A4B2B4F5007F89BF00215485518582F815
:103BA000251000229A85B7E093F8272093F8281073
:103BB0002244D2B283F827200A4483F828209A8D21
:103BC000C72A03D8A149114481F83040013292B28A
:103BD0009A855B8D934240F09F8007229B4B86E73E
:103BE000082283F8252093F82730A34200F0948020
:103BF000964A002382F825308FE083F8251093F849
:103C00002810924AA14240F0878092F82910062994
:103C10003BD004D8022911D0032923D07CE01229FB
:103C200049D0302978D192F83410894A102988BFB8
:103C3000102111701078874900224AE08649506BA4
:103C40004860906B0860116C4FF47A7091FBF0F152
:103C500082480180824992F8F800C872012182F8F6
:103C6000F9104BE092F8351011F0010105D092F8EF
:103C70003420D01E4242424100E00A4683F8F82038
:103C8000002A3BD17649CA7238E092F83B1011F015
:103C9000010105D092F83A20D11E4A424A4100E083
:103CA0000A4683F8F8200AB96D49CA7293F85F1082
:103CB0006C4A117022E0516C6B480180916C42F2A9
:103CC000107091FBF0F169480180012182F8FA102F
:103CD00014E0824201F10C0110DA11F8045C644C2A
:103CE000155511F8035C634C155511F8015C624CD5
:103CF00015550D78614C15550132EAE793F8F93006
:103D0000524A4BB192F8FA3033B1002382F8F930BD
:103D100082F8FA30012300E00023002B00F0B28388
:103D2000574B9A68DA60574A116890469960564B2B
:103D3000196841F020011960544B197801290CBF12
:103D4000002201221A70464BDA7A002A00F09A8388
:103D5000444A1278042A40F295835A7802B91A73B9
:103D60001B7B13B90AB103F0BBFB384C4FF0050EB7
:103D700094F8FB3004F1FA06013393FBFEFE0EEBE0
:103D80008E0ECEEB030E424B84F8FBE01B780396BD
:103D9000049304F5807303EB8E0E00232E493D4AF5
:103DA0005D583D4E9D5095FBF6F002F10806985186
:103DB0003A4E5F1806FB005542F2107C95FBFCFC66
:103DC0000597039F1FFA8CFC02F1100A27F802CF17
:103DD00003EB830B53F80A6003975EF80B704EF801
:103DE0000B50C7EB060909EB0506052543F80A60E9
:103DF00096FBF5F6284D183205FB0060049E98509E
:103E0000012E0F4606D1ACF1020CBCF5797F9CBFA8
:103E1000059A10600433082BC0D10C4DD8F800006F
:103E2000D5F84831C01A07F0E3FD1D4907F0ECFE54
:103E3000D8F800304FF07E51C5F84831064607F0FB
:103E4000CDFF78BB4FF07E502DE000BFC00E0020AC
:103E5000120E0020F00E002018020020C20D0020DB
:103E60002807002000020020C40D0020040E0020BE
:103E7000130E0020230E0020330E0020430E0020DE
:103E8000E4070020141A0020AC050020C60D002015
:103E90000C020020E80F002080969800806967FFE0
:103EA00000007A44304610AAC5F84C01B44B009289
:103EB00011AA019297E803000CCB03F0B0FA109A14
:103EC00064231198AF4992FBF3F20A8090FBF3F35D
:103ED000AD4AAE481380037B81460BB90B8013803B
:103EE00095F85031AA4E002B3AD0D6F84C114FF02D
:103EF0007E5007F089FED6F8543180463868C01AE3
:103F000007F07AFD414607F0CBFD07F08FFFD6F8AA
:103F100058211FFA80FA78680FFA8AFA801A07F097
:103F20006BFD9C4B196807F0BBFD414607F0B8FDDF
:103F300007F07CFFB6F95E3100B2C218B6F95C3109
:103F40000221534492FBF1F293FBF1F392B29BB244
:103F5000A6F86221A6F86031A6F85E21A6F85C31C9
:103F6000012385F850317968386899F80830C5F828
:103F70005811C5F8540123B9844BDB79002B00F0AC
:103F80008182834E06F5B673009306F5B8730193EC
:103F9000D4F86421D4F8683103F041FA7B68D4F88E
:103FA0006801C01A07F028FD7A4B196807F078FD00
:103FB00007F03CFFD4F864313A68C4F878019B1AE2
:103FC000C4F87431744B93F90030012B03D0022BE9
:103FD00000F0F48056E2D6F87C51D6F8984103956B
:103FE000D6F88C71D6F8905104F1004006950497EC
:103FF00007F01CFF8146204607F018FFD6F84C81D9
:10400000D6F8946107904046059607F085F9634B12
:10401000044693F8C4000D4607F0EAFC07F07CF96B
:1040200055A3D3E9002307F0CBF902460B46002045
:104030005B4907F0EFFA2B46224607F00FF80246DD
:104040000B462046294607F0E5FACDE90801554E12
:104050000025554C54F81570A4F11403384635F872
:1040600003A007F0C9FC039907F01AFD07F0DEFE74
:10407000CAEB000080B22834285304B2204607F06F
:10408000BBFC049907F00CFD07F0D0FE1FFA80FB83
:10409000E01907F0B1FC069907F002FD414607F070
:1040A000FFFC316807F0F4FB07F0C0FE484504DB75
:1040B000079A9042A8BF104600E0484607F09CFCD3
:1040C000306007F0B3FEB46858441FFA80FB204606
:1040D00007F022F9CDE90A0170680AF1310A381AAD
:1040E00007F08AFC414607F08FFD214607F0CEFB22
:1040F00007F012F902460B46DDE9080107F060F906
:1041000002460B46DDE90A0106F0A8FF07F06AFB4C
:104110001FFA8AFABAF1620F014630617760B06027
:104120000ED9059807F0BCFC07F080FE1F4BB0F5D8
:10413000FA6FA8BF4FF4FA609842B8BF184600E083
:104140000020834440F6B8330FFA8BFB9B45A8BF91
:104150009B46174B0A229B45B8BF9B466A43154BAB
:1041600056F8141B25F803B0134B0235042DD1501B
:1041700000F088816DE700BF182D4454FB211940E1
:1041800004020020060E0020080E00202807002050
:10419000C00E00204C0000200C020020E81D002072
:1041A0000000F03F540200203410002030F8FFFFE0
:1041B00048F4FFFF280200207C020020B64AD6F80F
:1041C0006CA1B2F9CA909AFBF3F39945A8BF99463E
:1041D000B6F8A0411FFA89F90FFA89F223B29A4280
:1041E0000BDDAE49D6F84C0107F05AFC07F01EFE75
:1041F00020441FFA80F9A6F8A091D5F87041D5F8AF
:10420000A461A61B304603F08FF90028D8BF4042B6
:1042100041F293139842CCBF0020012078B330467E
:1042200007F0EAFB9E4907F03BFC0AF0B9F80646A6
:10423000504607F0E1FB0146304607F031FC07F03D
:10424000F5FD80B240F6B83203B29342A8BF1346E0
:10425000944AA5F8A8019342ACBFE318A31848F606
:10426000A042934203DDA3F50C43A03B04E0002BE6
:10427000BCBF03F50C43A033C5F8AC3101E0C5F871
:10428000AC41D5F8AC61C6F50C502830039607F068
:10429000B3FB834907F004FC04460AF00DF81390C1
:1042A00020460AF07DF8D5F8BC41D5F8B071D5F8B4
:1042B000B461129004F100400597089607F0B6FD2E
:1042C0000490204607F0B2FDD5F84CB1D5F8B851AE
:1042D0000A905846079507F01FF86F4B044693F86D
:1042E000C4000D4607F084FB07F016F868A3D3E975
:1042F000002307F065F802460B4600206A4907F0E4
:1043000089F922462B4606F0A9FE02460B462046B6
:10431000294607F07FF9CDE90C01644E00270FFA1A
:1043200089F007F069FB12AB53F8171007F0B8FBE0
:104330005F4C0546E05F07F05FFB0146284607F04B
:10434000A5FA07F073FD5B4B0FFA80F8B8F57A7F9A
:10435000A8BF4FF47A789845B8BF98461FFA88F0FE
:104360003C34385300B207F047FB0599044607F088
:1043700097FB07F05BFD80B206900899204607F096
:104380008FFB594607F08CFB316807F081FA07F084
:104390004DFD049DA84204DB0A9DA842A8BF284603
:1043A00000E0049807F028FBB4680546306020461A
:1043B00006F0B2FFCDE90E0170681436C0EB0800BC
:1043C00007F01AFB594607F01FFC214607F05EFA7A
:1043D00006F0A2FF02460B46DDE90C0106F0F0FFF5
:1043E00002460B46DDE90E0106F038FE07F0FAF949
:1043F00046F8108C014646F8040C46F80C0C079859
:1044000007F04EFB07F012FD069C0444284607F017
:104410000DFD204440F6B83300B29842A8BF1846BC
:10442000204B0A229842B8BF18467A43224BF852D2
:10443000224B0237042FD5507FF471AF164B93F8FF
:10444000C6202AB1039E64211D4A96FBF1F111801A
:10445000B3F8C2301B4C9A450DDDD4F8A431D4F822
:104460007001C01A03F060F842F210730028B8BF60
:104470004042984206DD144B01221A70B4F8C02164
:104480000F4B1A8015B0BDE8F08F00BFAFF300806E
:10449000182D4454FB211940E81D00200000C8429B
:1044A000D302373948F4FFFF0000F03F7C020020C0
:1044B0002010002018FCFFFF2802002054020020DA
:1044C000FC010020C00E00200C0200202DE9F04766
:1044D000714B86B01A78994642B901236F4889F822
:1044E000003004F0D9F96E4804F0D6F96D4D286813
:1044F00004F077F9AA46002800F0CB80286804F081
:104500006BF909280146684C01D03F2859D14FF07A
:104510000008D4F8C461654F45462EB16448396837
:10452000324609F089FC10B9B84605B93D46614BE1
:104530000C379F42F1D305B3D5F800E0D8F800C09E
:10454000D4F8C43158481EF803701CF80310B9425F
:1045500013D15A1C59B92D2B09D8C0F8C4210344D2
:104560002027024483F8C87182F8C81105E023446B
:1045700083F8C871C4F8C421E2E7D4F8C4310BB1A0
:10458000454512D04C4804F087F9454509D855F8FF
:104590000C0B04F081F9DAF80000092104F026F987
:1045A000F3E73F4804F078F90026D4F8C4319E427E
:1045B0009CD23F4BDAF80000995D04F017F9013600
:1045C000F3E7D4F8C43133B904283BD104F5E470DF
:1045D00005F074FE5DE00C2801D1384881E70A2916
:1045E00001D00D294AD1364804F056F9D4F8C43127
:1045F0002F4EE218002382F8C8310493314B03A8F0
:1046000000932A4910220C23039609F0BFFC0546AB
:1046100038B1006809F007FC0130AB6830449847B6
:1046200002E0294804F038F921480021302209F03D
:10463000D8FB0023C4F8C43199F80030002B7FF474
:1046400052AF26E00C28C8D07F2903D14EE72F2B8C
:104650003FF64CAFA1F12002D2B25E2A3FF646AF40
:1046600013B920293FF442AF5A1CC4F8C42128686A
:104670001C4484F8C81104F0B9F837E77F29E6D163
:10468000013BC4F8C4310022234483F8C8210F48F9
:104690002AE706B0BDE8F087BD1E0020752001089E
:1046A000AD20010850060020C00E00202C0F01088C
:1046B00088100020EC0F0108B2200108B720010883
:1046C000C9270108416D0008C2200108E320010844
:1046D00073B51D4D4FF4805604466E61F52002F00F
:1046E000F9FF0DF107000021012205F072FD2E6196
:1046F0009DF80730702B24D1144B154ABB2C1A603F
:10470000144A5A60144B154A1A60154A5A60154AE1
:10471000DA60154B02D90120187113E0612C01D920
:1047200002220BE0292C01D9032207E0132C01D926
:10473000042203E0092C8CBF052206221A710120F5
:1047400000E0002002B070BD000C0140C405002054
:10475000CD6A0008ED910008B0050020D94B000893
:1047600011A20008184492314C000020AFF30080E1
:104770008E4B2DE9F04FB3F90220B3F90030002A37
:10478000B8BF5242002BB8BF5B429A42ACBF9346BF
:104790009B46874B8BB0D8781B796FF0040103934D
:1047A000844B0290B3F8F8305A420493824B05923E
:1047B0001A7F1C7A51439B7C02EB820209930023EF
:1047C0000691089207941A461E461D461946029FF6
:1047D00017B9039800283ED0022936D07348059CAB
:1047E000165E7648105E00EB4606A64204DB049F88
:1047F000BE42A8BF3E4600E0059E7148DDF81CC0E1
:10480000105E361A6C481044B0F92A4064202644E1
:104810000CFB06F595FBF0F50698854204DB089C39
:10482000A542A8BF254600E0069D664C099F185981
:10483000304442F21076B042A8BF3046624EB042D9
:10484000B8BF3046185178430613029818B1039C3C
:104850000CB902295AD15D4C574F32F904C0534864
:104860005B4C8CEAEC78A8EBEC780F44B8F5207F31
:10487000105E97F8019053F804A01FDC022916D0AF
:104880004FF0500808FB00F898FBF9F9CCEB090948
:10489000CA44DFF844C1BAF57A5FA8BF4FF47A5A28
:1048A000E245ACBF44F803A044F803C00AE080EA44
:1048B000E078A8EBE078B8F1640FE1DD4FF0000C90
:1048C00044F803C0424C53F804C07D249CFBF4F42C
:1048D00097F80BC0039F0CFB04F4A41197B10229B5
:1048E00016D00BFB00F00BFB04F4CBF5FA7808FBB9
:1048F000050008FB06444FF4FA7790FBF7F094FBB1
:10490000F7F405E0029F1FB1022901D03446284682
:104910002E4FDFF8C8C0D75B11F80CC00FFA87F82C
:104920000CFB08FC6FF04F099CFBF9FC6044009005
:10493000284832F9009000F1140AC9EB080900F187
:10494000080853F80AC0175253F8087043F8089043
:10495000DFF88C80BC4411F80880CC4443F80A701E
:1049600008FB0CF74FF0200897FBF8FA009FDFF8E0
:104970007480CAEB0409B94422F80890013100F1AF
:10498000200843F8087000F12C0CCAF100073830F9
:10499000032943F80C401F5002F1020203F1040303
:1049A0007FF415AF0BB0BDE8F08F00BFEA01002027
:1049B00028070020181A0020E81D002020020020EF
:1049C0009C030020D8010020F0D8FFFFFE0D00203E
:1049D00050050020B810002080C1FFFFCE0C002041
:1049E000D40C0020441200202DE9F04F584B5949B7
:1049F00093F82420B1F904101B324A4389B05211B4
:104A00000292554A93F82310D77812790024059220
:104A10009A7C1B7A1B310793504B06921B884FF6EA
:104A2000FF7201931B0903970491B2FBF3FB254628
:104A30002646022E32D0474B494A35F90380494B6E
:104A40004949EB5EAA5E4344B3F5FA7FA8BF4FF431
:104A5000FA738B42ACBFC2EB0303C2EB01033C4AC7
:104A60002A44B2F92A00184406F0C6FF3F4907F06D
:104A7000CBF807F0DBF9039B5BB9049F059A08FBB1
:104A800007F84FEA28185AB1069B584308EB20282C
:104A900006E0079F78434FEA201801E0DDF8088020
:104AA000334B2B4AE85E019BC0EB080003FB00F888
:104AB00030493244635892F80B904FEAE82809FBDA
:104AC0000833DFF8BC80B3F5001FA8BF4FF4001314
:104AD0004345B8BF434663505913274B92F801C072
:104AE000E75803F10C08C7EB00090BFB09F903F1C8
:104AF000180A54F80870E0500CFB00FC54F80A0047
:104B00004FEAA919527D3844484450434FEAEC1CFF
:104B1000001244F80890194A00EB0C08884425F864
:104B200002800136A3F1240244F802C0032EA3F14F
:104B30001802A3F10C0344F80A70A150E05005F1EB
:104B4000020504F104047FF474AF09B0BDE8F08FEE
:104B5000E81D0020EA01002028070020EC030020C7
:104B60009C030020200200200CFEFFFF00002041DB
:104B7000FE0D002050050020FC10002044120020F3
:104B80000000E0FF08B5084803F086FE0121002080
:104B900003F0C4F8054803F07FFE0A2002F009F98B
:104BA000034A044BDA6008BDE7200108F120010840
:104BB0000400FA0500ED00E070B5064C4FF4805596
:104BC0000E46656102F086FD304602F083FD2561E8
:104BD00070BD00BF000C01401E4B13B51B6804469E
:104BE000012B0EDD4FF40053ADF8043002238DF895
:104BF0000730042318480DEB03018DF8063002F04E
:104C0000E2F880216B20FFF7D7FF642002F0D1F893
:104C100000216B20FFF7D0FF642002F0CAF86B2060
:104C20000121FFF7C9FF1B201821FFF7C5FF1C203A
:104C30001021FFF7C1FF094B1A201978FFF7BCFFBD
:104C400019200021FFF7B8FF0CB1054B1C7002B012
:104C500010BD00BFC41E0020001001405000002005
:104C600094000020F0B5934C934A23689D8AADB21E
:104C7000E9B211F0010F36D0198821F4006109045E
:104C8000090C1980198889B241F4806119800021CA
:104C900082F86810894908788949B8B192F86900A2
:104CA00018B988480078FF2810D1012082F86900DF
:104CB00085480078022804D1188880B240F400604A
:104CC0001880097841F00101198216E1097801F094
:104CD000FE0119827B4B1B78FF2B00F00E81FF2316
:104CE00082F8683009E18F0740D5BFF35F8F7649BE
:104CF0000878C0B2012816D1704D2D789DB192F878
:104D0000695085B1198821F480610904090C198062
:104D1000BFF35F8F198B198882F86A0089B241F45A
:104D2000007119801DE0188BBFF35F8F087802288F
:104D30000CD16248007848B192F8690030B1198806
:104D400021F480610904090C1980D0E00978032955
:104D500007D15A49097821B192F86910002940F029
:104D6000C680998889B241F48061C5E04E0764D558
:104D7000012182F86A105149097800293ED092F841
:104D8000691000293AD0504992F8680009784F4DCF
:104D9000022919881FD921F480610904090C19809E
:104DA0001F8A2E68C1B2FFB240B23754188880B251
:104DB00040F4007018808B1C82F8683023682868E3
:104DC0001D8A013149B2EDB24554998889B241F446
:104DD000806199802CE089B241F4007119801E8AAB
:104DE0002D68C1B2F6B240B22E541B8A481C40B2A4
:104DF000DBB203312B5482F8681019E092F8691085
:104E000011B93349097851B1198889B241F4007157
:104E1000198092F86830013382F8683008E0198808
:104E200089B241F480711980234B012183F8691004
:104E300021680B88D805FCD45FE001F0400101F047
:104E4000FF06214809B32149B3F810C00F6892F852
:104E500068105FFA8CFCCDB26E1C49B2F6B207F84E
:104E600001C082F86860077876B2F11C8F4205D1E4
:104E7000998821F480610904090C99800378B34270
:104E80003BD1023582F8685037E0290635D592F8D3
:104E900068104DB26F1C1FD00E4E01313668C9B27A
:104EA000755D82F86810EDB21D82007849B28842C3
:104EB00023D11CE098130020B8100020A01300207C
:104EC0009D1300209E130020AC130020A41300208B
:104ED0009F130020A8130020144982F86860097805
:104EE000C9B219821249097809B9017829B9998892
:104EF00021F480610904090C99800E4B92F9681025
:104F000018780D4B421C91420FD1002283F8692082
:104F100093F86A3033B12268938823F440731B04FA
:104F20001B0C9380054B00221A70F0BD9E130020CD
:104F3000A0130020AC130020B8100020AD130020F7
:104F400038B5124B124D1A78124C296852B9E26EDC
:104F50003232914219D30120187001F0FEFE2B6805
:104F6000E36638BDE26E024491420ED30020187011
:104F700001F0F3FE2B68E366074B1A780AB1013A99
:104F80001A70012384F8703038BD38BD180D002028
:104F9000141A0020B8100020BE1E002037B5254D81
:104FA0008DF8073095F871308DF8062002AA8DF83B
:104FB00004008DF805101A4412F8042C443AD2B2B9
:104FC0000A2A2FD81C49022B31F8124003D814B1F9
:104FD0002046FFF7B5FF95F87130164A022B0AD923
:104FE000164B1968D36E091B8B4204D2002382F83A
:104FF0007130134A137095F87030012B00D0B4B99A
:1050000095F87130022B03D80A4A013382F87130C7
:105010000C4B002085F87000187003B0BDE83040DC
:1050200001F09BBE022B4FF03204D1D9D3E703B07D
:1050300030BD00BFB8100020580E0108141A00201F
:10504000BE1E0020180D00200449054B09680022EF
:105050001870DA6159621A62704700BF141A002092
:10506000E4070020104B114A9B68128810B51A42C1
:105070000F4C03D001F078FE606710E001F074FE81
:10508000636F98420BD9C01A3B220A4BB0FBF2F077
:10509000B0F5967F1B68C8BF4FF0FF301860064B15
:1050A0001A68064B5A6110BD000C01400E08002022
:1050B000B8100020E4030020100800200004014084
:1050C00070B504682A4D037BAC420DD0B4F1804F1B
:1050D0000CD0A5F59435AC420AD005F58065AC42FC
:1050E00014BF0424032404E0002402E0012400E0AF
:1050F000022433B1042B34D0082B34D00C2B0ED126
:1051000033E01D46042C0AD01A4E05EB840406EB4E
:105110000414C4F8802084F87C3084F88410027B66
:1051200003680C2A23D8DFE802F0072222220C228F
:1051300022221122222216009A8992B242F0020201
:105140000DE09A8992B242F0040208E09A8992B284
:1051500042F0080203E09A8992B242F010029A816A
:1051600070BD0125CEE70225CCE70325CAE770BD57
:10517000002C0140B8100020134B026810B51C68C9
:10518000D1430C401C605C682140596019680A4397
:105190001A6002689C68D1430C409C60DC68214026
:1051A000D9604179102906D1996811439960D9686D
:1051B0000A43DA6010BD01F1804303F582331968B8
:1051C0000A431A6010BD00BF00040140254B10B512
:1051D0005343254A254C12680139B2FBF3F2038888
:1051E000013AA04289B292B29BB212D004F5006497
:1051F000A0420ED0B0F1804F0BD0A4F59834A0425D
:1052000007D004F58064A04203D004F58064A04276
:1052100002D123F070039BB2154CA04206D004F5D6
:105220008064A0421CBF23F440739BB203800F4BE9
:105230008185984202850FD003F5006398420BD018
:1052400003F54063984207D003F58063984203D08A
:1052500003F58063984201D10023038601238382F2
:1052600010BD00BF40420F0098000020002C0140FC
:105270000010004013B50222044601AB1B21682038
:1052800003F040FD9DF804209DF8053043EA022319
:1052900003F54E534FF48C72103393FBF2F3233328
:1052A000238002B010BD07B5002101AB0322772097
:1052B00003F028FD9DF805009DF80430000240EA47
:1052C00003409DF80630184303B05DF804FB08B5B1
:1052D000FFF7E9FF014B186008BD00BF3012002046
:1052E00008B5FFF7E0FF014B586008BD3012002001
:1052F000104B13B51B78104C13B92389013323814C
:1053000001ABF6210322772003F0FCFC9DF8053069
:105310009DF804201B0243EA02439DF80620134334
:10532000064AB2F92020C2F10802D340E36002B07D
:1053300010BD00BFBC1E002030120020D805002088
:105340000B4B13B51B780B4C13B923890133238105
:1053500001ABF6210222772003F0D4FC9DF8042053
:105360009DF8053043EA0223238202B010BD00BF3E
:10537000BC1E0020301200201FB504466B463B21A6
:105380000622682003F0BEFC9DF800209DF8013045
:1053900002A843EA0223ADF808309DF802209DF8E8
:1053A0000330214643EA0223ADF80A309DF8042079
:1053B0009DF8053043EA0223ADF80C30024B1A7811
:1053C00003F0F0F804B010BD540000201FB50446EF
:1053D0006B4643210622682003F094FC9DF80130BF
:1053E0009DF800209DF8021043EA022212B2042325
:1053F00092FBF3F2ADF808209DF8032002A842EAE0
:10540000012212B292FBF3F29DF80410ADF80A20CB
:105410009DF8052042EA012212B292FBF3F3ADF8A7
:105420000C30034B21465A7803F0BCF804B010BD91
:10543000540000201FB504466B46A82106226820B0
:1054400003F060FC9DF801309DF800209DF80210EB
:1054500043EA022212B2042392FBF3F2ADF80820D1
:105460009DF8032002A842EA012212B292FBF3F255
:105470009DF80410ADF80A209DF8052042EA0122AB
:1054800012B292FBF3F3ADF80C30034B21469A783D
:1054900003F088F804B010BD540000201FB5044686
:1054A0006B461D210622682003F02CFC9DF801307C
:1054B0009DF800209DF8021043EA022212B2042354
:1054C00092FBF3F2ADF808209DF8032002A842EA0F
:1054D000012212B292FBF3F29DF80410ADF80A20FB
:1054E0009DF8052042EA012212B292FBF3F3ADF8D7
:1054F0000C30034B2146DA7803F054F804B010BDA9
:10550000540000201FB504466B46012106221C20D2
:1055100003F0F8FB9DF801309DF800209DF8021083
:1055200043EA022242F38D02042392FBF3F2ADF828
:1055300008209DF8032002A842EA012242F38D02CE
:1055400092FBF3F29DF80410ADF80A209DF80520B7
:1055500042EA012242F38D0292FBF3F3ADF80C30E4
:10556000034B21461A7903F01DF804B010BD00BFAB
:105570005400002030B585B00622054603216B4655
:105580001E2003F0BFFB9DF801309DF800001A4C6F
:1055900043EA002000B206F02FFAA16806F080FA74
:1055A00006F044FC9DF80330ADF808009DF80200B9
:1055B00043EA002000B206F01FFA216906F070FAF3
:1055C00006F034FC9DF80530ADF80C009DF80400A1
:1055D00043EA002000B206F00FFAE16806F060FA34
:1055E00006F024FC2946ADF80A00227D02A802F04C
:1055F000D9FF05B030BD00BF540000201FB50446E0
:105600006B4602210622182003F07CFB9DF8003037
:105610009DF801209B0803EB0223ADF808309DF8AC
:1056200002309DF803209B0803EB0223ADF80A30FB
:105630009DF804309DF805209B0803EB0223ADF88C
:105640000C30044B02A821465A7D02F0ABFF04B097
:1056500010BD00BF540000202DE9FF41334B8046B0
:105660001B78002B3BD000242546264627460822DF
:105670000DEB02035320322103F044FB9DF8092077
:105680009DF80830013403EB02231BB29DF80B2078
:105690001F449DF80A30E4B203EB02231BB21E4400
:1056A0009DF80D209DF80C30202C03EB02231BB23B
:1056B0001D449DF80F3003F07F0301D0002BD6D19D
:1056C0001B4B97FBF4F796FBF4F695FBF4F5ADF85E
:1056D0000070ADF80260ADF804509C741DE0062225
:1056E00002AB5320322103F00DFB9DF809209DF8F9
:1056F000083003EB0223ADF800309DF80B209DF835
:105700000A3003EB0223ADF802309DF80D209DF81E
:105710000C3003EB0223ADF80430064B68464146DB
:105720009A7D02F03FFF04B0BDE8F081C105002082
:1057300030120020540000201FB504466B460321A0
:1057400006220C2003F0DEFA9DF803209DF80230BB
:1057500002A843EA0223C3EB83339B009DF8012098
:10576000ADF808309DF80030214643EA0223C3EB30
:1057700083339B009DF80520ADF80A309DF8043076
:1057800043EA0223C3EB83339B00ADF80C30054B97
:10579000DA7D02F007FF0A2101220C2003F02EFB24
:1057A00004B010BD540000202DE9FF4108B1634B47
:1057B0001875634B1B68012B0DD14FF48053ADF866
:1057C000043002238DF8073004238DF806305D483D
:1057D0000DEB030106E007DD04A94FF480435A48AE
:1057E00021F80C3D01F0EFFA322001F0E2FA00213D
:1057F00011221E2003F002FB012160221E2003F073
:10580000FDFA642001F0D5FA02A8FFF7B3FE0024E8
:105810000A2527462646022101221E2003F0EEFA21
:10582000322001F0C6FA02A8FFF7A4FEBDF9082055
:10583000BDF90A10BDF90C3014449142B8BF0A46B4
:105840001E449A42B8BF134613F5805F0F4409DD2A
:105850003C4B013DDA6882F01002DA60DBD14FF098
:10586000010801E04FF000081E200021122203F081
:10587000C5FA0A25022101221E2003F0BFFA3220B8
:1058800001F097FA02A8FFF775FEBDF90820BDF9EF
:105890000A10BDF90C30A41A9142B8BF0A46F61A94
:1058A0009A42B8BF134613F5805FC1EB070707DDC7
:1058B000244B013DDA6882F01002DA60DAD101E0AF
:1058C0004FF00008204606F097F801461F4806F002
:1058D0009BF91A4D20F00040A860384606F08CF87D
:1058E00001461A4806F090F920F00040E860304682
:1058F00006F082F80146164806F086F920F00040CE
:105900002861002170221E2003F078FA0121202254
:105910001E2003F073FA1E200221002203F06EFA0B
:10592000642001F046FAB8F1000F04D14FF07E5325
:10593000AB60EB602B6104B0BDE8F0815400002047
:10594000C41E0020000C01400010014000406F46C2
:1059500001C05E462DE9F04FAF4F8BB097F8008045
:10596000AE4CB8F1030F14D9AD4BAE48B3F90410E7
:10597000B0F918200029B8BF49426FF063035B1AE1
:105980009A4204DB01F164039342A8BF13460383E8
:105990001FE0B8F1010F1CD8A34E7379013B142B03
:1059A00000F22582DFE813F0A9002302230266003B
:1059B000BC002302230265012302230223022302E7
:1059C0002302DA0023022302230223022302C0015E
:1059D000F001934B94F9BEB0DA88924BCBF1000BF7
:1059E000B3F81690B3F814A0B3F918308F4D03FB39
:1059F0000BFB0026464505F11005CDD210B20292F0
:105A000005F0FAFF55F8101C06F04AF803460FFAA5
:105A100089F0039305F0F0FF55F8081C06F040F8F4
:105A2000039B0146184605F033FF03460FFA8AF040
:105A3000039305F0E1FF55F80C1C06F031F8039BC9
:105A40000146184605F024FF03465846039305F027
:105A5000D3FF55F8041C06F023F8039B01461846B3
:105A600005F016FF06F0E2F9714B029A23F81600D2
:105A70000136BFE794F89E206A4B12F0020F0CBF6C
:105A80004FF0010B4FF0FF3B042012F0010FB3F871
:105A90001890B3F816800CBF4FF0010A4FF0FF3A90
:105AA00001F004FA0BFB09FB0AFB08FA94F8A63094
:105AB0001FFA8BFB13F0020F0CBF01224FF0FF32D5
:105AC0005C4D584413F0010F1FFA8AFA82440CBF50
:105AD00001234FF0FF33052002FB09F903FB08F80F
