:020000040800F2
:100000000050002009E20008A9E20008DDB2000863
:10001000A9E20008A9E20008A9E200080000000027
:10002000000000000000000000000000A9E200083D
:10003000A9E2000800000000A9E2000899520008A7
:10004000A9E20008A9E20008A9E20008A9E2000864
:10005000A9E20008A9E20008A9E200086FA60008CA
:10006000A9E20008A9E20008A9E20008A9E2000844
:10007000B54B0008A9E20008E54B0008A9E200081A
:10008000A9E20008A9E20008A9E20008A9E2000824
:10009000A9E20008A9E20008A9E200086DA600088C
:1000A000A9E20008A9E20008A9E20008F387000815
:1000B000E9870008DD870008D1870008AB520008F7
:1000C0008F550008A95200088D550008A9E20008C4
:1000D000A9E20008714B0008014B0008CD4A000856
:1000E00071A60008A9E20008A9E2000800000000CB
:1000F0000000000000000000000000000000000000
:0C01000000000000000000005FF808F1A3
:100110002DE9F04F834C8DB0A36813F0080600F072
:10012000888094F81721042A00F28380DFE802F027
:100130000303065478007C4B19787BE07B4A1178E6
:10014000002976D0002113F4007F1170784B02D083
:100150009A7D15076DD4774A5F7800219D781180CC
:10016000197807F00700744A41EA002105F03F00C2
:10017000400140EAD7001160D978506018798900B1
:100180005F7941EA951100F0010541EA852191600E
:1001900007F00F01C90141EA50019D79D160D97979
:1001A00005F07F00490041EAD51100011D7A40EABF
:1001B0001710106105F0030041EA4021587A9B7A3C
:1001C000516100F01F018901DB0041EA950143EA1A
:1001D00050139161D3612AE0584A13784BB300233E
:1001E0001370574A5278012A23D1524A1380554B33
:1001F0001A78082A84BF08221A70534A18780023F4
:10020000D9B2814202F1020211D212F8025C12F854
:10021000011C41EA05214D4D45F823100133EFE75C
:100220004B4B1A782AB1434900220A801A700121E7
:1002300000E00021464B5A6898689B46101A002837
:1002400002DA002900F0B18302F59C422032CBF89B
:100250000820404D002E38D13F4FA846B946DBF864
:100260004C20F0B2904740F2DC51A0F2EE2292B264
:100270008A42DBF85030394A88BFB4F81C011A4072
:10028000002ABEBF02F1FF3262F0030201323049A0
:1002900002EB860201EB4202908139F836107A882F
:1002A00001360A44B988082E0A44F98807F108077C
:1002B0000A4412B24FF0040192FBF1F228F8022B2B
:1002C000CDD123495A1C0A6509E00026F0B2DBF8BB
:1002D0004C20904725F816000136082EF6D1A2686A
:1002E000500404D59BF854200AB90AF0E5FB94F8B1
:1002F00026210C49C2B3033235F91200A0F57A70F9
:10030000B0F57A7FA8BF4FF47A7020EAE0700BF066
:10031000D1FC13490BF0D6FD12490BF01FFD0BF079
:1003200009FF37E04C160020F8150020751A002050
:10033000761A0020521A0020281A0020591A00208C
:100340005B1A00205A1A00205E1A0020081A0020AA
:1003500008010020C61500201401002003000080C1
:1003600000007A4400C07F4491F8270198B19BF8BF
:1003700070200BEB4202B2F87200B1F82A2180B271
:10038000801AB1F82821C0EB802090FBF2F000B277
:1003900080F30A0080B2A2689F4E9105ABF87A0004
:1003A0003AD59E4F96F83411B7F9000001EB81025F
:1003B00090421CDD96F84D21CAB1994AB2F81C2131
:1003C0002A806A80AA80B6F83621EA8096F835211C
:1003D0000A4402EB8202904204DD0AF06DFB002227
:1003E00086F84C21BBF85E210132ABF85E219BF808
:1003F0003421B7F9001002EB82029142864E08DDEB
:1004000096F84D81B8F1000F03D10AF055FB86F83C
:100410004C813A8801323A8000210A46B4F81E61C4
:10042000B4F8207135F911009208B042C4BF62F0EF
:100430007F02D2B20131B842B8BF42F04002042973
:10044000F0D19BF860117448914205D190F8611188
:10045000F92904D8013100E0002180F861118BF8FE
:100460006021A2686E4F12F48042B5F906100AD0DE
:10047000B7F81C01B7F8DC20861AB14206DD024449
:10048000914205DB02E0B14202DB16E0002214E0FB
:100490000022CBF88426CBF88826CBF88C26CBF824
:1004A0007021CBF87421BBF8C2205B4922B191F8CE
:1004B0005420002A41F039860122BBF8C200564977
:1004C00068B191F8540050B991F84D1139B194F8D0
:1004D000231111B10AF0F0FA01E0002AFAD19BF8D9
:1004E00061114D4A142940F0B18092F84D01D8B104
:1004F000B2F8C21029B992F860215F2A01D10AF03E
:10050000DBFA94F82221002A00F0A080BBF8C22078
:10051000002A40F09B80404A92F860217D2A40F0FA
:1005200095800AF0C9FA91E092F86011572915D127
:100530004FF47A71A2F86211A268D20501D50AF0CF
:100540002BFD384A1268530744BF0A21ABF86411E7
:1005500012F0080226D1ABF8662123E0A6687707DF
:1005600017D55A2915D192F8681129B1012182F8BD
:10057000680182F8691115E092F86A1181F00101B1
:1005800082F86A11284A09B1022100E003211170A2
:1005900008E05D2901F0D2855B2901F0D1855E2953
:1005A00001F0FA85BBF8C2203AB91B4991F86011F5
:1005B0006F2902D10AF09AFA16E094F8221121B1BB
:1005C0001AB99BF860217E2AF4D09BF86021972A03
:1005D00004D1164A4FF4C871118005E0A72A02BF62
:1005E0000D4A012182F85A119BF860110A4ABB2971
:1005F00003D1B2F8A810023104E0B72905D1B2F84E
:10060000A8100239A2F8A81019E0BE2910D1B2F83A
:10061000A610023111E000BF08010020521A00208C
:100620004C160020FC1E00200D1F00200E1F002075
:10063000BD290BD1B2F8A6100239A2F8A6100120EC
:10064000014606F047FC00228BF86121A0684607AE
:1006500031D59BF86A11AA4A89B192F84D1171B14E
:10066000A849B5F90650B1F81E118D4207DD92F880
:10067000541021B93225A2F86C5182F86A119BF806
:1006800065109F4A61B192F86E1129B992F868110C
:1006900011B93221A2F86C1101228BF86E210AE007
:1006A00092F8681139B192F84D1121B982F86811A8
:1006B000012182F86911944E0125002736F8022F96
:1006C00005F1FF3EA2F21551B1F5C77F8CBF0021A5
:1006D0000121A9400F4340F2135112B28A42CCBF0C
:1006E0000021012101FA0EF1394340F2A467BA4218
:1006F000D8BF002205F10107C8BF0122BA40033567
:100700000A430D2D97B2D9D1804A002532F802EF65
:100710007B4E17EA0E0F14BF4FF0010E4FF0000E84
:1007200006F1540105F801E00135152DEED196F8DA
:100730005520774D42B9774AB2F9001096F8342126
:1007400002EB820291420EDD2A6891070BD59BF8DD
:100750004F116B4A51B9C2F87011C2F874110121DE
:1007600082F84F1102E000228BF84F219BF85610BF
:10077000634A51B1002182F84F1192F8501131B9FA
:10078000C2F87011C2F87411012182F850119BF85F
:1007900054201AB95A4A012182F84C119BF84F1182
:1007A0005D4A19B9564991F8501111B110215161A2
:1007B00001E01021116129684A0724D59BF85750A0
:1007C0004F4A95B192F852518DB9012682F8526183
:1007D000D2F87C61C2F88C51C2F87861B2F88861B5
:1007E000C2F89051A2F8806101E082F8525183046E
:1007F00009D59BF85800424A18B192F85B0110B92C
:10080000012082F85B0111F00A0F22D09BF85900F9
:100810003B4A50B192F8510148B9012082F8510188
:10082000B2F86601A2F8940101E082F851019BF848
:100830005A00334A18B192F8550110B9012082F8D4
:1008400055019BF85B002E4A18B1B2F86601A2F878
:1008500096018F0640F197809BF85721284D002A7A
:1008600000F08A8095F89821042A40F2858095F856
:100870005E20AAB195F85321002A40F0848001211E
:1008800085F85311254905F5CE700A7005F5D0712C
:1008900085F854210AF0FCFA022285F8A42172E0BE
:1008A00085F8532195F85F20002A39D0B5F98221C7
:1008B000B5F84811002AB8BF52428A4230DAB5F979
:1008C0008421002AB8BF52428A4229DA95F854217D
:1008D000002A58D1114901260A70D5F8B02105F532
:1008E000D470C5F8A821D5F8B42105F5D67185F8DE
:1008F0005461C5F8AC210AF0CBFA85F8A46142E056
:10090000080100204C160020CC150020C801002052
:10091000FC1E0020521A0020000C014000000020A4
:100920009D4900228BF854210A7862BB15460120AC
:1009300008709A490027081D20F8157001F1080079
:1009400001F10C0620F815700020905116447760D4
:10095000B06021F8157001F134065C3190515050AF
:1009600016441144012D7760B0604F60886002F139
:10097000140208D00125DCE700228BF853218BF804
:1009800054218BF8A4219BF86010854A01B1012104
:1009900082F856116279082A02D00E2A40F0678444
:1009A00000228BF8552100F062BCD3F83C120429D8
:1009B00000F25D84DFE811F00500990002013E03BA
:1009C0003F040121CBF83C127649754D09680E07AA
:1009D00040F18B80D5F84012511A0029C0F2858071
:1009E00002F5C332A032C5F8402205F51570D5F8DE
:1009F0004822904795F85A2105F51576B2B1D5F8F9
:100A00004022C5F85C220022A0180021A0F80011A5
:100A10000D466349B05A01F51877D05301F26627A5
:100A2000D0530232062AEFD181F85A519BF86C124A
:100A30005B4AA1B1B2F85412B4F80001091AA2F845
:100A40005412B4F80201B2F85612091AA2F856125A
:100A5000B4F80401B2F85812091AA2F85812DBF8D7
:100A60005C024F49002800F00284D1F8402201F5D1
:100A70001875121A4C48824201F266201FD84B4961
:100A8000CA6882F00802CA60002236F8121035F9EE
:100A900012C00FFA81FEF4454FEA4207C8BF444B2B
:100AA00030F907C0C8BF23F81210F445B8BF414B56
:100AB00002F10102B8BFF952032AE6D1D7E30022BE
:100AC0003D4EC1F85C2235F9127030F91210013236
:100AD0003944022791FBF7F1032A26F8021FF2D1CD
:100AE0000120014606F0F6F9C1E3DBF83C122C4D7B
:100AF0000131CBF83C122B49096848075ED5D5F87F
:100B00007012511A002959DBC5F87022D5F87422E9
:100B1000BAB1D5F888229047D5F87C229047B5F82D
:100B20007812D5F8702205F524700A44C5F87022B1
:100B300005F52571D5F88C2290470022C5F874225E
:100B400095E3D5F880229047D5F884229047D5F8D0
:100B5000980295F8AD10421C8A4208BF0022DBF8CB
:100B600090520BEB8000C0F89C52DBF85C130BEB4F
:100B70008200D0F89C022944091ACBF8982201225D
:100B8000CBF85C13CBF87422BBF87A12DBF8702236
:100B90000A44CBF870226AE300000020C002002063
:100BA00008010020FC1E00207FC3C901000C014089
:100BB000680300206E0300204A170020DBF83C2267
:100BC000A94D0132CBF83C22A84A1268510740F1E6
:100BD000318204F011FB46F2A712D5F86463B5F830
:100BE0006293861B9642B5F8608340F22382B5F883
:100BF00064A1C5F86403BAF1000F2ED095F8AD20BA
:100C0000D5F86873511ED5F85C230820B2FBF1F2C9
:100C100097FBF0F17F1AD119C5F8681391FBF0F03A
:100C20000BF048F892490BF04DF992490DF0D6FDC2
:100C300001464FF07E500AF087FF8F490BF08EF887
:100C40000BF052FA0AF1FF3A0022C5F86C03C5F81E
:100C50007023C5F87423A5F864A10FFA89F00FFA80
:100C600088F1002881EAE172A2EBE172B8BF40424C
:100C70008242B8BF024693B29BF8AD20DBF85C031A
:100C8000013AB0FBF2F004930BF010F878490BF046
:100C900019F978490DF0A2FD01464FF07E500AF097
:100CA00053FF75490BF05AF80DF0CCFCDBF8B0504F
:100CB0008046DBF878030AF0FDFF29460BF04EF87A
:100CC0000746DBF86C03C0EB08000AF0F3FF294687
:100CD00080464FF07E500AF037FF014640460BF049
:100CE0003DF8014638460AF031FF0DF0ABFCBDF986
:100CF00010800546B8F1FA0F604F03DD4FF0FF3268
:100D00007A6014E078680AF0D5FF814640460AF020
:100D1000D1FF01465A480AF017FF014648460BF03A
:100D20001DF857490BF0CEF80BF0DEF97860D7F8D4
:100D300004A00AF1FF39B9F1C60F06D8CAEB0505C0
:100D4000CBF87C53CBF878A330E0DBF87C23BAF106
:100D5000000FA5EB0205DFF81081CBF8785325DDF5
:100D6000CAF596700AF0A6FF46490BF0ABF80746A5
:100D7000C8F8800350460AF09DFF39460AF0EEFF9E
:100D8000824628460AF096FF394605464FF07E50C7
:100D90000AF0DAFE014628460AF0E0FF0146504616
:100DA0000AF0D4FE0BF0A0F9C8F87803364A1068B0
:100DB00008920AF07BFF354905460AF0CFFF8046CE
:100DC000DBF88C030AF076FF0746DBF890030AF0A5
:100DD00071FF014638460BF075F8DBF89413059067
:100DE0000AF0BCFF29460AF0B9FF4FF07C5106908B
:100DF0000AF0B4FF41460AF0B1FFDBF870734146D8
:100E0000079038460AF0AAFFDDF81CC00146DBF85F
:100E1000B8A060460AF09AFEDBF874130AF096FE5A
:100E200051460AF09BFFDBF87853804628460AF0CB
:100E300041FF514607904FF07E500AF085FEDDF8E5
:100E40001CC0014660460AF089FF014640460AF090
:100E50007DFE089AB9F1C60FCBF87403914617D8F6
:100E6000014BC3F87C5118E008010020FC1E002053
:100E700080E6C547B1DC423ED048874A00000020EA
:100E8000000061440000C842101F0020BD378635B5
:100E90000BF02AF9BA4BC3F87C01069938460AF0E0
:100EA00055FE8246DBF898034FF00008C9F8008031
:100EB000281ACBF88483CBF88883CBF88C83CBF8C3
:100EC00090830AF0F7FEAF490AF048FF81463046AA
:100ED0000AF0ECFE014648460AF0F4FF0BF004F974
:100EE00040F2DC529042A8BF1046A2F6B8329042BF
:100EF000B8BF10460A21CBF8985305F041FFDBF844
:100F0000B4508146294650460AF028FF0646484616
:100F10000AF0D0FE294681464FF07E500AF014FEBA
:100F2000014648460AF01AFF014630460AF00EFE16
:100F3000CBF870030DF086FB0521054605F020FF78
:100F4000BDF910208E4FB2F5487FCBF89C036BDAC9
:100F500097F8A0230ABBD7F87C01D7F878210A219B
:100F6000121AB2F5FA7F8848A8BF4FF4FA7290427D
:100F7000B8BF104605F004FF97F880205043802248
:100F800090FBF2F0B0F5967FA2F5D672A8BF4FF4B1
:100F900096709042B8BF104601E0D7F8A403401BFA
:100FA0009BF886502026454395FBF6F69BF890105B
:100FB000DBF88C21B6F5967F00FB01227349A8BFB0
:100FC0004FF496768A42A8BF0A46714942F2040558
:100FD0008A42B8BF0A46CBF88C2192FBF5F26D4DE0
:100FE0009BF89A00AE42ACBF951955190AF062FE03
:100FF000DBF8A813064605980AF0A8FD014630461E
:101000000AF0ACFE4FF06C510AF0A8FE0BF06CF841
:101010009628A8BF96206FF095029042ACBF2D1A7B
:10102000AD1ACBF8905101E0C7F89081059BCBF841
:10103000A8331CE1DBF83C220132CBF83C22A26849
:10104000D20540F1F880544DAA6862B99BF8AC23F0
:10105000013A042A00F20B81DFE812F012001200BC
:101060001200DB00BF00A86803F091FF0028EDD05C
:10107000494A906803F088FF80B206F0A9FDF2E7C4
:1010800094F82C7117B1012F0AD0A2E09BF8AD1390
:10109000424AA86802EB0112516803F072FF95E022
:1010A000A8683D4E026812699047002800F09180C0
:1010B0009BF8AC23324D022A2FD0032A38D0012AC4
:1010C00040F08780364AD2F80080D5F8D023C2EBB2
:1010D0000802632A7DD9D5F8C823042A1BDC2F4FC8
:1010E000B06807EB0212516803F04BFF95F8AD238F
:1010F000B66807EB0217BD6815F8011B19B1304639
:1011000003F048FFF8E7DBF8C823CBF8D0830132BF
:10111000CBF8C8235DE0022059E095F8AD131F4AD3
:10112000B06802EB0112516803F02BFF03204EE080
:10113000D5F8BC23012A11D0022A47D0002A48D171
:10114000D5F8CC13154AC5F8BC7302EBC102116D7A
:10115000526DC5F8C013C5F8C4233AE0D5F8C823CA
:10116000D5F8C4138A421DDAD5F8C013B068895C7B
:1011700003F010FFD5F8C8230132C5F8C82328E0D2
:1011800008010020002474490CFEFFFF2003190011
:10119000E0FCE6FFD4FEFFFFFC150020DC070108A1
:1011A000EC150020D5F8CC23BC490132C5F8CC237E
:1011B00001EBC202126D0020C5F8C8031AB9022261
:1011C000C5F8BC2305E0C5F8BC0302E0042007F025
:1011D000F1FA0022CBF8B02349E0DBF8B023052177
:1011E0000132CBF8B0239BF8AD2301200132D2B2FB
:1011F000B2FBF1F101EB8101521A8BF8AD23A84A41
:101200001268CBF8B42300228BF898218BF8572171
:101210000EE0A34ADBF8B4131268521A40F6C41168
:101220008A4224D99F4905200A6822F020020A60D8
:1012300007F0C0FA1BE00021CBF83C1299499A4A0A
:101240000968CB0613D596490868D2F8D4133C3107
:1012500088420CD3B2F8DC639449954DC2F8D403AC
:10126000C2F8D8130B202E6103F0DEFF6E6103F08D
:10127000C3FFA289CBF8040032B18B49D1F8E01347
:10128000411A0029C0F298870244CBF8E02305F008
:10129000BBFE03F0B1FFDBF8E823CBF80400821AB1
:1012A000ABF8E423CBF8E80300F08AFF7D4A7E4EDA
:1012B0001068070735D5B6F8865105F1450292B298
:1012C0008A2A2AD896F851213AB3B6F89421B6F86A
:1012D00066119BF85971891A89B28AB216B2B3366F
:1012E000BCBF01F5B47292B211B2B329C4BFA2F56A
:1012F000B47292B294F8EC106B4E97B149B2494275
:101300004A4396F8851012B24A436FF01D0192FBD2
:10131000F1F22A44A6F8862103E0BBF86621ABF877
:101320009421460772D59BF852115F4A00296DD06F
:1013300092F85C61002E5FD192F8EF5092F8EEE0E7
:101340004DB3B2F88811B2F980C10FB2CCEB0705EA
:10135000002DB8BF6D42754510DD67454FF00105A2
:10136000C2F88C6182F8EC53C8BFCEF1000289B29A
:10137000CCBF92B21FFA8EF211443AE092F8EC130D
:1013800029B1D2F87C1182F8EC63C2F87811DBF84D
:101390009021624423E0B2F98061B2F98811891B7F
:1013A00081EAE177A7EBE17777450ADD022591FB3A
:1013B000F5F1C2F8A413012182F8A01382F8EC130E
:1013C0000AE092F8EC1339B1D2F87C1182F8A053FC
:1013D000C2F8781182F8EC53DBF890213244B4F86B
:1013E000D010B4F8D2508A4203DBAA42A8BF2A46E2
:1013F0001146ABF8881109E0B2F8845194F92561DF
:10140000D2F8901106FB0151A2F884119BF8F2105A
:10141000254A61B192F84F1111B992F8502132B1B9
:10142000BBF88821BBF8EE130A44ABF88821850687
:1014300040F1BC809BF853212AB91B4A92F85421F1
:10144000002A00F0B3809BF85821174D002A00F0C5
:10145000AD80B5F966010AF02DFC16490AF07EFC54
:1014600006460DF02BF9074630460DF0B5F895F815
:1014700041910646B5F9C201B9F1000F66D0B5F841
:10148000BE81C9F1000A0FFA88F2801A09F0EEFC59
:10149000504511DB4845A8BF48460EE0DC0701086F
:1014A000EC150020FC1E0020080100200400002094
:1014B000000C014035FA8E3C50464044BBF8BC510C
:1014C0001FFA80F8BBF9C0012AB2801AABF8BE81BE
:1014D00009F0CCFC504503DB4845A8BF484682468E
:1014E0005544ADB2ABF8BC510FFA88F00AF0E2FBFC
:1014F000804628B20AF0DEFB3146054640460AF037
:101500002DFC3946814628460AF028FC014648460B
:101510000AF01AFBBC490AF0D5FC0AF0E5FD394691
:10152000ABF8B80140460AF019FC31460746284698
:101530000AF014FC014638460AF008FBB2490AF0EA
:10154000C1FC0AF0D1FDABF8BA012FE00AF0B2FB02
:101550008146B5F9C0010AF0ADFB314680464846E8
:101560000AF0FCFB3946824640460AF0F7FB01468A
:1015700050460AF0E9FAA4490AF0A4FC0AF0B4FDC6
:101580003946A5F8B80148460AF0E8FB3146074657
:1015900040460AF0E3FB014638460AF0D7FA9A497A
:1015A0000AF090FC0AF0A0FDA5F8BA01974A9268EB
:1015B0009047974A1678032E14D9BBF98621BBF9B8
:1015C000F40382EAE271A1EBE2716FF06302521A56
:1015D000904204DB01F164028242A8BF0246ABF8EC
:1015E000F4231FE0012E1DD862798A4F013A8A4EFA
:1015F000142A00F20F82DFE812F09F000D020D02A4
:101600006200B2000D020D0258010D020D020D0222
:101610000D020D02CD000D020D020D020D020D0294
:10162000B701DD019BF93A21BBF9F4A352420AFB51
:1016300002FABBF88831BBF8F273BBF8F083774D40
:101640004FF00009B14505F11005CDD218B2059350
:101650000AF030FB55F8181C0AF080FB049038B2F1
:101660000AF028FB55F8101C0AF078FB049A014692
:1016700010460AF06BFA04900FFA88F00AF01AFB91
:1016800055F8141C0AF06AFB049A014610460AF049
:101690005DFA049050460AF00DFB55F80C1C0AF058
:1016A0005DFB049A014610460AF050FA0AF01CFD50
:1016B0005B4A059B22F8190009F10109C2E79BF872
:1016C0001A21BBF8F29312F0020F14BF4FF0FF374C
:1016D000012712F0010F14BF4FF0FF30012000FB73
:1016E00009F01FFA80FA042009F0E4FDBBF8F45376
:1016F0009BF822216F43BFB2DFF810813844504479
:1017000012F0020FA8F8140014BF4FF0FF300120B0
:1017100012F0010F00FB05F514BF4FF0FF30012060
:1017200000FB09F087B2052009F0C4FDADB22844E2
:101730003844A8F816006DE19BF82221BBF8F45359
:1017400012F0010F14BF4FF0FF3201220520554364
:1017500009F0B0FDADB22D4A2844D0825AE10020F4
:1017600009F0A8FDBBF962239BF9FA103227514317
:1017700091FBF7F1254D0844A881012009F09AFD5D
:101780009BF90221BBF960134A4392FBF7F2104424
:10179000E8813FE19BF84D211C4D12B9B4F8D420EB
:1017A0000CE0204AB4F8D200B2F98811B4F8D02085
:1017B000914203DB88420246A8BF0A466A836A8BCD
:1017C00094F82481DFF85C90ABF8B824B8F1000FEE
:1017D00039D0022009F06EFDB9F90421B9F80611DB
:1017E000904203DB0AB28242A8BF0246B4F81C0151
:1017F000BBF8D014821A0FFA81FC12B29445094B3F
:1018000012DA414413E000BF000020410000002034
:10181000141F0020840100200C0000200805002077
:10182000C00500200801002003DDC8EB0101A3F87A
:10183000D0149BF90A21BBF9D0145143642291FBC7
:10184000F2F202442A829BF85611B14A59B1B2F819
:1018500082116982A982B2F88611B2F88421E982E4
:101860002A83032509E0B2F8F0136982A982B2F84D
:10187000F413B2F8F223E982F2E707EBC50292F91A
:101880007E8036F91520284602FB08F24FF06408E6
:1018900092FBF8F826F8158009F00CFD404426F874
:1018A00015000135072DE8D1B4E09BF84D21994D85
:1018B00012B9B4F8D4200CE0954AB4F8D200B2F9C9
:1018C0008811B4F8D020914203DB88420246A8BFB9
:1018D0000A466A836A8B9BF81211ABF8B8249BF80E
:1018E000562111F0010F14BF4FF0FF30012062B1FB
:1018F000BBF884E111F0020F00FB0EF7BBF8822168
:1019000014BF4FF0FF3001200BE0BBF8F2E311F001
:10191000020FBBF8F02300FB0EF714BF4FF0FF30AF
:10192000012000FB027068829BF81A0110F0010F81
:1019300014BF4FF0FF31012101FB0EF110F0020F37
:1019400014BF4FF0FF30012000FB02120320AA82D7
:1019500009F0B0FC6A8A10446882042009F0AAFCED
:10196000AA8A1044A88255E09BF81A21BBF8F253CA
:1019700012F0010F14BF4FF0FF3201225543654FA3
:10198000ADB20420BD8209F095FC9BF822212844C9
:1019900012F0010FBBF8F05314BF4FF0FF320122D9
:1019A0005543B882ADB20520FD8209F083FC28447E
:1019B000F8822FE0BBF8F493032507EBC50292F8F9
:1019C0007E10C5F1060211F0020F14BF4FF0FF3870
:1019D0004FF0010808FB09F822F001025A4411F007
:1019E000010FB2F8F02314BF4FF0FF30012000FBCD
:1019F00002881FFA88F826F81580284609F05AFC54
:101A0000404426F815000135072DD6D1BBF88821B2
:101A1000ABF8B824A268900630D5002009F04AFC43
:101A20003C4F8046B881012009F044FC9BF85C20C3
:101A3000F881374912B391F83C214FF0320E12F081
:101A4000020F91F902C1B1F9605391F9FA20B1F98D
:101A5000629316D0514205FB0CF509FB01F295FB90
:101A6000FEF56FF0310192FBF1F192FBFEF2ADB2A7
:101A700029444144B9812A441044F881264800226F
:101A800010E009FB02F191FBFEF105FB0CF541446E
:101A9000B98195FBFEF2EFE70132082AF15300F11C
:101AA00008000ED036F91250B0F9781057008D4268
:101AB000B0F87AE0F0DB0FFA8EF1A942A8BF294610
:101AC000EAE79BF83C21510706D4144BBBF8B82435
:101AD00093F800C001230EE0114A124FD67D002575
:101AE000043EA819C0B237F8021F013502F06EFC9F
:101AF000042DF6D1E9E7634518D20B4912B231F94A
:101B0000131001338A42B8BF0A4692B2F3E700BF0E
:101B1000080100200000002084010020141F002084
:101B2000FC150020CC150020C0050020B4F8D250D0
:101B3000A668AB1A1FFA83FA06F480430A93A44BF3
:101B4000B4F8D0E0B3F90680B4F8D630B4F8D47065
:101B50000593B4F81E31B4F81CB1069306F01003D7
:101B6000B4F8D8900B939B4C1FFA8EF30793BBB23B
:101B7000089394F84D3100210993049104F597637B
:101B8000049961453CD211B2A942C2BF198851449F
:101B900019800A99A1B1D845B3F9001007DD49456C
:101BA00003DBA942A8BF29461DE049461BE0B94214
:101BB00004DB059EB142A8BF314614E0394612E06D
:101BC000B3F90010714503DBA942A8BF294600E024
:101BD000714619800699884506DA0899079E0B9880
:101BE000002808BF31461980099921B97A4904981B
:101BF00031F8101019800499023301310491BFE7C4
:101C0000764B9B7D002B4BD0754B5A79013A142AA9
:101C10003AD8DFE802F00B3939213C393919393922
:101C2000393939293939393939212900694B93F83A
:101C30003B211AB16B4B0020D98A2FE093F84D015C
:101C40000028F7D1014629E0664D0020698A02F09C
:101C5000BDFB0120A98A21E0624D0020A98A02F083
:101C6000B5FB0120E98A19E05E4D0020698A02F087
:101C7000ADFB0120A98A02F0A9FB0220E98A02F04B
:101C8000A5FB0320298B09E09B689A0608D5554DD2
:101C90000020A98902F09AFBE989012002F096FB55
:101CA00009F0D4FA504B1B78002B40F085824C4F42
:101CB000BB681B0440F18082464D95F8EA34023B34
:101CC000062B00F27982DFE813F007003600570098
:101CD0006F009B00E4000101444B1A68D5F8EC3416
:101CE00064339A4240F268821026414BD5F8F024C2
:101CF000384F1A4492F868001C4648B104F022FCA0
:101D0000D7F8F034013E03F10103C7F8F034ECD109
:101D1000D5F8F0342F4A234493F86830002B40F074
:101D20004B82C2F8F0344FF0FF33C2F8F43403238F
:101D300082F8EA3440E2232300932E4B062103F17C
:101D40000C0201930292A3F12100A3F109020333D3
:101D500007F0FAF9002840F02F82BB6813F4807373
:101D600007D04FF0FF33C5F8F434C5F8F00404236E
:101D7000A9E0C5F8F03429E002231F4800930023AE
:101D800001930293042100F1100200F1180307F0FF
:101D9000DBF9002840F010824FF0FF33C5F8F4342F
:101DA000C5F8F00405238EE00523144800930023B2
:101DB00001930293042100F1100200F1180307F0CF
:101DC000C3F9002840F0F881C5F8F00406237AE052
:101DD000C615002008010020DA050020FC150020AF
:101DE0004C160020000000200C1F0020EC150020E5
:101DF000DC070108D9080108740A0108940A0108DF
:101E0000D5F8F0440E2C3FD8DFE804F0083B0C3B3B
:101E100010181C2024282C303B363B00C94804F005
:101E20007FFB2EE0C848C949C94A04E0C94897F871
:101E3000B21397F8B32304F073FB22E0C64895F879
:101E40009B101CE0C548B7F8D01018E0C448B7F89C
:101E5000D21014E0C34BC448D96810E0C34BC44847
:101E6000998B0CE0C34897F80B1108E0C24897F82B
:101E70000D1197F80C21DEE7C048B5F8F81404F00E
:101E80004FFB0134661C01D107231CE0C5F8F04468
:101E900092E103F0B1F90446012003F07EF8B84B5B
:101EA000012245201A7004F04DFB002004F04AFB8B
:101EB000204604F04FFB0023C5F8FC34C5F800357C
:101EC000C5F80435082385F8EA3475E1D5F80035FE
:101ED000DFF8C082002B40F0C08007F0CDF9D8F8C1
:101EE0000865492004F02EFBD8F8FC0404F032FB0E
:101EF000306804F02FFB706804F03BFBB06804F01E
:101F000038FBF06804F035FB306904F032FB70698F
:101F100004F02FFBB06904F02CFB06F11C094FF014
:101F20000308C8F13100C0B204F09AFA18B1D9F828
:101F3000000004F01EFBB8F1010809F10409F0D11A
:101F4000B6F9280004F015FBB6F92A0004F011FBDD
:101F5000B6F92C0004F00DFBB7F8D030B6F92E001E
:101F6000C01A04F0F7FABB68980708D5B5F8F8343A
:101F7000B6F86400181AC0F30D0004F0EBFA814BB8
:101F80001A68984612F0080F07D1D8F800305907A0
:101F900010D5B06E04F0EDFA0CE0B6F96C0004F068
:101FA000E8FAB6F96E0004F0E4FAB6F9700004F04D
:101FB000E0FAEAE7B046B6F9300004F0DAFAB6F92A
:101FC000320004F0D6FAB6F9340004F0D2FAB6F9C9
:101FD000360004F0CEFAB6F9380004F0CAFAB6F9C1
:101FE0003A0004F0C6FA38F93C0FB7F8D0304FF099
:101FF0000109C01A04F0AEFA634B1B78994509DA5F
:1020000038F9020FB6F93C3009F10109C01A04F0A1
:10201000B0FAF1E77B79012B07D1D5F80835B3F990
:102020005E00A0F2DC5004F0A4FAD4F8082557486A
:10203000C4F80C25C4F81025121A9110544A4A43CA
:10204000531C032293FBF2F202EB42029A1A74230E
:1020500003FB0203C4F8083550E097F8B21397F871
:10206000B303013B0B44B3FBF0F200FB12338B4292
:1020700003D207F001F904F080FABB68DA053DD518
:10208000D5F89C11D5F87026424B91420DD1D3F86A
:10209000A011D3F87426914207D1D3F80025102A55
:1020A00017D1D3F804355B0613D1482004F04AFA5F
:1020B000D5F89C0104F05DFAD5F8A00104F059FAB6
:1020C000D5F89C31C5F87036D5F8A031C5F874360E
:1020D00012E095F8981195F880262E4B91420BD17D
:1020E000D3F8B011D3F87826914205D1D3F8B421B2
:1020F000D3F87C369A4201D007F030F9D5F8FC24A9
:10210000244B0132C5F8FC24D5F800250132202AE1
:1021100003BF0022C3F80025D3F80425C3F8002527
:1021200004BF0132C3F8042546E091F84C21002A8F
:102130003EF4C2A908F0DAFCFEF7BEB901222CE099
:1021400002222AE0781E0108941E0108AB1E010835
:10215000B71E0108C01E0108D41E0108E11E0108B7
:10216000F31E0108A01A0020051F0108000000202E
:10217000181F0108251F0108351F0108501F0108FD
:102180000D1F0020FC1E0020141F00201C06002034
:1021900035C2724F080100200322D6B20020721E01
:1021A000014684F8B02304F095FE0220282132462F
:1021B00009F028F8FEF7F6B90DB0BDE8F08F00BFC2
:1021C000594B2DE9F04FB3F90620584B8BB0D88C02
:1021D00082420FDBB2F5FA6F93F82540BFBF111AA8
:1021E0006143A0F5FA6491FBF4F4ACBFC4F164045C
:1021F000643400E064244E4993F82300B1F81CB124
:1022000091F9EC1093F870E093F871C0494293F89B
:10221000243089B2454D039102900493002140F28D
:10222000E630414B4FEA410833F911300193CBEBD3
:10223000030303F2F316864203D8002BB8BF5B42B8
:1022400001E04FF4FA7302292AD0BEF1000F04D046
:102250007345CCBFCEEB030300234FF0640993FB1F
:10226000F9F634486FF0630A30F816700AFB063A44
:10227000013630F916003EB2801B00FB0AF090FBDD
:10228000F9F02D4E384426F80800029843432B48B5
:1022900093FBF0F34B449BB2634393FBF9F915E0D6
:1022A000BCF1000F04D06345CCBFCCEB030300238B
:1022B0000398214E5843002BB0800498B8BF5B426E
:1022C00043431E4893FBF0F909F164096B786420DD
:1022D00009FB03F393FBF0F3194E01357354AB7A0A
:1022E000184E09FB03F393FBF0F373542B7D09FBAA
:1022F00003F999FBF0F0144B5854019B01315B45F5
:102300000D4BBEBF33F80800404223F808000329F4
:1023100085D1074EB6F81E01824217DBB2F5FA6F7F
:10232000A8BF4FF4FA6212E0C61500208401002015
:102330004C160020F00C00208A0200200CFEFFFF4B
:10234000B01D0020FE0C0020D41D00200246121AF1
:102350004FF47A714A43C0F5FA61B2FBF1F164229D
:1023600091FBF2F0BC4CBD4F04EB4005B5F812E018
:102370006FF0630505FB001504EB4000B0F9140095
:102380000FFA8EF1411A694391FBF2F2B44D724497
:10239000DA806B7A002B45D0B24BB3F90000B24B18
:1023A000B3F90030C01A09F003F9A9A3D3E9002357
:1023B00009F064F90022AD4B09F08AFA09F070FBCC
:1023C00080460CF009F9814640460CF077F98046CA
:1023D000B7F9020009F06EFC8246B7F9000009F077
:1023E00069FC4946834609F0B9FC414601905046D4
:1023F00009F0B4FC019B0146184609F0A5FB09F061
:1024000073FE49463880504609F0A8FC4146814693
:10241000584609F0A3FC0146484609F097FB09F02D
:1024200063FE7880B768DFF870B2BA0740F1978032
:102430008F4B4FF00608B3F800A0E36ADFF818925C
:102440009A4494F83030C4F82CA00133DBB2B3FBCB
:10245000F8F208FB123884F8303018F0FF030193CB
:102460006CD1D9F834004FF0080890FBF8FEDFF883
:102470002CC2804B9CF80120CEEB000033F81210E8
:102480007D4A89B20844C9F8340090FBF8F0118005
:1024900080B2CDF810C0039309F00CFC774909F025
:1024A0005DFC774909F00EFD02909BF80B0109F0E5
:1024B00001FC0146029809F051FC09F03BFE9BF833
:1024C0000E11A9F83800039BDDF810C0B1B3D9F89C
:1024D0003C009CF8051033F8111090FBF8F389B21A
:1024E000C31A0B4493FBF8F2C9F83C3040F6E443BE
:1024F00092B25A4340F6FF73B2FBF3F2BBF80831D5
:102500004FF47A71D21A4A43BBF8063192FBF3F3C7
:10251000C9F840300AFB03F393FBF1F3D9E9120148
:10252000C01841EBE371C9E912010023554A09F0D3
:1025300021FE019BC9F85000C9F82C30238FB4F854
:1025400054209A4203D396F80D219A4203D90023CE
:1025500084F8563003E0404B042283F856204A4961
:102560003D4B4A7B94F85600029102B1012283F858
:102570005720BB0522D5454B1A88454B17B293F817
:10258000B81001EB810E774515DD95F801E0BEF13D
:10259000000F01F0268393F8B9304FF0010E0B4481
:1025A00003EB83039F42C4BF2B4B022184F858E006
:1025B000C8BF83F858100AB984F85820354B1A68F8
:1025C000994612F0200F0CD0029B9B7A13B92E4B28
:1025D000DB7A1BB1EB7A0BB9012300E0002384F80E
:1025E000593094F858201C4B022A02D14C204E211D
:1025F0001DE0012A04D14D2153204C220B4607E057
:1026000093F85920012A06D1532001464E224D232A
:1026100006F04AFD4FE093F85720012A03D15320DA
:1026200001460246F3E7042803D153204D210A4610
:102630000AE0022803D1532001464D2204E001287C
:102640002ED153204D214E224423E1E7AFF30080E9
:10265000182D4454FB210940F00C00208A02002070
:10266000540200206E0200209E020020008066407E
:10267000EC0400207A010020EC1D0020333353408D
:1026800000F07F45407E05005C010020521A0020CA
:1026900084010020FC1E00204C1600207101002047
:1026A000AE4A107818B1322006F0D0FC03E083F86F
:1026B0005A0002F072FCAA4B1A8803931AB1D9F897
:1026C00000309F0702D4A74B1B882BB1A64AD368C2
:1026D00083F00803D3600EE0AB7813B1A24B08225D
:1026E0001A616B7813B1A04B08225A6194F85B30E1
:1026F0000BB104F0C7F9B368180662D59B4BE26DC5
:102700001B689B4F9A1A002A5BDB03F54343503347
:10271000FB6597F860309BB97A238DF81C30954B98
:102720000222B3F900306D20C3F1B40393FBF2F33E
:10273000FF218DF81D3007AB02F078FF012326E062
:10274000012B27D179238DF81C308B4B0A21B3F94B
:102750000020B3F9023092FBF1F293FBF1F35A320D
:10276000B42A03F15A03A8BFB422B42BA8BFB423E0
:1027700022EAE27223EAE3738DF81D208DF81E3001
:102780006D2007ABFF21032202F050FF022387F8E0
:10279000603016E0022B14D164238DF81C30012325
:1027A0008DF81D306B786D20002B18BF01238DF83C
:1027B0001E30FF2107AB032202F038FF002384F80C
:1027C00060306A4B626E1B689A1A002A11DB697BC3
:1027D0006A4A61B99170644903F5F423CA6803F544
:1027E000907382F00802CA60614A536601E00123D7
:1027F00093700027624BDFF8A4811B689F4280F230
:102800002787604A4C2303FB07235F4A136098F82D
:1028100000301BB106F0E2FE00F01ABF94F86830F9
:10282000A3B15A4A5A4BDA6010E0D8F80030186861
:1028300002F0AAFBD8F8003093F849200ABBA0F1B7
:1028400024014A424A4183F8492052B1DFF83881D5
:10285000D8F80030186802F09AFB0028E5D100F0A3
:10286000F4BE6B78002BF1D1232802D106F0B6FE1E
:10287000ECE796F8B1338342E8D1464A464B1A60FA
:10288000CFE7012A03D14D2808BF022204E0022A23
:1028900006D13C2808BF032218BF002200F0D1BE99
:1028A000032A0DD140284FF000029FBF83F8472034
:1028B0005A7183F84800187198BF042200F0C1BE15
:1028C000042A07D11A7983F846005040187105226E
:1028D00000F0B7BE052AB9D193F8481093F8472005
:1028E0009142197907D941401971511C83F8471059
:1028F00013449871AAE7814240F0A08693F84630CD
:10290000752B00F0268400F20E81692B00F06D8398
:1029100000F2C080452B00F0728641D8422B00F0B7
:102920002B860CD8402B00F04D86412B40F07D8645
:10293000002008F049FC4FF0000800F054BE432B83
:1029400000F0EE85442B40F07086002008F03CFC3F
:10295000074B012283F8682000F06BBE0D1F00209A
:102960000E1F00206A020020000C01400C01002014
:10297000F00C00206E0200206804002054020020A9
:10298000E01E0020481E0020900000200400FA05F0
:1029900000ED00E0EFBEADDEF04F00200C1F002088
:1029A000662B00F08E8269D8642B00F05D82652B67
:1029B00040F03B860B2008F007FCD34BB3F9000036
:1029C00008F005FCD14B188800B208F000FCD9F8DB
:1029D0000030C3F3C000C3F38002800040EA42002D
:1029E000C3F340021043C3F3401240EAC20003F0B5
:1029F0001003184308F0EBFBC5490B79CA789B001C
:102A000043EA42034A7813438A7943EAC2034A7984
:102A100043EA42134A7A43EA8213BE4AD07943EA30
:102A2000C013107A43EA0023507A43EA4023C8795E
:102A300043EA8023087A897A43EAC02343EA0133D0
:102A4000517B002043EA4133917B43EA8133117C7F
:102A500043EA0143117943EA0113517C43EA4143BC
:102A6000917C43EA8143D17C127D43EAC14343EA2E
:102A70000253A94A92F800E002460DE2672B00F0EB
:102A80006182682B40F0D185102008F09DFB4FF04B
:102A900000089FE26F2B00F0268324D86C2B00F0F7
:102AA000D68218D86A2B00F0B0826B2B40F0BD851F
:102AB000DFF87882052008F087FBB8F9780008F085
:102AC00086FBB8F97A0008F082FB98F86E0000F0F7
:102AD000010000F05ABC6D2B00F0C8826E2B00F094
:102AE000D08200F0A2BD722B00F0CF8311D8702BE2
:102AF00000F01983712B40F09885DFF81CA24FF08D
:102B000000089AF80000400000F0FE0008F05CFBAE
:102B10005EE3732B00F0FF83742B40F086854FF04B
:102B2000000A012376E3CE2B00F0808444D8C82B22
:102B300000F091802AD8782B00F014820ED8762BE2
:102B400000F0F883772B40F07085DFF8CCA14FF0D0
:102B500000089AF8000008F037FB8EE3A02B00F085
:102B60009184A42B40F06185DFF8C0814FF0000A0A
:102B700098F88400C34680000130C0B208F024FBFE
:102B800098F8840008F0F3FA00F08ABCCB2B00F030
:102B9000A88009D8C92B72D0CA2B40F04685DFF82F
:102BA000A48108F10A0A8DE0CC2B00F0CF80CD2B58
:102BB00000F0328400F039BDD42B00F0EF8116D83C
:102BC000D12B00F0E58307D8CF2B00F0E280D02B8B
:102BD00000F0198400F029BDD22B00F03081D32BF6
:102BE00040F0238508F0B0FA4C4B1880CCE0F02B75
:102BF00000F03C8410D8D62B00F01481EF2B40F06D
:102C0000148508F0A1FADFF83881A8F82C0008F044
:102C10009BFAA8F82A00B7E0FA2B00F00F84FE2BED
:102C200040F00385082008F0CFFA3D4B3D491B6872
:102C30004FF00008B3FBF1F3C3EB431203EB820345
:102C4000394A1268B2FBF1F202EBC303374AA2F829
:102C5000823000F000BC4FF0000808F075FA344BE9
:102C600023F8180008F10108B8F1080FF5D1002089
:102C700008F0AAFA2F4B01221A7000F0DABC08F013
:102C800059FA234BDFF8C080D87208F053FA2A4B68
:102C9000187008F063FAC8F8000008F05FFAC8F886
:102CA000040008F051FADFF88480A8F86A0008F000
:102CB0004BFA98F86E30A8F86C0043F0020388F8DD
:102CC0006E3061E008F036FA08F8010B08F032FACD
:102CD00088F8090008F02EFAD04588F81300F1D1E1
:102CE00052E04FF000080C4B1B7898454CD2134B28
:102CF00018F803A008F028FA114B08F1010803EBBB
:102D00004A03A3F84600EEE7EC040020F615002085
:102D1000540200205C010020001F00209C020020C3
:102D20005000002040420F0094000020F00C0020D2
:102D3000C615002008010020A0020020E41E00208B
:102D40008401002085010020B802002008F0F2F97B
:102D5000DFF8588488F81F0008F0ECF988F82000A4
:102D600008F0E8F988F8230008F0E4F988F824006E
:102D700008F0E0F988F8250008F0DCF988F821006F
:102D800008F0D8F988F82200002008F01DFA00F0B9
:102D900050BC08F0D9F96FF4AF628318DFF8D48320
:102DA000C62B98BFA8F81C0108F0CEF9A8F8D000EF
:102DB00008F0CAF9A8F8D20008F0C6F9A8F8D400BB
:102DC00008F0C2F9DFF8E4A3AAF8BA0008F0B2F9F3
:102DD00088F82C0108F0AEF988F82D0108F0AAF95E
:102DE00088F82E0108F0A6F988F80A0108F0A2F97F
:102DF00088F8260108F09EF908F0A6F900EB80009B
:102E00004000AAF8280008F095F988F80B0108F0AE
:102E100091F988F80D0108F08DF988F80C0108F097
:102E200089F9B1E74FF0000808F08EF9CF4B23F88D
:102E3000180008F10108B8F1080FF5D1A4E7CC4B50
:102E40005B78002BA0D108F075F9CA4B022883F8F3
:102E5000B0034FF0000088BF0022014688BF83F80E
:102E6000B02304F037F88FE70720DFF8088308F075
:102E7000ABF9E72008F07BF998F8050008F077F93E
:102E8000002008F074F998F82401BB4BBB4A0028D5
:102E900014BF10461846C5E372450CD2B84912F863
:102EA00001C0012101FA0CFC1CEA030F1CBF914078
:102EB00008430132F0E708F094F9AE4B93F8B00301
:102EC00063E2122008F080F9AE4B1B88B3F5806FE7
:102ED00029D94FF00008AC4B33F91800082390FBB8
:102EE000F3F008F1010808F072F9B8F1030FF2D11C
:102EF000DFF8BC82B8F9000008F069F9B8F90200FF
:102F000008F065F9B8F90400DFF8A88208F05FF965
:102F1000B8F9000008F05BF9B8F9020008F057F9B9
:102F2000B8F904004BE3DFF89082B8F9700008F0BC
:102F30004EF9B8F9720008F04AF9B8F9740008F0CF
:102F400046F9D5E7102008F03FF94FF000088F4B05
:102F500013F8080008F1010808F009F9B8F1100F9A
:102F6000F5D166E3382008F02FF9DFF850A2AAF176
:102F70004008B8F9780008F02AF9B8F97A0008F0A2
:102F800026F9B8F97C0008F022F908F1080898F849
:102F9000760008F0ECF8D045EBD14AE3002008F0C9
:102FA00013F9DFF818A2AAF1400808F0CDF8A8F844
:102FB000780008F0C9F8A8F87A0008F0C5F8A8F871
:102FC0007C0008F0B7F808F1080888F87600D045CA
:102FD000EBD12EE36E4B13F8080008F1010808F05E
:102FE000C6F8B8F1100FF5D123E3102008F0ECF883
:102FF0004FF00008674B33F9180008F1010808F09A
:10300000E6F8B8F1080FF5D113E3102008F0DCF86A
:10301000574BDFF8AC81D87A08F0A9F85E4B1878E6
:1030200008F0A5F8D8F8000008F0DBF8D8F804009C
:10303000DFF8848108F0D5F8B8F96A0008F0C7F81D
:10304000B8F96C0008F0C3F8B8F97600B7E2DFF819
:103050007481062008F0B8F8B8F9000008F0B7F855
:10306000B8F9020008F0B3F84C4B07E0062008F06E
:10307000ABF84B4B186808F0B4F84A4BB3F90000B2
:103080009DE24FF6FF78DFF830A1072008F09CF8AA
:10309000BAF83800FF28A8BFFF20C0B208F067F8D0
:1030A000DAF850004045A8BF404620EAE07000B280
:1030B00008F08DF83C4BB3F9000008F088F82D4B70
:1030C000DAF8400093F80A310028B8BF40422BB12B
:1030D0000A2358434045A8BF404602E04045A8BFE8
:1030E000404600B26BE2DFF8C480072008F06CF8BD
:1030F00098F81F0008F03BF898F8200008F037F81F
:1031000098F8230008F033F898F8240008F02FF816
:1031100098F8250008F02BF898F8210008F027F817
:1031200098F8220031E11E2008F04EF8DFF8988070
:1031300008F10A0A18F8010B08F019F898F80900C4
:1031400008F015F898F8130008F011F8D045F1D1FF
:103150006FE22F2008F038F8DFF8708018F8010FC0
:10316000002800F0668208F002F8F7E7DA05002090
:10317000540200204C160020040000C00C0000C0C7
:10318000E41E00201C000020600D00200C00002028
:10319000C0050020C6150020A00200206E020020FD
:1031A00084020020A4040020820100208401002069
:1031B000601D00205C030020F00C0020C4010020F2
:1031C000B80200206804002085010020F7100108E3
:1031D0009AF80030984580F02C82C14B18F80320F3
:1031E000C04B08F1010803EB4203B3F9460007F0B6
:1031F000EEFFEDE7824408F10108BB4B1B789845D0
:103200000CDB019B002B00F014825FFA8AF007F0C0
:10321000DBFF002301934FF00008EEE7B04B0C21D9
:1032200018F80320B14B01FB0233D3F834B05846F1
:103230000AF096FF019B0146002BDBD15A46CBEBEF
:1032400002008842D7DA12F8010B0591049207F0C8
:103250008EFF0599049AF2E7A54BA14A5B441B7ABD
:1032600018F80200984201D107F081FF0BF10C0B16
:10327000BBF1FC0FF0D108F101089AF80030984535
:1032800080F0D7814FF0000BE6E7DFF88C82162044
:1032900007F09AFFB8F91C0107F099FFB8F9D000C0
:1032A00007F095FFDFF83CA2B8F9D20007F08FFFD6
:1032B000B8F9D40007F08BFFBAF9BA0007F087FF1E
:1032C00098F82C0107F053FF98F82D0107F04FFFF5
:1032D00098F82E0107F04BFF98F80A0107F047FF16
:1032E00098F8260107F043FF002007F040FFBAF9E5
:1032F00028000A2390FBF3F007F069FF98F80B0110
:1033000007F035FF98F80D0107F031FF98F80C0130
:1033100007F02DFF38E0082007F056FF4FF00108B6
:103320005FFA88F008F1010807F021FFB8F1090FF2
:10333000F6D17EE107F0FEFE8346122007F044FF3F
:10334000BBF1000F01D16B4B03E0BBF1100F05D1B6
:10335000694BD3F800A0D3F8048002E04FF00008D6
:10336000C246584607F003FF504607F03AFF404672
:1033700007F037FF614B186807F033FF002007F0B4
:1033800026FF002007F023FF002007F0F0FE50E1A9
:1033900007F0D0FE824607F0E1FE019007F0DEFE66
:1033A000834607F0DBFE804607F0CEFE07F0CCFE3A
:1033B00007F0C0FE019BBAF1000F0FD14D4A82E821
:1033C00008084F4B012283F807A01A73B8F1000FC9
:1033D0003FF4DAAC494BC3F80080D5E4BAF1100FE2
:1033E0007FF4D2AC444A82E80808B8F1000F02D05A
:1033F000424BC3F800804048424B0222011D1A7024
:1034000007F046FDC0E43E4B5B78002B7FF4BCAC7C
:10341000012004F087FAB7E4394B5B78002B7FF486
:10342000B3AC039A4FF4C8731380ADE46B78002BF0
:103430007FF4AAAC324B01229A73A5E4304B93F887
:103440000180B8F1000F40F0F0804046012103F008
:1034500041FD404699E42C4B33F9180008F101086E
:1034600007F0B5FEB8F1040FF5D1E2E0DFF87480A3
:10347000042007F0A9FEB8F92C0007F0A8FEB8F95F
:103480002A009CE00C2007F09FFE204B186807F0F4
:10349000A8FE1F4B186807F0A4FE1E4B1868C1E079
:1034A0009BF884309A4580F0C480DFF8708018F86B
:1034B0000A0007F05CFE08F1100313F80A0007F099
:1034C00056FE08F1200313F80A0008F1300807F04F
:1034D0004EFE18F80A0007F04AFE0AF1010ADFE77B
:1034E000E41E002084010020001F0020F8100108C5
:1034F00028110108A4020020B00200208002002050
:1035000054020020AC0200206C0D0020E8F7FF1FE1
:10351000ECF7FF1FF0F7FF1F4C160020750D002081
:10352000002007F051FE07F005FEDFF85881002368
:10353000C8F8083088F8050007F010FED8F8083001
:103540001843C8F8080007F0F5FD88F8170107F0E0
:10355000FBFDA8F8E60007F0F7FDA8F8E80007F083
:10356000F3FDA8F8EA0007F0EFFDA8F8060107F060
:10357000EBFDA8F808015CE0DFF80881102007F0F7
:1035800023FE98F8050007F0F2FDD8F8080007F0D0
:1035900028FE98F8170107F0EAFDB8F9E60007F0F1
:1035A00016FEB8F9E80007F012FEB8F9EA0007F0D5
:1035B0000EFEB8F9060107F00AFEB8F9080107F097
:1035C00006FE36E0082007F0FFFD4FF000082D4B07
:1035D000434493F80F0108F1010807F0C8FDB8F162
:1035E000080FF4D125E007F0A5FD264B434408F170
:1035F0000108B8F1080F83F80F01F4D119E0132086
:1036000007F0E2FD4FF000081F4B13F8080008F127
:10361000010807F0ACFDB8F10B0FF5D1002007F061
:10362000E0FD002007F0DDFD03E00120002107F0B0
:10363000ADFD164B1B68187907F099FD134B00225E
:103640001B6883F84920FFF701B90137FFF7D2B8AB
:1036500098F800302BB1D9F800309B0600F1A48215
:10366000B9E2B268074B1705F5D594F85B20002A3C
:10367000F1D093F83B2192B993F83C3143B96B7880
:1036800008E000BF4C160020AB1E0108900000208F
:10369000029B1B7D003318BF0123002BDBD096F863
:1036A0003A31002B40F08A81D94BD86801F06FFC89
:1036B000002840F08381D74FD4F8C8203968D64B12
:1036C0008A1A7C2A019740F27981074693F8CC2028
:1036D000C3F8C810013283F8CC2007F12400DFF8CA
:1036E0003883C0B203F0BEF908F1700333F9170054
:1036F00008F0E0FAC94B8346188808F0DBFA014667
:10370000584608F0DFFBC64908F028FB08F0ECFC3F
:10371000013700B203F094F9032FDED1302003F01B
:10372000A1F9C04BB3F9000003F08AF903F092F954
:1037300098F8CC7017F003072CD1DFF8F8B21020FE
:1037400003F090F9DBF800004FF0640890FBF8F00C
:1037500000B203F075F9212003F084F9DBF80000D2
:1037600090FBF8F308FB13000028B8BF404200B2FA
:1037700003F066F9142003F075F9AB4BB3F90000C0
:1037800003F05EF91C2003F06DF9384603F058F998
:1037900003F060F994F8CC309F4F580740F0E78071
:1037A000022003F05FF9B7F9CE004FF00A0B90FB4F
:1037B000FBF003F045F9B368990760D5B7F8388096
:1037C0006E2303FB08F8152398FBF3F83A2003F067
:1037D00049F91FFA88F86422B8FBF2FA0FFA8AF066
:1037E000029203F02DF93B2003F03CF9029A02FB10
:1037F0001A8080B2053090FBFBF0DFF83C8200B20B
:1038000003F01EF998F800003A8F40F6340392FB5B
:10381000F0F253432A22B3FBF2F2B7F8D03093FB15
:10382000F0F100FB11331B019BB243EA02239BB270
:10383000C2F3032243EA020A062003F013F90FFA47
:103840008AF003F0FDF8B7F8D03098F80010013393
:103850009BB293FBF1F201FB12332820A7F8D03082
:1038600003F000F9386C90FBFBF000B203F0E8F8CD
:10387000042003F0F7F8B7F9500003F0E1F8D9F8A5
:1038800000309A0671D5DFF8B4A1684ADAF8007002
:10389000DFF8ACB187EAE77CACEBE77C9CFBF2F8A5
:1038A0000BFB08CC3C2101FB0CFC9CFBF2F708EB6A
:1038B0008808132008EB880805910492CDF808C009
:1038C00003F0D0F807EB880000B203F0B9F81B2032
:1038D00003F0C8F8DDF808C00BFB07C74FF47A7C8B
:1038E00097FBFCF000B2CDF80CC003F0A9F8232040
:1038F00003F0B8F8DAF800000028B4BF53204E20D7
:1039000003F09EF8DAF80470049A002FB8BF7F42E3
:1039100097FBF2F80BFB0877059908EB88087943C9
:1039200091FBF2F7122008EB8808029103F09AF855
:1039300007EB880000B203F083F81A2003F092F836
:103940000299DDF80CC00BFB071191FBFCF000B2F3
:1039500003F076F8222003F085F8DAF80430002B23
:10396000B4BF5720452003F06BF803F073F894F8C8
:10397000CC30282B22D1284B002283F8CC20019B6D
:103980004FF03C0A18684FF47A73B0FBF3F8172035
:1039900003F068F8B8FBFAF7B7FBFAF00AFB10700F
:1039A000000200B203F04CF8182003F05BF80AFBA9
:1039B000178000B203F044F803F04CF896F83A315F
:1039C000012B7FF448AE124EF06801F0E0FA0028B7
:1039D0003FF441AEF06801F0D7FA0746052001F048
:1039E0002EFC8A2F4AD08E2FEDD100212E22104896
:1039F0000AF091FB7C2384F8FE30E02384F8013147
:103A00007D2384F82A31238F84F8FF701AE000BFE9
:103A1000FC150020EC150020F00C00201C000020FC
:103A200000007A44A40400206E02002080969800D2
:103A3000EE0D00208004002044000020B802002089
:103A4000806967FFDAB21B0A84F81D3184F81331EC
:103A5000142384F8163184F817314FF4FA73A4F85C
:103A600018314823A4F82031782384F81C2184F8E5
:103A7000122184F822315F482E2192E0D9F80030DB
:103A80009B06A0D55C4E002106F1D2002C220AF044
:103A900042FB7C2384F8D230A02384F8D5307D23E8
:103AA00084F8FD30554B84F8D3701B7884F8EC30E3
:103AB000EB7A002B70D0DFF864C16623DCF80020BD
:103AC00086F8FB30D30F86F8DB304D4B42F210778F
:103AD00092FBF3F04B49C0B201FB00224FF0060EFF
:103AE0000EFB02F2B2FBF7F807FB182286F8DE2085
:103AF000120A86F8DF20DCF8042000EB800092FB3D
:103B0000F3F3DBB201FB03215FFA88F80EFB01F14E
:103B100000EB800008EB800080B286F8DC00000A31
:103B200086F8DD00D00FB1FBF7F203EB830307FB50
:103B3000121103EB8303D2B202EB83039BB286F82C
:103B4000E1301B0A86F8E230B6F86C306422B3FB31
:103B5000F2F303EBC3039B009BB286F8D9301B0A38
:103B600086F8DA30B6F8783086F8E31086F8E53073
:103B70001B0A86F8E630B6F86A30090A86F8E7309C
:103B80001B0A86F8E830B6F87A3086F8E00086F846
:103B9000E41086F8EE3002E0202386F8FB301A4865
:103BA0002C2102F021FF0EE7184BD4F82C211B68C2
:103BB0009A1A002A0FDB114A1278042A0BD90E4AEE
:103BC00003F5123303F5F873C2F82C31104AD368A9
:103BD00083F01003D3600F4B9B683BB10E489847AE
:103BE00004E0022384F85830FEF7E5BC0BB0BDE8D2
:103BF000F08F00BFEE0D0020F00C0020A00200208E
:103C0000A08601006079FEFFC20D00200C0100209B
:103C1000000C0140A01A0020BE0D0020B8020020B8
:103C2000254B10B55A43254B254C1B680139B3FB76
:103C3000F2F20388013AA04289B292B29BB212D04A
:103C400004F50064A0420ED0B0F1804F0BD0A4F573
:103C50009834A04207D004F58064A04203D004F554
:103C60008064A04202D123F070039BB2154CA042A5
:103C700006D004F58064A0421CBF23F440739BB2BD
:103C800003800F4B8185984202850FD003F50063B6
:103C900098420BD003F54063984207D003F5806348
:103CA000984203D003F58063984201D10023038634
:103CB0000123838210BD00BF40420F00940000200A
:103CC000002C014000100040024B53F820301B68CC
:103CD00019807047F8070020074BA1F57A7153F857
:103CE00020301A689B8859434FF47A7391FBF3F1A3
:103CF00089B21180704700BFF807002003280E4BDF
:103D000009D80E4A12888A423FBF012219788240A0
:103D10000A4338BF1A701B780F2B0BD1064B084A89
:103D200000211970138818B2142802DD143B138087
:103D300070471180704700BF200E00204200002015
:103D4000521A0020104B10B55A8859809A80891A4F
:103D500040F68C2289B291421C4602D900229A7107
:103D600010BD40F2DA52A1F2EF239BB2934207D882
:103D7000A079072804D8054B23F81010FFF7BEFFE1
:103D8000A3790133A37110BD200E0020D81D00209F
:103D9000034B4FF480521A8008B1024B18707047E1
:103DA0001C00002045000020064B1A78064B12B17B
:103DB0004FF4FF6201E04FF480521A8008B1034BC8
:103DC000587070478F1A00201C000020450000200A
:103DD0001FB50123ADF808300023ADF80A30074BBA
:103DE000ADF804101B7801A9ADF80620ADF80C3031
:103DF00001F072FE05B05DF804FB00BFF40700207F
:103E000070B5174C0501631903F10802D079154EFE
:103E100038B919820123D37173197059197B0222A1
:103E20001AE003F1100059821B8AC91A89B28180F5
:103E300040F2DA50A1F2EF239BB2834205D8907989
:103E4000094B23F81010FFF759FF2C44731908345D
:103E500000227059197BE271BDE87040B8E700BFDD
:103E6000200E002078220108D81D00201FB504462E
:103E70006B46A8210622682001F09AFB9DF80130CC
:103E80009DF80020042143EA022212B292FBF1F2D3
:103E90009DF80230ADF808209DF8032002A842EA00
:103EA000032212B292FBF1F29DF80430ADF80A2021
:103EB0009DF8052042EA03231BB293FBF1F3ADF812
:103EC0000C30034B21469A7802F048F904B010BD3B
:103ED000450000201FB504466B464321062268209A
:103EE00001F066FB9DF801309DF80020042143EAB3
:103EF000022212B292FBF1F29DF80230ADF80820D6
:103F00009DF8032002A842EA032212B292FBF1F2CA
:103F10009DF80430ADF80A209DF8052042EA0323FD
:103F20001BB293FBF1F3ADF80C30034B2146DA786A
:103F300002F014F904B010BD450000201FB504467E
:103F40006B463B210622682001F032FB9DF80020E1
:103F50009DF8013002A843EA0223ADF808309DF82D
:103F600002209DF80330214643EA0223ADF80A30CF
:103F70009DF804209DF8053043EA0223ADF80C308B
:103F8000024B5A7802F0EAF804B010BD4500002058
:103F900013B50222044601AB1B21682001F008FB87
:103FA0009DF804209DF8053043EA022303F54E53A3
:103FB0004FF48C72103393FBF2F32333238002B05F
:103FC00010BD204B13B51B680446012B0EDD4FF4CA
:103FD0000053ADF8043002238DF8073004231A484B
:103FE0000DEB03018DF8063001F060F96B218022A2
:103FF000682001F059FB642001F021F91921002209
:10400000682001F051FB6B210322682001F04CFB7A
:1040100037210222682001F047FB0C4B1A211A7845
:10402000682001F041FB1B211822682001F03CFBB5
:1040300068201C21102201F037FB0CB1044BDC700E
:1040400002B010BD1C1F0020001001404C000020D9
:104050004500002010B50446642001F0F0F8682007
:104060002321F02201F020FB10B9032001F0F1F828
:10407000052001F0E4F8064B68201A78202142F070
:104080000F0201F011FB0CB1024B9C7010BD00BF80
:10409000A40700204500002070B50646104C0025FE
:1040A00004EB811101F10C040E4A308A2A44538832
:1040B000B189034289B20DD00B420BD0DB439BB2D6
:1040C000338230465368984754F8043C01460BB19C
:1040D000207898470835202D04F11004E4D170BDF4
:1040E000080F00203012010813B504460068FFF7DE
:1040F00097FD226801A813889BB243F00103138047
:10410000637B8DF8043001238DF805308DF806307F
:104110008DF8073001F0D8FF02B010BD30B503684C
:104120002A4D047BAB420DD0B3F1804F0CD0A5F5E6
:104130009435AB420AD005F58065AB420CBF032332
:10414000042304E0002302E0012300E0022334B151
:10415000042C34D0082C34D00C2C0ED133E025465E
:10416000042B0AD005EB8303194D05EB0313C3F8A9
:10417000F02083F8EC4083F8F410027B03680C2AEB
:1041800023D8DFE802F0072222220C222222112269
:10419000222216009A8992B242F002020DE09A8918
:1041A00092B242F0040208E09A8992B242F0080208
:1041B00003E09A8992B242F010029A8130BD012543
:1041C000CEE70225CCE70325CAE730BD002C01402D
:1041D000200E002030B50E4B9B8912F1FF3215D313
:1041E00011B10C78013100E0FF24094B1D89AD07A6
:1041F000FBD5A4B29C811C89E407FCD5044B9B89A8
:104200009BB20028E9D003700130E6E7012030BD01
:1042100000380040084B9A8998811A89D007FCD54C
:10422000054B9889C0B2044B1A899107FBD51A89AE
:104230001206FCD4704700BF003800407FB51C4D0B
:104240004FF4805604466E61C320FFF7E3FF6846D3
:1042500000210622FFF7BEFF2E619DF801309DF878
:104260000020042143EA022212B292FBF1F29DF8EF
:104270000230ADF808209DF8032002A842EA03228C
:1042800012B292FBF1F29DF80430ADF80A209DF8CD
:10429000052042EA03231BB293FBF1F3ADF80C3087
:1042A000044B21461A7901F059FF04B070BD00BFDC
:1042B000000C0140450000207FB50646164C4FF427
:1042C00080556561BB20FFF7A5FF684600210622E7
:1042D000FFF780FF25619DF800209DF8013002A8BE
:1042E00043EA0223ADF808309DF802209DF8033020
:1042F000314643EA0223ADF80A309DF804209DF8C8
:10430000053043EA0223ADF80C30044B1A7801F073
:1043100025FF04B070BD00BF000C01404500002027
:1043200070B50E46054C4FF480556561FFF772FF7E
:104330003046FFF76FFF256170BD00BF000C0140E4
:104340001E4B13B51B680446012B0EDD4FF40053C2
:10435000ADF8043002238DF80730042318480DEB24
:1043600003018DF8063000F0A1FF80216B20FFF7DC
:10437000D7FF642000F063FF00216B20FFF7D0FF20
:10438000642000F05CFF6B200121FFF7C9FF1B20B8
:104390001821FFF7C5FF1C201021FFF7C1FF094BB3
:1043A0001A201978FFF7BCFF19200021FFF7B8FF8A
:1043B0000CB1054B1C7102B010BD00BF1C1F0020CA
:1043C000001001404D00002045000020044B1B78E8
:1043D000834281BF034B53F820301B68198070471C
:1043E000280800202C0800202DE9F34707468946BD
:1043F000DFF85880144E050105EB080473199A7311
:10440000A3686068ADF8043028238DF8063001A950
:1044100002238DF8073000F049FF55F80800217B92
:104420000022FFF7D5FC20464FF6FF710122FFF76F
:104430005BFE204639464A46FFF770FE06F108004B
:10444000284402B0BDE8F087200E00207822010841
:104450002DE9F74F8E46DFF89C92050159F805408B
:1044600009EB050A11462046164672469846FFF7A4
:10447000D7FBDAF80830DAF80400ADF80430182376
:104480008DF8063001A90223984F8DF8073000F00F
:104490000DFF9AF80C002F4449460C2800F2F680D4
:1044A000DFE810F00D00F400F400F4005100F40017
:1044B000F400F4008A00F400F400F400C200238C3D
:1044C000DFF834C223F001031B041B0C2384238C6C
:1044D000B4F804E0228B644522F073024FEA0242F2
:1044E0004FEA12429BB21FFA8EFE42F0700214D0C5
:1044F0000CF5006C644510D00CF5406C64450CD094
:104500000CF5806C644508D00CF5806C644504D0D3
:1045100023F0020343F0030307E023F00E032EF41D
:10452000407E43F003034EF4807EA4F804E022832F
:10453000A4F834802384238B23F008031B041B0C72
:1045400043F0080336E0238CDFF8ACC123F01003FE
:104550001B041B0C2384238CB4F804E0228B6445D9
:1045600022F4E6424FEA02424FEA12429BB21FFA9D
:104570008EFE42F4E04208D00CF5006C644504D095
:1045800023F0200343F0300307E023F0E0032EF490
:10459000406E43F030034EF4806EA4F804E02283B2
:1045A000A4F838802384238B23F400631B041B0CA2
:1045B00043F40063238369E0238CDFF83CC123F4D8
:1045C00080731B041B0C2384238CB4F804E0A28B9F
:1045D000644522F073024FEA02424FEA12429BB254
:1045E0001FFA8EFE42F0700208D00CF5006C644594
:1045F00004D023F4007343F4407307E023F46063B2
:104600002EF4405E43F440734EF4805EA4F804E060
:10461000A283A4F83C802384A38B23F008031B040B
:104620001B0C43F0080330E0238CDFF8CCC023F4EC
:1046300080531B041B0C2384228CB4F804E0A38B4E
:1046400022F4005223F4E6431B0412041B0C120C48
:1046500064451FFA8EFE43F4E04342F4405203D017
:104660000CF5006C644503D12EF4804E4EF4804E60
:10467000A4F804E0A383A4F840802284A38B23F44D
:1046800000631B041B0C43F40063A38329448B7B4E
:1046900043B1B4F844306FEA43436FEA53439BB2EB
:1046A000A4F8443023889BB243F001032380104BCD
:1046B0000C2814D8DFE800F0071313130A131313A0
:1046C0000D13131310005A19343407E05A193834F3
:1046D00004E05A193C3401E05A19403494603846D9
:1046E0001D44AE8103B0BDE8F08F00BF280E00204E
:1046F000200E002078220108002C01402DE9F04115
:10470000069D002B06460F462B4614BF4FF030087F
:104710004FF0200813F8011B09B9144603E0002AE2
:10472000FBDD013AF6E7002C04DD30464146B84790
:10473000013CF8E715F8011B11B13046B847F9E71D
:10474000BDE8F081F0B50124B0FBF4F58D4201D352
:104750004C43F9E70026D4B1B0FBF4F504FB150097
:10476000B4FBF1F41EB9002D01DC002CF3D1092DAE
:1047700003F1010EEFB204DD002A14BF37255725DF
:1047800000E030253D441D7001367346E3E71C70A0
:10479000F0BDF0B50124B0FBF4F58D4201D34C43DC
:1047A000F9E70026D4B1B0FBF4F504FB1500B4FB27
:1047B000F1F41EB9002D01DC002CF3D1092D03F119
:1047C000010EEFB204DD002A14BF3725572500E0A3
:1047D00030253D441D7001367346E3E71C70F0BD83
:1047E000016B0346C26810B5406941B1196C541A97
:1047F000013918BF0A46005D1A64C0B210BD196ABB
:10480000405C0131B1FBF2F402FB1412C0B21A6237
:1048100010BD436B13B190F844007047836A406A3F
:104820001B1A584258417047036B13B15B68006C08
:1048300001E0036AC069181A18BF01207047836A33
:104840008169426B1944D160416A994297BF0169FD
:10485000CB1ACB1A536096BF0023536083624FF08C
:10486000000380F84430136888BF816243F001037D
:1048700013607047426A10B58469A154426A0469A2
:104880000132B2FBF4F104FB11224262426B2AB105
:104890001368DB0707D4BDE81040D0E7826CD3680B
:1048A00043F08003D36010BD7047044B4FF4805237
:1048B00008B11A6170475A61704700BF0008014093
:1048C000034B4FF4805208B15A6170471A61704728
:1048D0000008014030B5002385B0ADF80A30ADF8CE
:1048E0000430ADF80630ADF80830ADF80C3003797F
:1048F0000446DA0744BF0422ADF80A209B0748BFEC
:10490000BDF80A300D46009148BF43F00803806CA3
:10491000694648BFADF80A3001F0BAFAA56005B0A3
:1049200030BD2DE9F04F8046894615461C4687B0BC
:104930002978002900F0C780252902D0013540469A
:1049400083E06A780027302A0CBFAA78AE1CA2F157
:10495000300312BF4FF0000AEE1C4FF0010A092B82
:1049600019D8A2F13003D9B2092905D80A2202FBCD
:10497000073716F8012BF4E7A2F16103052B02D8E3
:10498000A2F1570305E0A2F14103052B03D8A2F1E0
:1049900037030A2BEADD6C2A3BD13278751C632A77
:1049A0003AD007D8252A4ED0582A0DD0002A00F038
:1049B0008A80BDE7732A38D002D8642A64D0B7E76A
:1049C000752A51D0782AB3D1261D2068A2F1580447
:1049D00062424FF01001624103ABFFF7DAFE34464A
:1049E0000EE0582A33D1A2F158035A4204F10405CB
:1049F00020685A41102103AB2C46FFF7A3FE354631
:104A000003AB0093404649463A465346FFF776FECD
:104A10008EE7632A05D1354640462178261DC847D2
:104A20000CE00DD9732A16D1354623684046009311
:104A300049463A460023261DFFF760FE344677E7D5
:104A4000252ACED1354640462521C84770E7002AA1
:104A500039D035466CE702D8642A24D0F9E7752AA4
:104A600007D0782ABFD0F4E7261D20680A2100224B
:104A7000B2E7206804F1040B0A21002203ABFFF720
:104A800061FE35465C46BBE72068261D002808DA33
:104A90002D238DF80C3040420DF10D030A21002228
:104AA0009BE703ABFAE7206804F1040B002808DA5F
:104AB0002D238DF80C3040420DF10D030A21002208
:104AC000DDE703ABFAE707B0BDE8F08F0B4B9A6C5C
:104AD0001188890611D5D96A11B1908880B208472A
:104AE0009288D9695869D2B24254DA69D8680132D9
:104AF000B2FBF0F100FB1122DA61704708100020D0
:104B000038B51A4CD4F894301D88ADB2AA0612D527
:104B1000A26F1AB1988880B290470CE09B88A26E71
:104B2000216EDBB28B54A36EA16D0133B3FBF1F2A6
:104B300001FB1233A3662B0617D5636F216F0B4A57
:104B40008B420CD0516ED2F89400C95C0133818045
:104B5000D06DB3FBF0F100FB1133536738BDD2F8D1
:104B60009420D36823F08003D36038BD0810002060
:104B70000F4BD3F8E0100A88120617D5D3F8C020DF
:104B8000D3F8BC0082420DD0D3F8B000805C013273
:104B90008880D3F8A800B2FBF0F100FB1122C3F823
:104BA000C0207047CB6823F08003CB60704700BF04
:104BB00008100020094B20225A604FF6FE73084867
:104BC000426B11680B401360426A836A9A4200D0BC
:104BD00035E6012380F84430704700BF00000240F2
:104BE000081000200B4B4FF400525A604FF6FE7332
:104BF0000948D0F8CC2011680B401360D0F8BC20D5
:104C0000D0F8C0309A4201D0983018E6012380F8DD
:104C1000DC30704700000240081000202DE9F0470A
:104C20008A4690B091461E460546002800F0A181B4
:104C3000B04B06F00207984206F001084BD1AE4B8C
:104C4000AE4AC3F8A090C3F8982003F1E402C3F879
:104C5000AC2003F5F272C3F8B0204FF48072C3F8B1
:104C6000A420C3F8A820A64AC3F8C820143AC3F861
:104C7000CC20D2F8D43F43F48043C2F8D43F02237F
:104C80008DF807304FF40073ADF8043018238DF819
:104C900006301FB19B4801A900F008FB4FF4806368
:104CA000ADF8043048238DF80630B8F1000F03D07A
:104CB000944801A900F0FAFA0E238DF8143005A8E3
:104CC00001238DF815308DF816308DF817308E4C85
:104CD00001F0FAF99EE08D4B984240D1864B874A0D
:104CE000C3F85490DA6480229A654022DA6503F5AD
:104CF00039721A6603F559725A66854AC3F89400E8
:104D0000D36943F40033D36102238DF807300423C1
:104D1000ADF8043018238DF806301FB1794801A989
:104D200000F0C4FA0823ADF8043048238DF80630AB
:104D3000B8F1000F03D0734801A900F0B7FA262399
:104D40008DF814300222012305A88DF815308DF856
:104D500016208DF817306F4C01F0B6F95AE06E4B03
:104D6000984256D1644B654A012E1A6003F5697268
:104D70005A6103F2A4429A614FF48072DA601A61B8
:104D800018BF664AC3F8089018BF1A63644A5A638A
:104D900002F6E472D36943F48023D36102238DF8D1
:104DA00007304FF48063ADF8043018238DF80630D7
:104DB0001FB15C4801A900F079FA4FF40063ADF827
:104DC000043048238DF80630B8F1000F03D0554861
:104DD00001A900F06BFA012E0CD127238DF81430B5
:104DE00005A802238DF815608DF816308DF8176030
:104DF00001F06AF90C238DF8143005A801238DF811
:104E000015308DF816308DF817303B4C01F05CF9F9
:104E100000E000240023267106F004062362E3610B
:104E2000A3626362ADF80830A564C4F82CA0C4F88E
:104E30000890CDF8049006F0FF0336B14FF400530C
:104E4000ADF80A304FF4806301E0ADF80A30ADF8F8
:104E50000C300023ADF8103008F0FF09B8F1000F56
:104E600002D1ADF80E9002E00423ADF80E3007F049
:104E7000FF062FB1BDF80E3043F00803ADF80E3039
:104E8000284601A901F004F8AB899BB243F4005312
:104E9000AB81002306930793089309930B930C931C
:104EA0000D930F932B1D05934FF480530E93802386
:104EB0000A93B9F1000F3BD0206B002834D0E3688F
:104EC000089320230D936369069301F085F8206B06
:104ED00005A901F063F8226B136843F00103136026
:104EE000AB8A9BB243F04003AB8253689BB223640E
:104EF0001EE000BF003801400810002050120108D9
:104F00005800024000080140A0100020004400406A
:104F100000100240541000200048004030000240C1
:104F20001C000240000C0140EB6843F02003EB60E2
:104F300006B3606BC0B12369002608931023079362
:104F40000D9601F049F8606B05A901F027F8636B35
:104F50001A6842F002021A605E605E60AB8A9BB221
:104F600043F08003AB8205E0EB6843F08003EB6025
:104F700000E000E0204610B0BDE8F08703685B6900
:104F800018470368DB68184703689B68184703687D
:104F90005B68184703681B681847014B1B68184774
:104FA000181F00208F4A70B51368988A80B2C1B26A
:104FB000CE072ED5198821F400610904090C198047
:104FC000198889B241F480611980002111715179E9
:104FD00099B1917911B9D179FF290ED1012191713E
:104FE000117A022901BF198889B241F40061198040
:104FF000517A41F001011982DFE0517A01F0FE019E
:105000001982D379FF2B00F0D880764BFF211971DC
:10501000D3E08D073AD5BFF35F8F107AC0B2012875
:1050200013D1517989B1917979B1198821F48061CD
:105030000904090C1980BFF35F8F198B19889072CE
:1050400089B241F4007119801BE0198BBFF35F8FA7
:10505000107A644902280AD1487940B1897931B17E
:10506000198821F480610904090C19809FE0107AE5
:105070005C49032805D1487918B18979002940F0A5
:105080009680998889B241F4806195E04C0754D5A7
:10509000012191725179002936D09179002933D0BC
:1050A000117A1888022911791CD920F48060000433
:1050B000000C18801C8AD568C8B2E4B249B26C549E
:1050C000198889B241F400711980811C1171198A03
:1050D0000130C9B240B22954998889B241F4806143
:1050E000998026E080B240F4007018801C8AD56850
:1050F000C8B2E4B249B26C541C8A411C49B2E4B251
:1051000003306C54107114E09179364809B9017C70
:1051100041B1198889B241F40071198011790131C6
:10512000117106E0198889B241F48071198001215A
:1051300081711988C905FCD43FE001F0400101F0FC
:10514000FF04E1B110791E8AD568C4B2611C40B277
:10515000F6B22E54C9B2157A117149B2C81C8542F3
:1051600001BF988820F480600004000C08BF98807C
:10517000137A8B4221D11B4B02341C711DE00606B1
:105180001BD5117948B2451C0AD054690131205C05
:10519000C9B21882107A117149B288420DD106E065
:1051A000D17914711982517909B9117A29B999887B
:1051B00021F480610904090C9980117A92F90400A4
:1051C00001318842074B0CD100219971997A31B194
:1051D00019688B8823F440731B041B0C8B800023FD
:1051E000137670BDAC150020024B03EB4000408BE2
:1051F000704700BFAC15002010B50949094B0C6C75
:105200009B680A6C9442F8D14A6C4FF47A7042431E
:10521000496CD31AB3FBF1F300FB043010BD00BF9F
:10522000AC15002010E000E038B50446FFF7E4FFBD
:105230000546FFF7E1FF401BA042FAD338BD10B589
:1052400004462CB14FF47A70FFF7EEFF013CF8E70B
:1052500010BD40F2DB14604308B50E4B10221A61FA
:1052600008225A61841E0B4B2046DA6882F0100235
:10527000DA60DA6882F00802DA60FFF7E0FF012006
:10528000FFF78BFE1920FFF7DAFF0020FFF785FEFE
:10529000E9E700BF000C0140024A136C01331364BC
:1052A000704700BFAC1500207CE67BE6F0B5B1F896
:1052B00000E000234EFA03F2D50725D58E784FEA99
:1052C000D30CF40648BFCC7806F00F0203F00707B2
:1052D00048BF2243BF0050F82C500F24BC4025EAA1
:1052E0000404BA402243282E40F82C2005D1C4687B
:1052F00001229A4024EA020205E0482E04D1C46843
:1053000001229A402243C2600133102BD2D1F0BD5A
:10531000012828BF01202DE9F04F0646142000FB8C
:1053200006F3DFF8D08189B008EB030258F8034098
:105330006A4B11691C6083F84860694B1789DD6905
:10534000B2F80AA0294355684AEA0709D96102223E
:10535000C5F8109003A98DF80E0028460193ADF80A
:105360000C908DF80F20FFF7A1FF019BCDF8008076
:1053700098464FF0080BAA68174203D10A20FFF79E
:1053800053FFF8E70A206F61FFF74EFF2F610A20F5
:10539000FFF74AFFBBF1010BEDD1C5F814A00A20BD
:1053A000FFF742FF6F610A20FFF73EFF2F610A20DF
:1053B000FFF73AFF0222C5F810A0284603A98DF88E
:1053C0000F201C228DF80E20ADF80C90FFF76EFF19
:1053D000444A03A89442D8F810200BBF42F40012AC
:1053E00042F48002C8F81020C8F810200BBFD8F88B
:1053F0001020D8F8102022F4001222F48002C8F8FD
:105400001020A38823F440731B041B0CA380238863
:105410009BB243F001032380A58800F0F1FC0599BD
:10542000314B25F03F05B1FBF3F32D042D0C1D434B
:10543000ADB2A5802288002522F001021204120CD0
:1054400022802A4A03A8B1FBF2F100298AB208BFE0
:10545000012242F400414FF4967253434FF47A72A2
:1054600093FBF2F301339BB22384A1832388009A38
:105470009BB243F001032380238823F4816323F04C
:1054800002031B041B0C23804FF48043238114234D
:1054900003FB0626737B01248DF80C308DF80D502C
:1054A0008DF80E508DF80F4000F00EFE337B9DF806
:1054B0000F208DF80C308DF80D501AB103A800F0B4
:1054C00003FE08E05A0903F01F039C4002F1200389
:1054D000074A42F8234009B0BDE8F08FAC15002020
:1054E000001002400054004040420F00804F120064
:1054F00000E100E06812010813B5234C23689A8A82
:1055000092B20192019A12F4706F1CBF012284F8CA
:105510004920019A12F4E06F2AD01A8B9A8822F45B
:1055200080621204120C9A80019A910520D41A8884
:1055300092051DD41A88D0050FD51A88D105FCD440
:105540001A8892B242F400721A801A889205FCD42A
:1055500094F84800FFF7DCFE0AE01A8892B242F4A1
:1055600000721A809A8822F440721204120C9A80F7
:105570002268938A23F470631B041B0C938200231C
:10558000237602B010BD00BFAC150020B4E7B3E72E
:10559000064A08B5B2F84A3092F8480001339BB287
:1055A000A2F84A30FFF7B4FE002008BDAC15002079
:1055B00010B540001C4CC0B26072E17101200021A6
:1055C00021746071227220762068E360636184F840
:1055D000491040B383889B0515D40388D9050DD4A1
:1055E00047F230530288920502D5013BFAD112E00E
:1055F0008BB103889BB243F48073038083889BB292
:1056000043F44073838047F23053227E12B1013B52
:10561000FBD100E013B9BDE81040B9E7024B93F8A5
:10562000490080F0010010BDAC15002010B540000D
:105630001C4CC0B26072E1710120002120746171C4
:105640002272207620686361E36084F8491040B3D9
:1056500083889B0515D40388D9050DD447F23053B0
:105660000288920502D5013BFAD112E08BB1038882
:105670009BB243F48073038083889BB243F44073EE
:10568000838047F23053227E12B1013BFBD100E010
:1056900013B9BDE810407BE7024B93F8490080F056
:1056A000010010BDAC15002007B502AB03F8012DB9
:1056B0000122FFF7BBFF03B05DF804FBB0F8400028
:1056C00080B27047808F80B27047008F80B2704781
:1056D000808E80B27047094BDA68D10709D4DA6846
:1056E000520708D4DB6813F0100F14BF0320042006
:1056F0007047012070470220704700BF0020024021
:10570000204BF0B51A78FAB15E785F7E93F81CE012
:10571000022103EB010C9CF81D204D1C324102F0CC
:105720000F02BA42174C0AD29CF81DC025446D7F67
:1057300004EB82020CEA0E0405EB0424146302312C
:105740001029E6D100221A70597E0E4A814202D9F0
:1057500092F8501011B9B3F87001F0BD92F80C3402
:10576000104433B190F8633102EB8302106B4008B0
:1057700004E090F8633102EB8302106B00F5777060
:1057800080B2F0BDF8150020054B184490F8632155
:1057900003EB8203D3F81004C0F3CF00704700BFBF
:1057A000F8150020064B184490F8632103EB8202A1
:1057B000D2F83004B3F86C3103EB500080B270477C
:1057C000F815002038B5134C012384F850300546F5
:1057D000FFF712FD41F28832D4F85034EDB2C31A0B
:1057E0009342C4F8543484BF002384F8583494F8A6
:1057F0005834084A0F2BC4F850041C440ABF012334
:105800000133137065770ABF002382F85834A2F879
:105810005A3438BDF815002010B50446FFF7ECFCEB
:10582000184A1849D2F85C34C2F85C04C31AB3F5BC
:105830007A6F84BF002382F8603492F8603423B911
:10584000A82C1DD181F8613406E0022B02D181F829
:10585000624401E0142B02D8D11881F8634401336B
:10586000DBB282F8603492F86224064952000532B5
:10587000934201BF002381F86034012381F8613431
:1058800010BD00BFF815002038B50446FFF7B4FC82
:1058900040F6C411114BD3F87824C3F87804821A67
:1058A0008A4284BF002283F87C2493F87C240AB9BE
:1058B0000F2C12D10020094983F87D0452B18D18B4
:1058C000182A85F87D4405D1012381F87C0481F8EC
:1058D0007D3438BD013283F87C2438BDF8150020B2
:1058E000026830B5D543124B1C682C401C605968C7
:1058F0002940596019680A431A6002689C68D543B8
:105900002C409C60D9682940D9604179102909BF91
:10591000996801F180431143996015BF03F5823303
:10592000D96819680A4316BF0A43DA601A6030BDA5
:10593000000401407FB505462320FFF780FC682066
:10594000752101220DF10703FFF732FE002863D015
:105950009DF80760682E5ED106210A4602AB3046EC
:10596000FFF726FE9DF80D102C4C01F001029DF86A
:105970000B1001F001014B0043EA82019DF8092060
:1059800002F001030B4321D05BB2012B01D10123B3
:1059900002E0022B26D1002384F89734204BBB2D44
:1059A000C4F898341F4BC4F89C341F4BC4F8A83477
:1059B0001E4BC4F8AC341E4BC4F8B43494F897347E
:1059C00023761C4B14D90120187025E00DF1070334
:1059D00030460C210122FFF7EBFD9DF8073013F054
:1059E0000F0302D10520FFF734FC042BD3D1CEE7FF
:1059F000612D01D902220BE0292D01D9032207E0F4
:105A0000132D01D9042203E0092D8CBF05220622A3
:105A10001A70012000E0002004B070BDF8150020CD
:105A2000A93D00083D3F0008C33F0008D53E0008DF
:105A3000184492314C00002073B51F4D4FF480562E
:105A400004466E61F520FEF7E5FB0DF1070000212D
:105A50000122FEF7BFFB2E619DF80730702B28D185
:105A6000164B174ABB2CC3F89824164AC3F89C243B
:105A7000154AC3F8A824154AC3F8AC24144AC3F83D
:105A8000B424144B02D90120587013E0612C01D9C1
:105A900002220BE0292C01D9032207E0132C01D9A3
:105AA000042203E0092C8CBF052206225A70012033
:105AB00000E0002002B070BD000C0140F81500208D
:105AC000913D0008B9420008414300083D420008EA
:105AD000184492314C0000200A88F0B54B880E899A
